:100000000C9490000C94AF000C94AF000C94AF00D3
:100010000C94AF000C94AF000C94AF000C94AF00A4
:100020000C94AF000C94AF000C94AF000C94AF0094
:100030000C94AF000C9469020C94AF000C94AF00C8
:100040000C94AF000C9491010C94AF000C94AF0091
:100050000C94AF000C94AF000C94AF000C94AF0064
:100060000C94AF000C94AF000C94AF000C94AF0054
:100070000C94AF000C94AF000C94AF000C94AF0044
:100080000C94AF000C94AF000C94AF000C94AF0034
:100090000C94AF000C94AF000C94AF000C94AF0024
:1000A0000C94AF000C94AF000C94B5020C94AF000C
:1000B0000C94AF000C94AF000C94AF000C94AF0004
:1000C0000C94AF000C94AF000C94AF000C94AF00F4
:1000D0000C94AF000C94AF000C94AF000C94AF00E4
:1000E0000C94AF000C94AF000C94AF000C94AF00D4
:1000F0000C94AF000C94AF000C94AF000C94AF00C4
:100100000C94AF000C94AF000C94AF000C94AF00B3
:100110000C94AF000C94AF000C94AF000C94AF00A3
:1001200011241FBECFEFD1E4DEBFCDBF12E0A0E0AF
:10013000B2E0E0E6FEE100E00BBF02C007900D92E6
:10014000A431B107D9F717E0A4E1B2E001C01D92D4
:10015000AD30B107E1F70E94C00D0C942E0F0C9446
:10016000000095B180E2892785B980910202811152
:1001700007C081E090E090932903809328030895BD
:1001800082E090E090932903809328030895E7E1AB
:10019000F3E0A5E1B2E08D919C9111979683858360
:1001A00081E087838087818788E192E093878287D7
:1001B00012968C91848781EB90E09687858783E007
:1001C00090E09093290380932803CF010C941C05A1
:1001D000DC0195B180E4982795B91796ED91FC91D3
:1001E00018979081973191F19A3039F09B3009F44A
:1001F00055C09333C1F081E00895209128033091D8
:10020000290322303105B9F73093160220931502E5
:1002100082E0809317029093180281E08093190284
:1002200080931402E8CF9181911107C085B91BB862
:100230001796ED91FC9118979181913009F468C05F
:100240009230C9F615B884E08BB9D5CF628170E0E1
:10025000762F66278181682B7093010260930002DC
:1002600086E19FE00E94CA0E1092810010929100D8
:1002700081E08093020280E685B988E08BB9F8942A
:100280002FEF81EE94E0215080409040E1F700C0D4
:1002900000001092290310922803ADCF809128030B
:1002A00090912903029709F0A6CF80917C00807E6F
:1002B00080937C0090E120E030E080917A008064BF
:1002C00080937A0080917A0086FDFCCF409178007F
:1002D00050917900240F351F915079F7329522956E
:1002E0002F7023273F70232782E090E0909316021F
:1002F0008093150283E0809317028BE080931802AD
:100300002093190230931A0281E08093140273CF74
:1003100080E285B91BB81796ED91FC9118979181F1
:100320008FCF1F920F920FB60F9211240BB60F9220
:100330002F933F934F935F936F937F938F939F93ED
:10034000AF93BF93EF93FF931092850010928400B8
:100350008091280390912903019771F482E090E045
:10036000909316028093150281E0809317028EEE1F
:10037000809318020E94C70095B180E4892785B94F
:10038000FF91EF91BF91AF919F918F917F916F916D
:100390005F914F913F912F910F900BBE0F900FBE29
:1003A0000F901F90189514BE88E10FB6F8948093B3
:1003B0006000109260000FBEE1E6F0E080E880830C
:1003C000108278940C94780290E00C948D02DC01F9
:1003D000CB01880F991FAA1FBB1F880F991FAA1F47
:1003E000BB1F880F991FAA1FBB1F880F991FAA1F29
:1003F000BB1FBC01CD01660F771F881F991F28EE18
:1004000033E040E050E00E943F0EDA01C901232BA7
:10041000242B252B09F45CC0492F5A2F6B2F7727EB
:10042000282F109270008091B60080628093B600F1
:100430001092B0001092B1001092B2008091B600FC
:100440008F71E1F787E087BB8093B1006FEF37E0F2
:1004500010922A0341155105F9F06093B300809181
:1004600070008260809370008091B6008F71E1F718
:1004700033BF889513BE9FB7F89480912A039FBF1E
:10048000882331F34115510509F14150510910926A
:100490002A034115510509F7222319F02093B300CF
:1004A000DECF8091B6008F71E1F71092700010924C
:1004B000B10083B5826083BD8091B6008F71E1F792
:1004C0008091B6008F7D8093B600089520E0C0CF64
:1004D00008951F920F920FB60F9211248F9381E00F
:1004E00080932A038F910F900FBE0F901F90189545
:1004F0001092D40680E29EE49093A9008093A80015
:10050000E1EAF0E088E08083808182608083E2E736
:10051000F0E080818260808308952091A400309172
:10052000A500820F931F9093AB008093AA002091A7
:10053000AA003091AB008091A8009091A900821789
:10054000930770F42091A8003091A9008091AA002F
:100550009091AB00821B930B9093AB008093AA0009
:1005600084E089BBCA9BFECF08951F920F920FB6FD
:100570000F9211248F938091D4068F5F8093D406BD
:100580008F910F900FBE0F901F90189583E080936E
:100590004201809141018F718830D9F780934201E7
:1005A000809141018F718830D9F78FEF80934F018F
:1005B00080912B03882381F083E080934201809116
:1005C00041018F718830D9F786E180934201809193
:1005D00041018F718631D9F7089580913901816089
:1005E0008093390110922B0381E090E09093AD034A
:1005F0008093AC0383E080934201809141018F712D
:100600008830D9F780934201809141018F71883001
:10061000D9F780914C01806880934C0108958093B4
:100620002B030C94C6028F71E8E4F1E09081907E78
:10063000892B80830895CF93DF9300D0CDB7DEB7A9
:100640009A838983809362018A81809363010F90EA
:100650000F90DF91CF910895CF93DF9300D0CDB766
:10066000DEB79A838983809360018A8180936101D8
:100670009A818981890F80936D010F900F90DF918E
:10068000CF9108958F70E5E4F1E09081907F892B00
:100690008083089583E080934201809141018F71AE
:1006A0008830D9F780934201809141018F71883061
:1006B000D9F78091390182608093390182E090E01E
:1006C0009093AD038093AC030895E9E3F1E080815A
:1006D0008D7F80830E94C60281E090E09093AD03FD
:1006E0008093AC03089523E02093420120914101BF
:1006F0002F712830D9F729E120934201209141013F
:100700002F712931D9F72FEF20934F0122E0260FC7
:1007100020938001662371F0FC016150862F90E0E8
:1007200001968E0F9F1FA1E8B1E021912D93E8174C
:10073000F907D9F783E090E09093AD038093AC0381
:1007400082E0809342010895FB01AB01405F5F4F5F
:10075000219120933F01E417F507D1F710923C0156
:10076000FC014096DF012D9120933E01A817B907A7
:10077000D1F720913C01206820933C0120913D015C
:1007800020FFFCCF20913E0121938E179F07D1F7C8
:100790000895CF9383E080934201809141018F714E
:1007A0008830D9F786E080934201809141018F71B2
:1007B0008630D9F780914F01806180934F0110926C
:1007C000470180914F0184FFFCCFC09147010E94F7
:1007D000C60286EA8C0FCF910895CF93DF9300D0A5
:1007E00000D000D0CDB7DEB78091AC039091AD03BF
:1007F000029709F440C080914F0183FF45C060918A
:100800007B01462F50E080E090E020E0FC01E058C2
:10081000FE4F3081FC01E45DFC4F30832F5F822F5F
:1008200090E04817590794F78CE293E09A83898304
:1008300062506B83FA01E45DFC4F80818C83809170
:1008400047018A558D83CE0101960E94A1068091B1
:1008500041018F718631D9F780914F018860809373
:100860004F0180914C018F7780934C0180914C0116
:10087000806880934C0126960FB6F894DEBF0FBEB9
:10088000CDBFDF91CF91089580914F0186FFF3CFC7
:10089000809141018F71893131F080914F018064E5
:1008A00080934F01E8CF80914201829586958770B1
:1008B00029F0833081F0853081F083E08E830E94BF
:1008C000C60221E030E03093AD032093AC038E816B
:1008D0000E94A30BE2CF81E0F1CF82E0EFCF109234
:1008E000D9061092DA061092D6061092D50610920A
:1008F0000C0710920B07EBEDF6E01192119286E0D7
:10090000EB3FF807D1F70E94B90A0E947E060E94C9
:10091000E3050E9417050C94F2089093D606809385
:10092000D5060C942C039093D8068093D7060C948C
:100930001B03E82FF0E0EE0FFF1FE552F94F718324
:100940006083089581E020910B0730910C07232BE1
:1009500009F480E00895E5EDF6E086A997A90196EF
:1009600097AB86AB0895E5EDF6E086A997A90197C8
:1009700097AB86AB08950C944A030C946503CF9310
:10098000DF93CDB7DEB729970FB6F894DEBF0FBE61
:10099000CDBF99E0E7E0F2E0DE01119601900D9203
:1009A0009A95E1F78931D8F0E1E092E3891770F088
:1009B000975EEF5F9A3FD1F78FEF29960FB6F894C5
:1009C000DEBF0FBECDBFDF91CF910895F0E081E093
:1009D00090E08C0F9D1FE80FF91F8081EECFE0E0C3
:1009E000F0E0F5CF0E94DC060E94C40B0E943E0599
:1009F0000C945509E091AE03F091AF03309731F4B8
:100A000014C00190F081E02D309779F0228133817C
:100A100028173907B1F7DC01AD57BF4F2C91278755
:100A200013962C91208B22E024830C941F061092A5
:100A3000AF031092AE030895FC011482178613824F
:100A4000128280910B0790910C07019690930C07EE
:100A500080930B078091AE039091AF03009739F01C
:100A600091838083F093AF03E093AE0308951182E6
:100A70001082F093AF03E093AE0308950F931F939A
:100A8000CF93DF93E091AE03F091AF03309751F134
:100A9000EF018C81882359F18230F9F4EC17FD07BE
:100AA00011F48AC0FC01808191818C179D07D1F7D8
:100AB000888199819183808380910B0790910C07A5
:100AC000019790930C0780930B07ED85FE85CE016F
:100AD000DF91CF911F910F9109940990D881C02D7A
:100AE0002097B9F6DF91CF911F910F9108950E9441
:100AF000EE058C01009709F457C09B838A8381E03F
:100B00008C83F801E957FF4F8AEF94E0918380834B
:100B10003197898582FB882780F98083F801838556
:100B2000998590FB80F98387998593FB992790F9A4
:100B300090FB82F9838799859695917090FB81F956
:100B400083878091D9068F5F8093D90684878091AF
:100B5000D5069091D606968785878D819E81908B4C
:100B600087878885982F9F708189807F892B818BCB
:100B70009F819295907F8F70892B818BEF57FF4FCC
:100B80004C8550E06A857B85808191810E94BB0EF7
:100B9000F80191818C85890F8183C801DF91CF9104
:100BA0001F910F910C94DE0A82E08C838F87DF9176
:100BB000CF911F910F910895888199819093AF03F0
:100BC0008093AE0379CF1092B00310923904109243
:100BD000C20410924B051092D4050895E0EBF3E0A7
:100BE00080E090E02081222349F00196E757FF4FF3
:100BF00085309105B9F780E090E0089549E8489F75
:100C00009001499F300D1124C90180559C4FFC0172
:100C100011924A95E9F740E1FC014183EF57FF4FFC
:100C20002E533C4F3183208320910B0730910C07CA
:100C30002F5F3F4F30930C0720930B070895FC0163
:100C40001082E5EDF6E086A997A9019797AB86ABF0
:100C500008950097B1F0FC01E757FF4F86E0ED35AE
:100C6000F80738F00BC0E757FF4F86E0ED35F8077F
:100C700028F480818823B9F3CF01089580E090E0C3
:100C80000895E0EBF3E0F5CFFC01DC01AD57BF4F79
:100C90001C92A5EDB6E014969C9114979F5F149654
:100CA0009C93149794878D919C919687858708953E
:100CB000AC01E0E7F6E020E09081992319F0915033
:100CC000908321E0359686E0E23AF807A9F72111F2
:100CD00001C00895CA010C94E90CDC0119962C910D
:100CE0001997222339F01796ED91FC9118972081DE
:100CF000222311F080E008950C94760BE0E7F6E0F3
:100D00001082359686E0E23AF807D1F784E690E063
:100D1000A0E0B0E08093630690936406A09365061C
:100D2000B0936606109268061092670688E596E012
:100D300090936A06809369066DE676E080E00C94F5
:100D40009904CF93DF93DC01ED91FC911197218100
:100D5000283819F0DF91CF91089520812F7D21341B
:100D6000C9F712962C912031A8F3EC010E94EE05F0
:100D7000009781F320E2FC0120832A8121832B81CB
:100D8000ED57FF4F20832C81319620834A8150E01C
:100D9000688179810296DF91CF910C94BB0E80938C
:100DA0006B060895611104C024E2FC0120830895BC
:100DB00022E2FC01208308957F928F929F92AF924E
:100DC000BF92CF92DF92EF92FF920F931F93CF9338
:100DD000DF93CDB7DEB72C970FB6F894DEBF0FBE0A
:100DE000CDBF00E010E044E2F42E9924939452E247
:100DF000852E61E2762E7BE0E72ECC24C394D12CA5
:100E0000C8010E9429068C01892BA1F0D8018C9180
:100E1000813209F45BC110F1823209F493C084324B
:100E200079F7C8010E941F06C8010E9429068C019B
:100E3000892B61F72C960FB6F894DEBF0FBECDBF9D
:100E4000DF91CF911F910F91FF90EF90DF90CF90A6
:100E5000BF90AF909F908F907F900895803281F6E1
:100E6000F801F082838583FDCBCF258136812F3F2A
:100E70003F4F09F450C1F801278530892F3F3F4F7C
:100E800009F45EC1A090D506B090D606D8011D9693
:100E90006D917C911E97A616B70609F4B1CFA0E715
:100EA000B6E0ECE6F6E080E090E020E030E00DC057
:100EB000408151816417750709F44AC1019615965E
:100EC000359656E0EE39F50759F04C914111F0CFC7
:100ED0009F0101961596359656E0EE39F507A9F76C
:100EE0002115310509F48CCFD90111967C936E93AD
:100EF000F801848512968C93129713969C921397FF
:100F00001496EC928DE596E00E94E90CA090D5062F
:100F1000B090D606D80117968D919C91189701969E
:100F200009F439C1F801878590898A159B0519F064
:100F3000019609F065CFF801838581FD42C1F80172
:100F400080825ECF10926B06D80151962C915197FA
:100F5000322F32953F70E32FF0E0EE0FFF1FE55286
:100F6000F94F0190F081E02D309709F4ECC01D9607
:100F70008D919C911E979A8389831F964D915C91C8
:100F800050975C834B832F702D833E83AF57BF4FA9
:100F90006D917C917987688798012E5F3F4F261B62
:100FA000370BD80111963C911197230F2A87AD5723
:100FB000BF4F2C912B8711962C912C87D8011B9613
:100FC0002C91622F637022FD86C030E0632B23FDDD
:100FD00086C030E0262F232B4F3F5F4F09F486C099
:100FE00030E0232BD80119964D915C911A97841704
:100FF000950709F48EC090E0822F892BD8011596B1
:101000002D913C9116972F3F3F4F09F480C090E0FF
:10101000892B8F83CE0101960995F801938590FF66
:1010200080E0D80117962D913C9118972F3F3F4FA4
:1010300009F45EC0D80115962D913C9116972F3F6B
:101040003F4F09F440C02091D5063091D6062F3F7E
:101050003F4FC9F18823B9F10E94EE055C0100976A
:1010600091F10E944406D50111968C9111978D5FE4
:1010700011968C931197F501E957FF4F1182108259
:10108000F8018385869581701B969C911B9780FB48
:1010900091F91B969C931B978585968550969C93FA
:1010A0008E931F97F501EF57FF4F0190F081E02DD0
:1010B000108280916B068283D8011C968C9181836B
:1010C000C5010E94DE0AF801F0829ACE60E0C801F4
:1010D0000E94020995CE30E2632B23FF7ACF30E4E1
:1010E000262F232B4F3F5F4F09F07ACF34E079CF83
:1010F0004091D5065091D606F801278530894217D0
:10110000530709F097CF93FD95CF81E093CF90E1FE
:101110007FCF98E071CFD8011F962D913C915097C9
:101120004091D5065091D6064217530721F02F3F24
:101130003F4F09F065CE81FF08C0F801708260CE94
:1011400080FFA0CE5DCE80E068CFD8018C9258CED3
:10115000F8012485FC01EE0FFF1FEE0FFF1F8E0F1D
:101160009F1FFC01E459F94F8281821B883058F59A
:101170009381292F30E0082E02C0359527950A94D7
:10118000E2F720FD3DCE960101C0220F8A95EAF7D5
:10119000922B9383BFCED8011F968D919C9150972F
:1011A0008A159B0509F4C7CED8011B962C9122FD08
:1011B000BFCEC8010E942E0BA090D506B090D606D7
:1011C000B1CE70821DCE2283238130E08195A901AA
:1011D00002C0440F551F8A95E2F7CA0181608383DC
:1011E000E48298CE1092B3061092B2061092B10625
:1011F0000895FC0190E1ABEFB6E001900D929A9555
:10120000E1F70895611109C021E3FC012083809179
:10121000B3068F5F8093B306089520E3FC0120831B
:101220008091B3068F5F8093B3060895CF93DF93C9
:10123000C091B106D091B206FE01EF57FF4FA081D9
:10124000B1817091AF06872F90E06091B006262F94
:10125000613118F120E13091AE064EE956E0A80F59
:10126000B91FFA0190818C9189278D93311102C0A9
:1012700090818927808331968E2F841B821790F36B
:10128000720F7093AF06621B6093B006611108C0C5
:1012900084E38883DF91CF9108956111DCCFF0CF93
:1012A00082E38883DF91CF9108950F931F93CF93AB
:1012B000DF938091B306882369F0E091B106F09145
:1012C000B206309709F468C08081843341F08233DC
:1012D00009F456C0DF91CF911F910F91089580912D
:1012E000AF06DF01AF57BF4FCD91DC91C80FD11DC5
:1012F0004091A2065091A3066091A4067091A506A4
:1013000080919E0690919F06A091A006B091A106A3
:1013100084279527A627B7274091A6065091A706B0
:101320006091A8067091A90684279527A627B7275C
:101330004091AA065091AB066091AC067091AD0643
:1013400084279527A627B7272091AE06211132C002
:1013500061E0088119812A813B8180179107A207EA
:10136000B30709F060E0CF010E94D2061092B206E6
:101370001092B1068091B30681508093B306AACF34
:1013800083E380836BEF76E08EE996E0DF91CF9187
:101390001F910F910C94660C80E090E006C0FC0158
:1013A000208130ED320F323080F00E942906009704
:1013B000B1F790CF88839983AA83BB8381818C5FA7
:1013C0008183CF010E949F0BD1CF9093B20680936F
:1013D000B106448550E060E070E040939E06509373
:1013E0009F066093A0067093A1064785508960E030
:1013F00070E0BA0155274427318932953F70432B5D
:101400004093A2065093A3066093A4067093A5068A
:101410004585568560E070E0BA015527442731893B
:101420003F70432B4093A6065093A7066093A806EF
:101430007093A90633854581568160E070E0BA015A
:1014400055274427432B4093AA065093AB0660933D
:10145000AC067093AD062133D1F03181FC01EF571A
:10146000FF4F60817181AC014E5F5F4F461B570B90
:10147000430F4093B0061092AF0631E0203309F0DD
:1014800030E03093AE0622E3FC01208323CFFC0141
:1014900041813CEF340F3183E1CF0F931F93CF9302
:1014A000DF93EC0110E080E090E003E10E94290668
:1014B0000097A9F0FC0120812131C1F7EC57FF4FC3
:1014C000208131812150310931832083232B71F414
:1014D000FC01008311E00E942906009759F71111C1
:1014E00007C0DF91CF911F910F91089511E0DECFDA
:1014F000CE01DF91CF911F910F910C94E90CFF92D7
:101500000F931F93CF93DF93EC0110E080E090E006
:1015100027E1F22E00E10E9429060097C1F0FC01AC
:1015200020812631C1F7EC57FF4F208131812150B6
:10153000310931832083232B91F4FC01F082ED5794
:10154000FF4F008311E00E942906009741F7111117
:1015500008C0DF91CF911F910F91FF90089511E086
:10156000DACFCE01DF91CF911F910F91FF900C94B4
:10157000E90C1092D1061092D006E2ECF6E082E37C
:1015800090E0A0E0B0E086839783A087B1871386C0
:1015900012868FE79AE095878487E4EBF6E08AE08D
:1015A00090E0A0E0B0E086839783A087B1871386A0
:1015B00012868DE49AE0958784870895CF93DF9310
:1015C000FC01DC01AA57BF4F8C9181FD03C09385BC
:1015D00091FD31C092E19083DF01AD57BF4F1C9266
:1015E00080FF22C08FEF9FEF968385832785308908
:1015F000308727838091D5069091D6069287818780
:101600008091DA068F5F8093DA0684832F3F3F4F05
:10161000A9F081E698E893838283EC57FF4F11820B
:101620001082DF91CF9108958091D7069091D806CE
:1016300096838583DBCF90E19083CECFEF0181E469
:1016400098E8938382830E94AC0EFE01EC57FF4F13
:1016500087709927019691838083E3CF0F931F931F
:10166000CF93DF938C010E94EE05EC01892BC9F129
:1016700082E18883F80181818983FE01ED57FF4F64
:1016800010820E94AC0EFE01EC57FF4F8770992725
:10169000019691838083339611821082F8014181F3
:1016A00050E0B8016E5F7F4FCE0102960E94BB0EE4
:1016B00081E498E89B838A838FEF9FEF98878F83DD
:1016C000F801858196819E838D838091D5069091C6
:1016D000D6069A8789878091DA068F5F8093DA062B
:1016E0008C83DF91CF911F910F910895CF93DF935A
:1016F000FC01C781D0858185833021F080E0DF91B6
:10170000CF91089580E090E00E9429060097B1F300
:10171000FC0120812631C1F7348529813213F4CFB1
:1017200027E120832A81EA57FF4F208381E0E7CF1A
:1017300027E1FC012083ED57FF4F6083089522E1EC
:10174000FC0120830895A091D006B091D10683308A
:10175000C8F4E82FF0E0E05FFD4F8081FD01ED5718
:10176000FF4F808385E18C931092D1061092D006B2
:1017700080910B0790910C07019790930C07809331
:101780000B07089581E0EACFBF92CF92DF92EF92EC
:10179000FF920F931F93CF93DF93C0E0D0E084E1DB
:1017A000C82E97E1F92E26E1B22E05E110E033E1D3
:1017B000E32E41E1D42ECE010E942906EC01892BB3
:1017C000B9F08881833199F1E8F4803159F182319F
:1017D00091F7FE01EC57FF4F80819181892B09F031
:1017E0005EC0E882CE010E942906EC01892B49F7F0
:1017F000DF91CF911F910F91FF90EF90DF90CF90ED
:10180000BF900895853171F18731A9F6FE01E9573E
:10181000FF4F0190F081E02DCE01309709F445C0D3
:101820000995C9CF61E0CE010E940209C4CF809121
:10183000D0069091D106892B09F0BDCFD093D10667
:10184000C093D006C8826981CE0102960E947303BC
:1018500080910B0790910C07019690930C07809351
:101860000B07A9CFFE01ED57FF4F8081811109C001
:101870002D853E858091D5069091D606281739078B
:1018800011F0F88298CF8B8580FFFBCFB88231961C
:101890001183008382EC96E00E94E90C8CCFD88201
:1018A00084EB96E00E94E90C86CF0E941F0683CF4E
:1018B0000E94D3010E94E40C0E94ED020C946F047C
:1018C0000E94ED030E94F2040C94550D0E94A403A3
:1018D0000C941609EF92FF920F931F93CF93DF930F
:1018E000DC018091D2069091D306009709F452C092
:1018F00016964D915D916D917C911997FC01E12CAB
:10190000F12C01C0F9010281138124813581401736
:10191000510762077307F0F0401B510B620B730B0A
:10192000208131817F012115310561F712964D9398
:101930005D936D937C9315978081918111969C9313
:101940008E93B183A083DF91CF911F910F91FF9070
:10195000EF900895EF01F701041B150B260B370BD1
:101960000A831B832C833D8312964D935D936D9365
:101970007C931597309701F711969C938E93B093B3
:10198000D306A093D206DF91CF911F910F91FF90C4
:10199000EF90089511961C921E9216964D915D91AE
:1019A0006D917C91199712964D935D936D937C93F5
:1019B0001597B093D306A093D206DF91CF911F91D4
:1019C0000F91FF90EF9008951092D3061092D206D7
:1019D0000895E091D206F091D306309761F08E170A
:1019E0009F0721F40BC08E179F0739F00190F081FB
:1019F000E02D3097C1F70C946A0C08950895CF93A9
:101A0000DF93A091D206B091D306109769F0A81782
:101A1000B90729F42BC08E179F0749F0DF01ED911C
:101A2000FC9111973097B9F7DF91CF9108951097F6
:101A3000F1F0EC01288139812D933C93E881F98103
:101A4000309791F34281538164817581EC018A81E1
:101A50009B81AC81BD81840F951FA61FB71F828318
:101A60009383A483B583DF91CF910895FC01019006
:101A7000F081E02DF093D306E093D206E1CFE09120
:101A8000D206F091D306309761F0E817F90721F4F8
:101A90000AC08E179F0739F00190F081E02D309732
:101AA000C1F780E0089581E00895CF92DF92EF9230
:101AB000FF92CF93DF938091D406882309F459C015
:101AC0008FB7F894C090D4061092D4068FBFD12C53
:101AD000E12CF12CCC0CDD1CEE1CFF1CD701C60147
:101AE000880F991FAA1FBB1F880F991FAA1FBB1F12
:101AF000C80ED91EEA1EFB1EC091D206D091D30695
:101B00002097B9F18A819B81AC81BD81C816D90625
:101B1000EA06FB06A0F425C0EC85FD85CE010995FB
:101B2000C091D206D091D306209719F18A819B816A
:101B3000AC81BD81C816D906EA06FB0690F0C81A2A
:101B4000D90AEA0AFB0A888199819093D306809387
:101B5000D2068A859B850197F9F6CE010E946A0C10
:101B6000DBCF8C199D09AE09BF098A839B83AC83A7
:101B7000BD83DF91CF91FF90EF90DF90CF900895DC
:101B800080E684B98CE38AB915B81BB880E48093E9
:101B90007C0087E880937A0080917B0085FDFCCFF4
:101BA0000E94580C88E0A82E95E0B92EC9E0DDE32C
:101BB00002E010E028E0C22E20E8D22EEE24E394CA
:101BC000F12C0E94600C80912803909129038130B0
:101BD000910509F445C058F0029799F780911402D5
:101BE000882379F30E94C70010921402EACF15B837
:101BF0001BB880916F00826080936F001092850007
:101C00001092840010928000B0928100D0938900DD
:101C1000C093880086E19FE00E94C40E9093010269
:101C2000809300028F3F2FEF9207E1F021E0209395
:101C3000020210932903009328030E948D0484E874
:101C400091E40E9493048FE00E94130381E00E94BC
:101C50000F0368EE70E081E00E9499047894B1CFA0
:101C6000ABB8AFCFD0920102C09200021092020234
:101C7000F0922903E092280388E090E8DECFA1E209
:101C80001A2EAA1BBB1BFD010DC0AA1FBB1FEE1FF6
:101C9000FF1FA217B307E407F50720F0A21BB30B41
:101CA000E40BF50B661F771F881F991F1A9469F7BD
:101CB00060957095809590959B01AC01BD01CF0119
:101CC00008958F929F92AF92BF92CF92DF92EF9240
:101CD000FF92CF93DF93EC01688179818A819B81A8
:101CE000611571058105910521F464E279ED8BE5BB
:101CF00097E02DE133EF41E050E00E94000F4901F1
:101D00005A019B01AC01A7EAB1E40E94ED0E6B0100
:101D10007C01ACEEB4EFA50194010E94FB0EDC0146
:101D2000CB018C0D9D1DAE1DBF1DB7FF03C00197DC
:101D3000A109B04888839983AA83BB839F77DF91E9
:101D4000CF91FF90EF90DF90CF90BF90AF909F909A
:101D50008F9008950C94610E83E092E00C94610ED4
:101D6000A0E0B0E08093030290930402A0930502E8
:101D7000B09306020895FB01DC0102C001900D92B0
:101D800041505040D8F70895A8E1B0E042E050E05B
:101D90000C94D10E0E94DF0E272F0C94E00EDC0174
:101DA000CB01FC01F999FECF06C0F2BDE1BDF89A66
:101DB000319600B40D9241505040B8F70895262F47
:101DC000F999FECF1FBA92BD81BD20BD0FB6F89420
:101DD000FA9AF99A0FBE019608950E941F0FA59FC7
:101DE000900DB49F900DA49F800D911D1124089516
:101DF000B7FF0C94ED0E0E94ED0E821B930B08951D
:101E0000052E97FB1EF400940E94170F57FD07D074
:101E10000E943F0E07FC03D04EF40C94170F509510
:101E20004095309521953F4F4F4F5F4F08959095C6
:101E30008095709561957F4F8F4F9F4F0895A29F1A
:101E4000B001B39FC001A39F700D811D1124911D8E
:101E5000B29F700D811D1124911D0895F894FFCF3C
:101E60000880010100000003081A4080BEE6F7FC6C
:041E7000002021002D
:00000001FF
