:100000000C9490000C94AF000C94AF000C94AF00D3
:100010000C94AF000C94AF000C94AF000C94AF00A4
:100020000C94AF000C94AF000C94AF000C94AF0094
:100030000C94AF000C948F010C94AF000C94AF00A3
:100040000C94AF000C94E5000C94AF000C94AF003E
:100050000C94AF000C94AF000C94AF000C94AF0064
:100060000C94AF000C94AF000C94AF000C94AF0054
:100070000C94AF000C94AF000C94AF000C94AF0044
:100080000C94EF000C94AF000C94AF000C94AF00F4
:100090000C94AF000C94AF000C94AF000C94AF0024
:1000A0000C94AF000C94AF000C94DB010C94AF00E7
:1000B0000C94AF000C94AF000C94AF000C94AF0004
:1000C0000C94AF000C94AF000C94AF000C94AF00F4
:1000D0000C94AF000C94AF000C94AF000C94AF00E4
:1000E0000C94AF000C94AF000C94AF000C94AF00D4
:1000F0000C94AF000C94AF000C94AF000C94AF00C4
:100100000C94AF000C94AF000C94AF000C94AF00B3
:100110000C94AF000C94AF000C94AF000C94AF00A3
:1001200011241FBECFEFD1E4DEBFCDBF12E0A0E0AF
:10013000B2E0E8E8FCE100E00BBF02C007900D92DE
:10014000A031B107D9F717E0A0E1B2E001C01D92DC
:10015000A930B107E1F70E94E60C0C94420E0C9412
:10016000000081E090E0909325038093240308959C
:10017000CF93DF93EC0195B180E2892785B982E0C6
:1001800090E090931202809311022985209313022C
:100190002223A9F0A4E1B2E0215030E02B5E3D4FD4
:1001A0004DEF5FEF41515240EF81F885EA0FFB1FA1
:1001B000E40FF51F90819D93A217B307A9F781E083
:1001C00080931002DF91CF9108951F920F920FB686
:1001D0000F9211240F900FBE0F901F9018951F9231
:1001E0000F920FB60F9211240F900FBE0F901F9019
:1001F000189514BE88E10FB6F894809360001092B1
:1002000060000FBEE1E6F0E080E880831082789421
:100210000C949E0190E00C94B301DC01CB01880F9B
:10022000991FAA1FBB1F880F991FAA1FBB1F880FEA
:10023000991FAA1FBB1F880F991FAA1FBB1FBC01B4
:10024000CD01660F771F881F991F28EE33E040E02D
:1002500050E00E947C0DDA01C901232B242B252BB1
:1002600009F45CC0492F5A2F6B2F7727282F109243
:1002700070008091B60080628093B6001092B0004A
:100280001092B1001092B2008091B6008F71E1F728
:1002900087E087BB8093B1006FEF37E010922603B1
:1002A00041155105F9F06093B300809170008260B0
:1002B000809370008091B6008F71E1F733BF88950D
:1002C00013BE9FB7F894809126039FBF882331F314
:1002D0004115510509F1415051091092260341156C
:1002E000510509F7222319F02093B300DECF809146
:1002F000B6008F71E1F7109270001092B10083B5D3
:10030000826083BD8091B6008F71E1F78091B60065
:100310008F7D8093B600089520E0C0CF08951F928E
:100320000F920FB60F9211248F9381E080932603D2
:100330008F910F900FBE0F901F9018951092D006BE
:1003400080E29EE49093A9008093A800E1EAF0E0A7
:1003500088E08083808182608083E2E7F0E08081B2
:100360008260808308952091A4003091A500820FBF
:10037000931F9093AB008093AA002091AA00309124
:10038000AB008091A8009091A9008217930770F4A8
:100390002091A8003091A9008091AA009091AB0013
:1003A000821B930B9093AB008093AA0084E089BBDF
:1003B000CA9BFECF08951F920F920FB60F92112481
:1003C0008F938091D0068F5F8093D0068F910F908E
:1003D0000FBE0F901F90189583E08093420180918B
:1003E00041018F718830D9F780934201809141019A
:1003F0008F718830D9F78FEF80934F018091270359
:10040000882381F083E080934201809141018F71C4
:100410008830D9F786E180934201809141018F7144
:100420008631D9F70895809139018160809339012F
:100430001092270381E090E09093A9038093A80392
:1004400083E080934201809141018F718830D9F718
:1004500080934201809141018F718830D9F780915A
:100460004C01806880934C010895809327030C947D
:10047000EC018F71E8E4F1E09081907E892B80831C
:100480000895CF93DF9300D0CDB7DEB79A838983E9
:10049000809362018A81809363010F900F90DF91B6
:1004A000CF910895CF93DF9300D0CDB7DEB79A8375
:1004B0008983809360018A81809361019A81898117
:1004C000890F80936D010F900F90DF91CF91089568
:1004D0008F70E5E4F1E09081907F892B808308950F
:1004E00083E080934201809141018F718830D9F778
:1004F00080934201809141018F718830D9F78091BA
:10050000390182608093390182E090E09093A903E1
:100510008093A8030895E9E3F1E080818D7F8083D3
:100520000E94EC0181E090E09093A9038093A803DE
:10053000089523E020934201209141012F7128303A
:10054000D9F729E120934201209141012F712931EE
:10055000D9F72FEF20934F0122E0260F209380013F
:10056000662371F0FC016150862F90E001968E0F9A
:100570009F1FA1E8B1E021912D93E817F907D9F762
:1005800083E090E09093A9038093A80382E0809396
:1005900042010895FB01AB01405F5F4F2191209321
:1005A0003F01E417F507D1F710923C01FC0140969A
:1005B000DF012D9120933E01A817B907D1F72091B3
:1005C0003C01206820933C0120913D0120FFFCCF9D
:1005D00020913E0121938E179F07D1F70895CF9365
:1005E00083E080934201809141018F718830D9F777
:1005F00086E080934201809141018F718630D9F766
:1006000080914F01806180934F011092470180914A
:100610004F0184FFFCCFC09147010E94EC0186EAA4
:100620008C0FCF910895CF93DF9300D000D000D0EE
:10063000CDB7DEB78091A8039091A903029709F482
:1006400040C080914F0183FF45C060917B01462FE0
:1006500050E080E090E020E0FC01E058FE4F308167
:10066000FC01E85DFC4F30832F5F822F90E048173C
:10067000590794F788E293E09A83898362506B83E9
:10068000FA01E85DFC4F80818C83809147018A5597
:100690008D83CE0101960E94C705809141018F7123
:1006A0008631D9F780914F01886080934F01809106
:1006B0004C018F7780934C0180914C01806880932E
:1006C0004C0126960FB6F894DEBF0FBECDBFDF916A
:1006D000CF91089580914F0186FFF3CF8091410122
:1006E0008F71893131F080914F01806480934F0187
:1006F000E8CF8091420182958695877029F08330FA
:1007000081F0853081F083E08E830E94EC0121E04E
:1007100030E03093A9032093A8038E810E94C90A78
:10072000E2CF81E0F1CF82E0EFCF1092D5061092B8
:10073000D6061092D2061092D10610920807109297
:100740000707E7EDF6E01192119286E0E73FF80720
:10075000D1F70E94DF090E94A4050E9409050E94AA
:100760003D040C9418089093D2068093D1060C9403
:1007700052029093D4068093D3060C944102E82F42
:10078000F0E0EE0FFF1FE952F94F71836083089587
:1007900081E02091070730910807232B09F480E0BE
:1007A0000895E1EDF6E086A997A9019697AB86AB8F
:1007B0000895E1EDF6E086A997A9019797AB86AB7E
:1007C00008950C9470020C948B02CF93DF93CDB7F5
:1007D000DEB729970FB6F894DEBF0FBECDBF99E004
:1007E000E4E0F2E0DE01119601900D929A95E1F7B6
:1007F0008931D8F0E1E092E3891770F0975EEF5FFE
:100800009A3FD1F78FEF29960FB6F894DEBF0FBE4F
:10081000CDBFDF91CF910895F0E081E090E08C0FA3
:100820009D1FE80FF91F8081EECFE0E0F0E0F5CFEB
:100830000E9402060E94EA0A0E9464040C947B084B
:10084000E091AA03F091AB03309731F414C001900A
:10085000F081E02D309779F0228133812817390714
:10086000B1F7DC01AD57BF4F2C91278713962C9120
:10087000208B22E024830C9445051092AB03109248
:10088000AA030895FC0114821786138212828091B4
:100890000707909108070196909308078093070730
:1008A0008091AA039091AB03009739F091838083E4
:1008B000F093AB03E093AA03089511821082F093A2
:1008C000AB03E093AA0308950F931F93CF93DF9395
:1008D000E091AA03F091AB03309751F1EF018C81C5
:1008E000882359F18230F9F4EC17FD0711F48AC01E
:1008F000FC01808191818C179D07D1F788819981B6
:1009000091838083809107079091080701979093C6
:10091000080780930707ED85FE85CE01DF91CF9113
:100920001F910F9109940990D881C02D2097B9F695
:10093000DF91CF911F910F9108950E9414058C01B2
:10094000009709F457C09B838A8381E08C83F80168
:10095000E957FF4F80E294E0918380833197898546
:1009600082FB882780F98083F8018385998590FB35
:1009700080F98387998593FB992790F990FB82F9F9
:10098000838799859695917090FB81F983878091F3
:10099000D5068F5F8093D50684878091D10690918C
:1009A000D206968785878D819E81908B87878885E3
:1009B000982F9F708189807F892B818B9F81929551
:1009C000907F8F70892B818BEF57FF4F4C8550E0C4
:1009D0006A857B85808191810E94F80DF801918163
:1009E0008C85890F8183C801DF91CF911F910F9171
:1009F0000C94040A82E08C838F87DF91CF911F9142
:100A00000F910895888199819093AB038093AA03F5
:100A100079CF1092AC03109235041092BE0410925C
:100A200047051092D0050895ECEAF3E080E090E0ED
:100A30002081222349F00196E757FF4F8530910529
:100A4000B9F780E090E0089549E8489F9001499FF8
:100A5000300D1124C90184559C4FFC0111924A9517
:100A6000E9F740E1FC014183EF57FF4F22543C4F2F
:100A70003183208320910707309108072F5F3F4F74
:100A800030930807209307070895FC011082E1EDD9
:100A9000F6E086A997A9019797AB86AB08950097D2
:100AA000B1F0FC01E757FF4F86E0E935F80738F071
:100AB0000BC0E757FF4F86E0E935F80728F480813F
:100AC0008823B9F3CF01089580E090E00895ECEA1F
:100AD000F3E0F5CFFC01DC01AD57BF4F1C92A1ED57
:100AE000B6E014969C9114979F5F14969C9314976C
:100AF00094878D919C91968785870895AC01ECE64B
:100B0000F6E020E09081992319F09150908321E044
:100B1000359686E0EE39F807A9F7211101C008954E
:100B2000CA010C940F0CDC0119962C911997222301
:100B300039F01796ED91FC9118972081222311F03E
:100B400080E008950C949C0AECE6F6E0108235965D
:100B500086E0EE39F807D1F784E690E0A0E0B0E057
:100B600080935F0690936006A0936106B09362063F
:100B700010926406109263068EE795E090936606E5
:100B80008093650663E975E080E00C94BF03CF9322
:100B9000DF93DC01ED91FC9111972181283819F048
:100BA000DF91CF91089520812F7D2134C9F71296CE
:100BB0002C912031A8F3EC010E941405009781F3D9
:100BC00020E2FC0120832A8121832B81ED57FF4FF6
:100BD00020832C81319620834A8150E0688179817D
:100BE0000296DF91CF910C94F80D809367060895DB
:100BF000611104C024E2FC012083089522E2FC017B
:100C0000208308957F928F929F92AF92BF92CF924E
:100C1000DF92EF92FF920F931F93CF93DF93CDB7A5
:100C2000DEB72C970FB6F894DEBF0FBECDBF00E045
:100C300010E044E2F42E9924939452E2852E61E26E
:100C4000762E7BE0E72ECC24C394D12CC8010E94E1
:100C50004F058C01892BA1F0D8018C91813209F4C8
:100C60005BC110F1823209F493C0843279F7C80174
:100C70000E944505C8010E944F058C01892B61F730
:100C80002C960FB6F894DEBF0FBECDBFDF91CF918B
:100C90001F910F91FF90EF90DF90CF90BF90AF909A
:100CA0009F908F907F900895803281F6F801F082B6
:100CB000838583FDCBCF258136812F3F3F4F09F4BC
:100CC00050C1F801278530892F3F3F4F09F45EC19D
:100CD000A090D106B090D206D8011D966D917C915E
:100CE0001E97A616B70609F4B1CFACE6B6E0E8E663
:100CF000F6E080E090E020E030E00DC040815181DE
:100D00006417750709F44AC101961596359656E0A1
:100D1000EA39F50759F04C914111F0CF9F01019646
:100D20001596359656E0EA39F507A9F721153105EC
:100D300009F48CCFD90111967C936E93F8018485C8
:100D400012968C93129713969C9213971496EC928A
:100D500089E596E00E940F0CA090D106B090D206D3
:100D6000D80117968D919C911897019609F439C175
:100D7000F801878590898A159B0519F0019609F07D
:100D800065CFF801838581FD42C1F80180825ECF85
:100D900010926706D80151962C915197322F3295B7
:100DA0003F70E32FF0E0EE0FFF1FE952F94F019083
:100DB000F081E02D309709F4ECC01D968D919C9147
:100DC0001E979A8389831F964D915C9150975C83FF
:100DD0004B832F702D833E83AF57BF4F6D917C9116
:100DE0007987688798012E5F3F4F261B370BD80104
:100DF00011963C911197230F2A87AD57BF4F2C9125
:100E00002B8711962C912C87D8011B962C91622F41
:100E1000637022FD86C030E0632B23FD86C030E086
:100E2000262F232B4F3F5F4F09F486C030E0232B42
:100E3000D80119964D915C911A978417950709F47A
:100E40008EC090E0822F892BD80115962D913C9170
:100E500016972F3F3F4F09F480C090E0892B8F8376
:100E6000CE0101960995F801938590FF80E0D801A5
:100E700017962D913C9118972F3F3F4F09F45EC074
:100E8000D80115962D913C9116972F3F3F4F09F4AD
:100E900040C02091D1063091D2062F3F3F4FC9F17B
:100EA0008823B9F10E9414055C01009791F10E941A
:100EB0006A05D50111968C9111978D5F11968C93CF
:100EC0001197F501E957FF4F11821082F8018385D0
:100ED000869581701B969C911B9780FB91F91B96C0
:100EE0009C931B978585968550969C938E931F9710
:100EF000F501EF57FF4F0190F081E02D10828091B6
:100F000067068283D8011C968C918183C5010E945B
:100F1000040AF801F0829ACE60E0C8010E94280815
:100F200095CE30E2632B23FF7ACF30E4262F232B9C
:100F30004F3F5F4F09F07ACF34E079CF4091D1062F
:100F40005091D206F801278530894217530709F0DE
:100F500097CF93FD95CF81E093CF90E17FCF98E03D
:100F600071CFD8011F962D913C9150974091D10699
:100F70005091D2064217530721F02F3F3F4F09F0FF
:100F800065CE81FF08C0F801708260CE80FFA0CEE0
:100F90005DCE80E068CFD8018C9258CEF8012485D0
:100FA000FC01EE0FFF1FEE0FFF1F8E0F9F1FFC01B6
:100FB000E859F94F8281821B883058F59381292F97
:100FC00030E0082E02C0359527950A94E2F720FDFF
:100FD0003DCE960101C0220F8A95EAF7922B9383AA
:100FE000BFCED8011F968D919C9150978A159B0575
:100FF00009F4C7CED8011B962C9122FDBFCEC801A3
:101000000E94540AA090D106B090D206B1CE708250
:101010001DCE2283238130E08195A90102C0440FB7
:10102000551F8A95E2F7CA0181608383E48298CED6
:101030001092AF061092AE061092AD060895FC0114
:1010400090E1A7EFB6E001900D929A95E1F708952F
:10105000611109C021E3FC0120838091AF068F5FFD
:101060008093AF06089520E3FC0120838091AF06B2
:101070008F5F8093AF060895CF93DF93C091AD0645
:10108000D091AE06FE01EF57FF4FA081B181709164
:10109000AB06872F90E06091AC06262F613118F1E6
:1010A00020E13091AA064AE956E0A80FB91FFA01DB
:1010B00090818C9189278D93311102C0908189276D
:1010C000808331968E2F841B821790F3720F70935A
:1010D000AB06621B6093AC06611108C084E3888391
:1010E000DF91CF9108956111DCCFF0CF82E3888347
:1010F000DF91CF9108950F931F93CF93DF9380914A
:10110000AF06882369F0E091AD06F091AE06309706
:1011100009F468C08081843341F0823309F456C0F9
:10112000DF91CF911F910F9108958091AB06DF0160
:10113000AF57BF4FCD91DC91C80FD11D40919E0696
:1011400050919F066091A0067091A10680919A0629
:1011500090919B06A0919C06B0919D0684279527AF
:10116000A627B7274091A2065091A3066091A40636
:101170007091A50684279527A627B7274091A60634
:101180005091A7066091A8067091A906842795271B
:10119000A627B7272091AA06211132C061E0088155
:1011A00019812A813B8180179107A207B30709F0B3
:1011B00060E0CF010E94F8051092AE061092AD06D5
:1011C0008091AF0681508093AF06AACF83E38083DE
:1011D00067EF76E08AE996E0DF91CF911F910F915A
:1011E0000C948C0B80E090E006C0FC01208130ED77
:1011F000320F323080F00E944F050097B1F790CF48
:1012000088839983AA83BB8381818C5F8183CF018B
:101210000E94C50AD1CF9093AE068093AD06448557
:1012200050E060E070E040939A0650939B06609314
:101230009C0670939D064785508960E070E0BA0176
:1012400055274427318932953F70432B40939E06A2
:1012500050939F066093A0067093A106458556851E
:1012600060E070E0BA015527442731893F70432B75
:101270004093A2065093A3066093A4067093A5061C
:1012800033854581568160E070E0BA0155274427D7
:10129000432B4093A6065093A7066093A80670932D
:1012A000A9062133D1F03181FC01EF57FF4F608156
:1012B0007181AC014E5F5F4F461B570B430F40934C
:1012C000AC061092AB0631E0203309F030E03093E9
:1012D000AA0622E3FC01208323CFFC0141813CEFDD
:1012E000340F3183E1CF0F931F93CF93DF93EC0142
:1012F00010E080E090E003E10E944F050097A9F024
:10130000FC0120812131C1F7EC57FF4F2081318151
:101310002150310931832083232B71F4FC01008398
:1013200011E00E944F05009759F7111107C0DF9196
:10133000CF911F910F91089511E0DECFCE01DF9183
:10134000CF911F910F910C940F0CFF920F931F934D
:10135000CF93DF93EC0110E080E090E027E1F22EE4
:1013600000E10E944F050097C1F0FC012081263169
:10137000C1F7EC57FF4F2081318121503109318372
:101380002083232B91F4FC01F082ED57FF4F008363
:1013900011E00E944F05009741F7111108C0DF913D
:1013A000CF911F910F91FF90089511E0DACFCE01F8
:1013B000DF91CF911F910F91FF900C940F0C109221
:1013C000CD061092CC06EEEBF6E082E390E0A0E0D2
:1013D000B0E086839783A087B1871386128685EA5B
:1013E00099E095878487E0EBF6E08AE090E0A0E062
:1013F000B0E086839783A087B1871386128683E740
:1014000099E0958784870895CF93DF93FC01DC01F1
:10141000AA57BF4F8C9181FD03C0938591FD31C0C8
:1014200092E19083DF01AD57BF4F1C9280FF22C035
:101430008FEF9FEF968385832785308930872783B9
:101440008091D1069091D206928781878091D606AD
:101450008F5F8093D60684832F3F3F4FA9F081E6AC
:1014600098E893838283EC57FF4F11821082DF91BB
:10147000CF9108958091D3069091D4069683858369
:10148000DBCF90E19083CECFEF0181E498E89383A6
:1014900082830E94E90DFE01EC57FF4F8770992768
:1014A000019691838083E3CF0F931F93CF93DF93B4
:1014B0008C010E941405EC01892BC9F182E188831B
:1014C000F80181818983FE01ED57FF4F10820E9450
:1014D000E90DFE01EC57FF4F877099270196918324
:1014E0008083339611821082F801418150E0B80167
:1014F0006E5F7F4FCE0102960E94F80D81E498E85E
:101500009B838A838FEF9FEF98878F83F801858174
:1015100096819E838D838091D1069091D2069A8781
:1015200089878091D6068F5F8093D6068C83DF9162
:10153000CF911F910F910895CF93DF93FC01C78145
:10154000D0858185833021F080E0DF91CF910895AF
:1015500080E090E00E944F050097B1F3FC012081EC
:101560002631C1F7348529813213F4CF27E1208356
:101570002A81EA57FF4F208381E0E7CF27E1FC0172
:101580002083ED57FF4F6083089522E1FC01208303
:101590000895A091CC06B091CD068330C8F4E82F11
:1015A000F0E0E35FFD4F8081FD01ED57FF4F808349
:1015B00085E18C931092CD061092CC06809107079E
:1015C0009091080701979093080780930707089563
:1015D00081E0EACFBF92CF92DF92EF92FF920F931A
:1015E0001F93CF93DF93C0E0D0E084E1C82E97E152
:1015F000F92E26E1B22E05E110E033E1E32E41E1C0
:10160000D42ECE010E944F05EC01892BB9F08881C0
:10161000833199F1E8F4803159F1823191F7FE017B
:10162000EC57FF4F80819181892B09F05EC0E882E1
:10163000CE010E944F05EC01892B49F7DF91CF9134
:101640001F910F91FF90EF90DF90CF90BF90089582
:10165000853171F18731A9F6FE01E957FF4F0190FD
:10166000F081E02DCE01309709F445C00995C9CF2E
:1016700061E0CE010E942808C4CF8091CC069091F1
:10168000CD06892B09F0BDCFD093CD06C093CC06F3
:10169000C8826981CE0102960E9499028091070753
:1016A0009091080701969093080780930707A9CFA8
:1016B000FE01ED57FF4F8081811109C02D853E85C8
:1016C0008091D1069091D2062817390711F0F8823F
:1016D00098CF8B8580FFFBCFB88231961183008332
:1016E0008EEB96E00E940F0C8CCFD88280EB96E0B8
:1016F0000E940F0C86CF0E94450583CF0E94F900FF
:101700000E940A0C0E9413020C9495030E9413037A
:101710000E9418040C947B0C0E94CA020C943C0892
:10172000EF92FF920F931F93CF93DF93DC01809191
:10173000CE069091CF06009709F452C016964D91AF
:101740005D916D917C911997FC01E12CF12C01C008
:10175000F901028113812481358140175107620705
:101760007307F0F0401B510B620B730B208131812A
:101770007F012115310561F712964D935D936D93AD
:101780007C9315978081918111969C938E93B18360
:10179000A083DF91CF911F910F91FF90EF9008955B
:1017A000EF01F701041B150B260B370B0A831B8374
:1017B0002C833D8312964D935D936D937C93159787
:1017C000309701F711969C938E93B093CF06A09318
:1017D000CE06DF91CF911F910F91FF90EF9008956A
:1017E00011961C921E9216964D915D916D917C9171
:1017F000199712964D935D936D937C931597B093C3
:10180000CF06A093CE06DF91CF911F910F91FF904D
:10181000EF9008951092CF061092CE060895E091B1
:10182000CE06F091CF06309761F08E179F0721F416
:101830000BC08E179F0739F00190F081E02D309793
:10184000C1F70C94900B08950895CF93DF93A09166
:10185000CE06B091CF06109769F0A817B90729F402
:101860002BC08E179F0749F0DF01ED91FC91119776
:101870003097B9F7DF91CF9108951097F1F0EC010F
:10188000288139812D933C93E881F981309791F338
:101890004281538164817581EC018A819B81AC8195
:1018A000BD81840F951FA61FB71F82839383A483D6
:1018B000B583DF91CF910895FC010190F081E02D77
:1018C000F093CF06E093CE06E1CFE091CE06F09103
:1018D000CF06309761F0E817F90721F40AC08E1798
:1018E0009F0739F00190F081E02D3097C1F780E03B
:1018F000089581E00895CF92DF92EF92FF92CF9307
:10190000DF938091D006882309F459C08FB7F894EB
:10191000C090D0061092D0068FBFD12CE12CF12CB4
:10192000CC0CDD1CEE1CFF1CD701C601880F991FD3
:10193000AA1FBB1F880F991FAA1FBB1FC80ED91E45
:10194000EA1EFB1EC091CE06D091CF062097B9F1BA
:101950008A819B81AC81BD81C816D906EA06FB0647
:10196000A0F425C0EC85FD85CE010995C091CE0679
:10197000D091CF06209719F18A819B81AC81BD81DE
:10198000C816D906EA06FB0690F0C81AD90AEA0A70
:10199000FB0A888199819093CF068093CE068A8531
:1019A0009B850197F9F6CE010E94900BDBCF8C1935
:1019B0009D09AE09BF098A839B83AC83BD83DF91F8
:1019C000CF91FF90EF90DF90CF90089580E684B99B
:1019D00015B80E947E0B81E1882E82E0982E91EB53
:1019E000A92E90E0B92E25E0722E3AE1E32E36E0E2
:1019F000F32E04EB18E0C1E0D0E040E4642E52E0A6
:101A0000C52ED12C0E94860B809124039091250332
:101A10000097B9F10197B1F780911002882391F3F3
:101A200085B1862585B9809111029091120290931B
:101A300019038093180381E080931A0380931B039A
:101A400080931C0390921E0380921D0380911302C9
:101A50008F5F80931F03B0922103A0922003D09246
:101A60002503C092240383E193E00E944204109274
:101A700010020E94860B8091240390912503009709
:101A800049F680916F00826080936F00109285000C
:101A9000109284001092800070928100F092890070
:101AA000E0928800809171008260809371001092B2
:101AB00095001092940010929000709291001093F3
:101AC000990000939800789483E090E00E94B3031B
:101AD00084E891E40E94B9038FE00E94390281E01A
:101AE0000E94350268EB70E081E00E94BF03D09352
:101AF0002503C093240386CFA1E21A2EAA1BBB1B89
:101B0000FD010DC0AA1FBB1FEE1FFF1FA217B307C9
:101B1000E407F50720F0A21BB30BE40BF50B661FDF
:101B2000771F881F991F1A9469F7609570958095A3
:101B300090959B01AC01BD01CF0108958F929F92BA
:101B4000AF92BF92CF92DF92EF92FF92CF93DF934B
:101B5000EC01688179818A819B816115710581051C
:101B6000910521F464E279ED8BE597E02DE133EF07
:101B700041E050E00E94140E49015A019B01AC0162
:101B8000A7EAB1E40E94010E6B017C01ACEEB4EF58
:101B9000A50194010E940F0EDC01CB018C0D9D1D4F
:101BA000AE1DBF1DB7FF03C00197A109B0488883D0
:101BB0009983AA83BB839F77DF91CF91FF90EF90AA
:101BC000DF90CF90BF90AF909F908F9008950C942E
:101BD0009E0D80E092E00C949E0DA0E0B0E080931A
:101BE000000290930102A0930202B09303020895B1
:101BF000FB01DC0102C001900D9241505040D8F72A
:101C000008950E94330EA59F900DB49F900DA49F40
:101C1000800D911D11240895B7FF0C94010E0E94B0
:101C2000010E821B930B0895052E97FB1EF4009462
:101C30000E942B0E57FD07D00E947C0D07FC03D09D
:101C40004EF40C942B0E50954095309521953F4FB6
:101C50004F4F5F4F089590958095709561957F4F98
:101C60008F4F9F4F0895A29FB001B39FC001A39FC4
:101C7000700D811D1124911DB29F700D811D1124C5
:081C8000911D0895F894FFCFB7
:101C88000100000003081A4080BEE6F7FC0020218E
:00000001FF
