:100000000C9490000C94AF000C94AF000C94AF00D3
:100010000C94AF000C94AF000C94AF000C94AF00A4
:100020000C94AF000C94AF000C94AF000C94AF0094
:100030000C94AF000C94FC010C94AF000C94AF0036
:100040000C94AF000C94AF000C94AF000C94AF0074
:100050000C94AF000C94AF000C94AF000C94AF0064
:100060000C94AF000C94AF000C94AF000C94AF0054
:100070000C94AF000C94AF000C94AF000C94AF0044
:100080000C94AF000C94AF000C94AF000C94AF0034
:100090000C94AF000C94AF000C94AF000C94AF0024
:1000A0000C94AF000C94AF000C9448020C94AF0079
:1000B0000C94AF000C94AF000C94AF000C94AF0004
:1000C0000C94AF000C94AF000C94AF000C94AF00F4
:1000D0000C94AF000C94AF000C94AF000C94AF00E4
:1000E0000C94AF000C94AF000C94AF000C94AF00D4
:1000F0000C94AF000C94AF000C94AF000C94AF00C4
:100100000C94AF000C94AF000C94AF000C94AF00B3
:100110000C94AF000C94AF000C94AF000C94AF00A3
:1001200011241FBECFEFD1E4DEBFCDBF12E0A0E0AF
:10013000B2E0EEEBFCE100E00BBF02C007900D92D5
:10014000A031B107D9F726E0A0E1B2E001C01D92CD
:10015000A73FB207E1F70E94410D0C945D0E0C948D
:100160000000FF920F931F93CF93DF9300D000D036
:100170001F92CDB7DEB7BC01FC012185A091BD0661
:1001800045E0420F50E08091BC063A2F381B8FEFBC
:1001900090E0831B910948175907D4F52983828180
:1001A00093819D838C83808191819B838A83FF24AB
:1001B000F394FA0EF092BD06B0E0A454BA4F8FEF5C
:1001C0008C93DE0112968E010A5F1F4F922F8EEFE5
:1001D00032E0390F323080F041E04F0DEF2DF0E08A
:1001E000E454FA4F9083A017B107F1F09D91F42EDB
:1001F00032E0390F323080F74F2D50E044545A4FDF
:10020000FA018083F394E8CF85B190E4892785B91A
:1002100081E00F900F900F900F900F90DF91CF9192
:100220001F910F91FF9008954093BD06FB019781A8
:100230008085222349F3A92FB82F215030E02F5F6A
:100240003F4F2A0F3B1F6EEF0DC0942F41E0490F27
:100250004093BD06E92FF0E0E454FA4F8083A217E3
:10026000B30791F28D9192E0980F923070F791E080
:10027000940F50E044545A4FFA016083E7CF109234
:10028000C50080E18093C40088E08093C10086E0CF
:100290008093C2001092BC061092BD060895809112
:1002A000BC069091BD06891781F09091C00095FF22
:1002B0000CC0E82FF0E0E454FA4F90819093C60010
:1002C0008F5F8093BC0681E0089580E0089514BE9E
:1002D0000FB6F894A89580916000886180936000C3
:1002E000109260000FBEE1E6F0E080E880831082AB
:1002F00078940C940B0290E00C942002660F771F08
:10030000881F991F660F771F881F991F660F771F19
:10031000881F991F660F771F881F991F660F771F09
:10032000881F991F28EE33E040E050E00E94970DAF
:10033000DA01C901232B242B252B09F45CC0492F9A
:100340005A2F6B2F7727282F109270008091B600BC
:1003500080628093B6001092B0001092B1001092AB
:10036000B2008091B6008F71E1F787E087BB809380
:10037000B1006FEF37E0109212024115510509F5F7
:10038000222321F12093B30080917000826080933A
:1003900070008091B6008F71E1F733BF889513BE6E
:1003A0009FB7F894809112029FBF882321F34115D3
:1003B000510551F041505109109212024115510559
:1003C000F9F26093B300E0CF109212028091B60070
:1003D0008F71E1F7109270001092B10083B58260C6
:1003E00083BD8091B6008F71E1F78091B6008F7D5B
:1003F0008093B600089508951F920F920FB60F9242
:1004000011248F9381E0809312028F910F900FBE81
:100410000F901F9018951092BE0680E29EE4909374
:10042000A9008093A800E1EAF0E088E08083808161
:1004300082608083E2E7F0E08081826080830895BB
:100440002091A4003091A500820F931F9093AB00E0
:100450008093AA002091AA003091AB008091A8005F
:100460009091A9008217930770F42091A800309111
:10047000A9008091AA009091AB00821B930B9093EE
:10048000AB008093AA0084E089BBCA9BFECF08958D
:100490001F920F920FB60F9211248F938091BE0678
:1004A0008F5F8093BE068F910F900FBE0F901F90AD
:1004B000189583E080934201809141018F718830CB
:1004C000D9F780934201809141018F718830D9F72B
:1004D0008FEF80934F0180911302882381F083E096
:1004E00080934201809141018F718830D9F786E174
:1004F00080934201809141018F718631D9F708952F
:10050000809139018160809339011092130281E05A
:1005100090E0909395028093940283E0809342014F
:10052000809141018F718830D9F780934201809189
:1005300041018F718830D9F780914C018068809398
:100540004C010895809313020C945902982F9F71C7
:10055000E8E4F1E08081807E892B80830895CF9349
:10056000DF9300D0CDB7DEB79A8389838093620191
:100570008A81809363010F900F90DF91CF9108954E
:10058000CF93DF9300D0CDB7DEB79A838983809372
:1005900060018A818093610189819A81890F8093AA
:1005A0006D010F900F90DF91CF910895982F9F705C
:1005B000E5E4F1E08081807F892B8083089583E0EA
:1005C00080934201809141018F718830D9F78093E7
:1005D0004201809141018F718830D9F780913901B2
:1005E00082608093390182E090E09093950280933D
:1005F00094020895E9E3F1E080818D7F80830E9479
:10060000590281E090E090939502809394020895BE
:1006100023E020934201209141012F712830D9F726
:1006200029E120934201209141012F712931D9F70D
:100630002FEF20934F0122E0260F209380016623A5
:1006400061F0DC01615070E06E577E4FE1E8F1E04F
:100650008D918193E617F707D9F783E090E09093A7
:1006600095028093940282E0809342010895FB01F9
:10067000AB01405F5F4F219120933F01E417F507E5
:10068000D1F710923C01DC019C01205F3F4FFC013F
:10069000819180933E01E217F307D1F780913C01ED
:1006A000806880933C0180913D0180FFFCCF809168
:1006B0003E018D93EA17FB07D1F70895CF9383E0AE
:1006C00080934201809141018F718830D9F786E093
:1006D00080934201809141018F718630D9F78091DA
:1006E0004F01806180934F011092470180914F012B
:1006F00084FFFCCFC09147010E94590286EA8C0F0B
:10070000CF9108951F93CF93DF9300D000D01F9215
:10071000CDB7DEB78091940290919502029709F4CB
:1007200040C080914F0183FF45C060917B01462FFF
:1007300050E080E090E020E0FC01E058FE4F308186
:100740008C5E9D4FFC0130832F5F822F90E0481715
:10075000590794F784E192E09A83898362506B830E
:100760004C5E5D4FFA0180818C83809147018A55F0
:100770008D83CE0101960E943A06809141018F71CE
:100780008631D9F780914F01886080934F01809125
:100790004C018F7780934C0180914C01806880934D
:1007A0004C010F900F900F900F900F90DF91CF9111
:1007B0001F91089580914F0186FFF3CF80914101F1
:1007C0008F71893131F080914F01806480934F01A6
:1007D000E8CF1091420112951695177029F0133049
:1007E00079F0153079F013E00E94590281E090E031
:1007F0009093950280939402812F0E94380BE3CF4F
:1008000011E0F2CF12E0F0CF1092C3061092C406AE
:100810001092C0061092BF061092F6061092F506CE
:10082000E5ECF6E01192119286E0E53EF807D1F78B
:100830000E944E0A0E9417060E947B050E94B50482
:100840000C9484089093C0068093BF060C94C00259
:100850009093C2068093C1060C94AF02E82FF0E09B
:10086000EE0FFF1FEB53F94F71836083089581E012
:100870002091F5063091F606232B09F480E00895C7
:10088000EFEBF6E086A997A9019697AB86AB0895A2
:10089000EFEBF6E086A997A9019797AB86AB089591
:1008A0000C94DF020C94FA02CF93DF93CDB7DEB73E
:1008B00029970FB6F894DEBF0FBECDBF99E0E4E0F4
:1008C000F2E0DE01119601900D929A95E1F78931DF
:1008D000E8F021E092E3891770F0975E2F5F9A3F6E
:1008E000D1F78FEF29960FB6F894DEBF0FBECDBFBC
:1008F000DF91CF910895822F90E021E030E02C0F1E
:100900003D1F820F931FFC018081ECCF80E090E0BF
:10091000F4CF0E9471060E94590B0E94DC040C94D3
:10092000E608E0919602F0919702309781F02281DB
:1009300033818217930731F40CC022813381281749
:10094000390739F00190F081E02D3097B1F70C9420
:10095000B705DC01AD57BF4F2C91278713962C911B
:10096000208B22E024830C94B705109297021092FA
:1009700096020895FC0114821786138212828091D8
:10098000F5069091F60601969093F6068093F5068B
:100990008091960290919702009739F0918380831D
:1009A000F0939702E0939602089511821082F093DB
:1009B0009702E093960208950F931F93CF93DF93CE
:1009C000E0919602F0919702309751F1EF018C81FE
:1009D000882359F18230F9F4EC17FD0711F484C033
:1009E000FC0180819181C817D907D1F7888199814D
:1009F000918380838091F5069091F60601979093FC
:100A0000F6068093F506ED85FE85CE01DF91CF9148
:100A10001F910F9109940990D881C02D2097B9F6A4
:100A2000DF91CF911F910F9108950E9486058C014F
:100A3000009709F451C09B838A8381E08C83F8017D
:100A4000E957FF4F81E994E091838083998531973D
:100A500092FB882780F98083F801838590FB80F9D9
:100A600093FB222720F920FB82F99695917090FB49
:100A700081F983878091C3068F5F8093C306848743
:100A80008091BF069091C006968785878D819E8153
:100A9000908B878798859F708189807F892B818B38
:100AA0009F819295907F8F70892B818BEF57FF4F9D
:100AB0004C8550E06A857B85808191810E94130E70
:100AC000F80181819C85890F8183C801DF91CF91D5
:100AD0001F910F910C94730A82E08C838F87DF91B2
:100AE000CF911F910F9108958881998190939702DA
:100AF000809396027FCF1092980210922103109259
:100B0000AA03109233041092BC040895E8E9F2E0BD
:100B100080E090E02081222349F00196E757FF4FC3
:100B200085309105B9F780E090E0089549E8489F45
:100B30009001499F300D1124C90188569D4FFC0139
:100B400011924A95E9F740E1FC014183EF57FF4FCD
:100B500026553D4F318320832091F5063091F606CE
:100B60002F5F3F4F3093F6062093F5060895FC0162
:100B70001082EFEBF6E086A997A9019797AB86ABB9
:100B800008950097B9F0FC01E757FF4F85E0E53481
:100B9000F80738F00BC0E757FF4F85E0E534F8075A
:100BA00028F480818823B9F3CF010895E0E0F0E0D4
:100BB000CF010895E8E9F2E0F4CFFC01DC01AD5784
:100BC000BF4F1C92AFEBB6E014969C9114979F5FB9
:100BD00014969C93149794878D919C919687858702
:100BE0000895AC01E8E5F5E020E09081992319F043
:100BF0009150908321E0359685E0EA38F807A9F70F
:100C0000211101C00895CA010C94680CDC011996E9
:100C10002C911997222339F01796ED91FC91189792
:100C20002081222311F080E008950C94090BE8E55F
:100C3000F5E01082359685E0EA38F807D1F784E6CA
:100C400090E0A0E0B0E080934B0590934C05A0931A
:100C50004D05B0934E051092500510924F0581EF4F
:100C600095E0909352058093510566E076E080E030
:100C70000C942E04CF93DF93EC01E881F9818181FC
:100C8000883819F0DF91CF91089580818F7D81346C
:100C9000C9F78A818031B0F30E948605009791F3ED
:100CA00020E2FC0120834A814183ED57FF4F2B81D5
:100CB000208331962C81208350E0688179810296CF
:100CC000DF91CF910C94130E809353050895611119
:100CD00004C024E2FC012083089522E2FC01208369
:100CE00008955F926F927F928F929F92AF92BF9280
:100CF000CF92DF92EF92FF920F931F93CF93DF93E8
:100D0000CDB7DEB72C970FB6F894DEBF0FBECDBFC0
:100D100000E010E054E2F52E62E2662E71E2572EFA
:100D200077247394EBE0EE2E88248394912CC801F1
:100D30000E94C1058C01892BA1F0D8018C918132D0
:100D400009F410C120F1823209F496C0843279F797
:100D5000C8010E94B705C8010E94C1058C01892BFA
:100D600061F72C960FB6F894DEBF0FBECDBFDF91B2
:100D7000CF911F910F91FF90EF90DF90CF90BF9098
:100D8000AF909F908F907F906F905F90089580328A
:100D900071F6F801F082838583FDC9CF2581368104
:100DA0002F3F3F4F09F450C1F801C784D088FFEFAF
:100DB000CF16DF0609F45DC1A090BF06B090C00653
:100DC000D8011D966D917C911E97A616B70609F461
:100DD000AECFA4E5B5E0E8E5F5E080E090E020E006
:100DE00030E00DC04D915C9111976417750709F4BF
:100DF00048C10196159635968A30910551F040818B
:100E00004111F0CF9D010196159635968A309105D6
:100E1000B1F72115310509F48ACFD90111967C93D8
:100E20006E93F801848512968C93129713967C9298
:100E300013971496EC9285E495E00E94680CA090BC
:100E4000BF06B090C006D8011F96CD90DC90509799
:100E5000F80187819085019609F435C1CA14DB0435
:100E600021F0CD20C09409F062CFF801838581FD87
:100E70003EC1F80160825BCF10925305D8015196B4
:100E80008C915197982F92959F70E92FF0E0EE0F7B
:100E9000FF1FEB53F94F0190F081E02D309709F4DB
:100EA000EBC01D962D913C911E973A8329831F9686
:100EB0004D915C9150975C834B838F708D839E83A3
:100EC000AF57BF4F8D919C9199878887B8016E5F0E
:100ED0007F4F861B970BD80111969C911197981BF9
:100EE0009A87AD57BF4F8C918B8711968C918C87C9
:100EF000D8011B969C91892F837092FF87C060E276
:100F0000862B93FF7BC090E4892B4F3F5F4F09F402
:100F10007BC090E0892BD80119964D915C911A976E
:100F20002417350709F48EC090E0892BD801159657
:100F30002D913C9116972F3F3F4F09F481C090E0CF
:100F4000892B8F83CE0101960995F801938590FD39
:100F50000EC0278130852F3F3F4F09F459C0D8017B
:100F6000FC92E5CE60E0C8010E949408E0CE2781A3
:100F700030852F3F3F4F09F44CC0D80115962D9175
:100F80003C9116972F3F3F4F51F32091BF06309170
:100F9000C0062F3F3F4F19F3882309F30E948605AF
:100FA0006C010097E1F20E94DD05F60181818D5F01
:100FB0008183E957FF4F11821082D8011B968C91D3
:100FC0001B9786958170F601938580FB91F9938735
:100FD0001D968D919C911E97908B8787EF57FF4FA1
:100FE0000190F081E02D10828091530582831C9640
:100FF0008C918183C6010E94730AB1CF90E0892B46
:101000004F3F5F4F09F085CF94E084CF60E078CF09
:1010100080E02091BF063091C006F80147855089D5
:101020002417350709F0A9CF93FDA7CF85819681B5
:10103000019609F494CF2F3F3F4F09F0AFCF8FCFE8
:1010400090E17ECF98E071CFD8011F962D913C9111
:1010500050974091BF065091C0064217530721F0A8
:101060002F3F3F4F09F063CE81FF08C0F801508247
:101070005ECE80FFA1CE5BCE80E067CFD8016C92C0
:1010800056CEF8013485FC01EE0FFF1FEE0FFF1F57
:10109000E80FF91FEC5AFA4F2281231B283048F53C
:1010A0003381832F90E0022E02C0959587950A9494
:1010B000E2F780FD3CCEC40101C0880F2A95EAF713
:1010C000832B8383C5CEAC14BD0409F4CECED801E6
:1010D0001B968C9182FDC5CEC8010E94C10AA090CA
:1010E000BF06B090C006F801C784D088B7CE508242
:1010F0001ECE32838381219501C0880F2A95EAF79D
:1011000081608383E482A4CE10929B0510929A059D
:10111000109299050895FC0190E1A5EEB6E00190CA
:101120000D929A95E1F70895611109C021E3FC0140
:10113000208380919B058F5F80939B05089520E31A
:10114000FC01208380919B058F5F80939B05089510
:10115000CF93DF93C0919905D0919A05FE01EF5787
:10116000FF4FA081B18160919705862F90E050914B
:101170009805352F513110F130E140919605A80FB7
:10118000B91FE6E8F5E090E08C91208182278D93ED
:10119000411102C02081822780839F5F31963913DD
:1011A000F3CF630F60939705531B5093980551112C
:1011B00008C084E38883DF91CF9108955111DDCF7A
:1011C000F0CF82E38883DF91CF910895CF92DF92B1
:1011D000EF92FF920F931F9380919B05882369F0F4
:1011E0008091990590919A050097A9F0FC012081C2
:1011F0002433B1F0223309F464C01F910F91FF90A2
:10120000EF90DF90CF900895FC01208130ED320FF8
:10121000323008F470C00E94C1050097A9F7EDCFE5
:1012200020919705EF57FF4F0190F081E02DE20FDD
:10123000F11D409186055091870560918805709158
:10124000890500918A0510918B0520918C053091BC
:101250008D05402751276227732700918E05109135
:101260008F052091900530919105402751276227E5
:101270007327009192051091930520919405309168
:101280009505402751276227732720919605211144
:1012900027C021E0C080D180E280F380C416D5064B
:1012A000E606F70609F020E0622F0E94670610921A
:1012B0009A051092990580919B05815080939B051A
:1012C0009CCF23E3FC01208365EE76E086E895E081
:1012D0001F910F91FF90EF90DF90CF900C94FB0B3C
:1012E0004083518362837383FC0121812C5F2183BE
:1012F0000E94340BDCCF90939A0580939905448526
:1013000050E060E070E0409386055093870560935D
:101310008805709389054785508960E070E0BA01BF
:1013200055274427318932953F70432B40938A05D6
:1013300050938B0560938C0570938D05458556857C
:1013400060E070E0BA015527442731893F70432B94
:1013500040938E0550938F0560939005709391058F
:101360004581568160E070E0BA01552744273385F6
:10137000432B40939205509393056093940570938B
:1013800095052133D1F03181FC01EF57FF4F4081AA
:101390005181BC016E5F7F4F461B570B341B30934E
:1013A00098051092970531E0203309F030E0309332
:1013B000960522E3FC01208320CFFC0131813450CB
:1013C0003183E2CF0F931F93CF93DF93EC0110E0B3
:1013D00080E090E003E10E94C1050097A9F0FC01C4
:1013E00020812131C1F7EC57FF4F208131812150FD
:1013F000310931832083232B71F4FC01008311E038
:101400000E94C105009759F7111107C0DF91CF91D4
:101410001F910F91089511E0DECFCE01DF91CF91A2
:101420001F910F910C94680CFF920F931F93CF9311
:10143000DF93EC0110E080E090E027E1F22E00E184
:101440000E94C1050097C1F0FC0120812631C1F73F
:10145000EC57FF4F208131812150310931832083A6
:10146000232B91F4FC01F082ED57FF4F008311E034
:101470000E94C105009741F7111108C0DF91CF917B
:101480001F910F91FF90089511E0DACFCE01DF9107
:10149000CF911F910F91FF900C94680C1092B90599
:1014A0001092B805EAEAF5E082E390E0A0E0B0E04F
:1014B00086839783A087B1871386128684E19AE09A
:1014C00095878487ECE9F5E08AE090E0A0E0B0E061
:1014D00086839783A087B1871386128682EE99E070
:1014E000958784870895CF93DF93EC01FC01EA5739
:1014F000FF4F808181FD03C09B8591FD31C092E14A
:101500009883FE01ED57FF4F108280FF22C08FEFBE
:101510009FEF9E838D832F85388938872F83809115
:10152000BF069091C0069A8789878091C4068F5F15
:101530008093C4068C832F3F3F4FA9F081E698E843
:101540009B838A83CC57DF4F19821882DF91CF911A
:1015500008958091C1069091C2069E838D83DBCF52
:1015600090E19883CECF81E498E89B838A830E94A0
:10157000040ECC57DF4F8770992701969983888393
:10158000E5CF0F931F93CF93DF938C010E948605C5
:10159000EC01892BC9F182E18883F801818189837B
:1015A000FE01ED57FF4F10820E94040EFE01EC5722
:1015B000FF4F87709927019691838083339611821C
:1015C0001082F801418150E0B8016E5F7F4FCE017B
:1015D00002960E94130E81E498E89B838A838FEF22
:1015E0009FEF98878F83F801858196819E838D83F5
:1015F0008091BF069091C0069A8789878091C40622
:101600008F5F8093C4068C83DF91CF911F910F91E0
:101610000895CF93DF93FC012185233021F080E0F2
:10162000DF91CF910895C781D08580E090E00E943E
:10163000C1050097A1F3FC0120812631C1F7348553
:1016400029813213F4CF27E120838A579F4F2A81C3
:10165000FC01208381E0E4CF27E1FC0120838D574A
:101660009F4FFC016083089522E1FC0120830895CF
:10167000A091B805B091B9058330C8F4E82FF0E027
:10168000E35FFD4F8081FD01ED57FF4F808385E1D2
:101690008C931092B9051092B8058091F50690913F
:1016A000F60601979093F6068093F506089581E07B
:1016B000EACFBF92CF92DF92EF92FF920F931F93E8
:1016C000CF93DF93C0E0D0E084E1C82E97E1F92EFC
:1016D00026E1B22E05E110E033E1E32E41E1D42E04
:1016E000CE010E94C105EC01892BB9F088818331BC
:1016F00099F1E8F4803159F1823191F7FE01EC570C
:10170000FF4F80819181892B09F05EC0E882CE0174
:101710000E94C105EC01892B49F7DF91CF911F9100
:101720000F91FF90EF90DF90CF90BF90089585319B
:1017300071F18731A9F6FE01E957FF4F0190F08161
:10174000E02DCE01309709F445C00995C9CF61E07D
:10175000CE010E949408C4CF8091B8059091B9053C
:10176000892B09F0BDCFD093B905C093B805C882C5
:101770006981CE0102960E9408038091F50690913E
:10178000F60601969093F6068093F506A9CFFE0122
:10179000ED57FF4F8081811109C02D853E858091D5
:1017A000BF069091C0062817390711F0F88298CF2C
:1017B0008B8580FFFBCFB8823196118300838AEA44
:1017C00095E00E94680C8CCFD8828CE995E00E944D
:1017D000680C86CF0E94B70583CF0E9467010E94E4
:1017E000630C0E9480020C9404040E9482030E94F5
:1017F00089040C94D40C0E9437030C94A8080F930E
:101800001F93CF93DF93EC018091BA059091BB05B4
:10181000009709F445C04E815F8168857985FC0198
:10182000A0E0B0E001C0F90102811381248135817B
:101830004017510762077307D0F0401B510B620B32
:10184000730B20813181DF012115310561F74A8356
:101850005B836C837D838D919C91119799838883A1
:10186000CD93DC93DF91CF911F910F910895041BCD
:10187000150B260B370B02831383248335834A838E
:101880005B836C837D83109731F799838883D09332
:10189000BB05C093BA05DF91CF911F910F910895B9
:1018A000198218828E819F81A885B9858A839B833E
:1018B000AC83BD83D093BB05C093BA05DF91CF91B4
:1018C0001F910F9108951092BB051092BA050895CB
:1018D000E091BA05F091BB05309761F08E179F0734
:1018E00021F40BC08E179F0739F00190F081E02D95
:1018F0003097C1F70C94FF0B08950895CF93DF93B1
:10190000E091BA05F091BB05309769F0E817F90747
:1019100029F42CC08217930749F0F9012081318105
:1019200021153105B9F7DF91CF9108953097F1F086
:10193000DC012D913C91119731832083ED91FC9135
:10194000309789F34281538164817581EC018A81EA
:101950009B81AC81BD81840F951FA61FB71F828319
:101960009383A483B583DF91CF910895EC01E8813F
:10197000F981F093BB05E093BA05E2CFE091BA0597
:10198000F091BB05309761F0E817F90721F40AC020
:101990008E179F0739F00190F081E02D3097C1F745
:1019A00080E0089581E00895CF92DF92EF92FF9258
:1019B000CF93DF938091BE06882309F45BC08FB775
:1019C000F894C090BE061092BE068FBFD12CE12CB9
:1019D000F12CD701C601880F991FAA1FBB1F880FC2
:1019E000991FAA1FBB1F8C0D9D1DAE1DBF1D6C0135
:1019F0007D01CC0CDD1CEE1CFF1CC091BA05D09102
:101A0000BB052097B9F18A819B81AC81BD81C81645
:101A1000D906EA06FB06A0F425C0EC85FD85CE01BB
:101A20000995C091BA05D091BB05209719F18A811B
:101A30009B81AC81BD81C816D906EA06FB0690F0F1
:101A4000C81AD90AEA0AFB0A888199819093BB05D2
:101A50008093BA058A859B850197F9F6CE010E948D
:101A6000FF0BDBCF8C199D09AE09BF098A839B83CD
:101A7000AC83BD83DF91CF91FF90EF90DF90CF904B
:101A800008950E94ED0B80E484B915B880E1F82E2A
:101A900008E016E0C1E0D0E00E94F50B8091100252
:101AA000909111020097F1F00397B0F78091BC0676
:101AB0009091BD06891781F39091C00095FFECCFFE
:101AC000E82FF0E0E454FA4F90819093C6008F5FC6
:101AD0008093BC060E94F50B809110029091110238
:101AE000009711F71092C500F092C4000093C10056
:101AF0001093C2001092BC061092BD06789482E04A
:101B000090E00E94220484E891E40E9428048FE07F
:101B10000E94A60281E00E94A20261EB70E081E0D7
:101B20000E942E04D0931102C0931002B5CFA1E2FF
:101B30001A2EAA1BBB1BFD010DC0AA1FBB1FEE1F47
:101B4000FF1FA217B307E407F50720F0A21BB30B92
:101B5000E40BF50B661F771F881F991F1A9469F70E
:101B600060957095809590959B01AC01BD01CF016A
:101B700008958F929F92AF92BF92CF92DF92EF9291
:101B8000FF92CF93DF93EC01688179818A819B81F9
:101B9000611571058105910521F464E279ED8BE50C
:101BA00097E02DE133EF41E050E00E941C0E490127
:101BB0005A019B01AC01A7EAB1E40E943B0E6B0104
:101BC0007C01ACEEB4EFA50194010E94490EDC014A
:101BD000CB018C0D9D1DAE1DBF1DB7FF03C001972E
:101BE000A109B04888839983AA83BB839F77DF913B
:101BF000CF91FF90EF90DF90CF90BF90AF909F90EC
:101C00008F9008950C94B90D80E092E00C94B90D7A
:101C1000A0E0B0E08093000290930102A093020242
:101C2000B09303020895FB01DC0102C001900D9204
:101C300041505040D8F70895052E97FB1EF40094AC
:101C40000E94330E57FD07D00E94970D07FC03D06A
:101C50004EF40C94330E50954095309521953F4F9E
:101C60004F4F5F4F089590958095709561957F4F88
:101C70008F4F9F4F08950E944E0EA59F900DB49FC9
:101C8000900DA49F800D911D11240895B7FF0C9411
:101C90003B0E0E943B0E821B930B0895A29FB00146
:101CA000B39FC001A39F700D811D1124911DB29F90
:0E1CB000700D811D1124911D0895F894FFCF31
:101CBE000100000003081A4080BEE6F7FC00202158
:00000001FF
