:100000000C9490000C94AF000C94AF000C94AF00D3
:100010000C94AF000C94AF000C94AF000C94AF00A4
:100020000C94AF000C94AF000C94AF000C94AF0094
:100030000C94AF000C9465030C94AF000C94AF00CB
:100040000C94AF000C94AF000C94AF000C94AF0074
:100050000C94AF000C94AF000C94AF000C94AF0064
:100060000C94AF000C94AF000C94AF000C94AF0054
:100070000C94AF000C94AF000C94AF000C94AF0044
:100080000C94AF000C94AF000C94AF000C94AF0034
:100090000C94AF000C94AF000C94AF000C94AF0024
:1000A0000C94AF000C94AF000C94B1030C94AF000F
:1000B0000C94AF000C94AF000C94AF000C94AF0004
:1000C0000C94AF000C94AF000C94AF000C94AF00F4
:1000D0000C94AF000C94AF000C94AF000C94AF00E4
:1000E0000C94AF000C94AF000C94AF000C94AF00D4
:1000F0000C94AF000C94AF000C94AF000C94AF00C4
:100100000C94AF000C94AF000C94AF000C94AF00B3
:100110000C94AF000C94AF000C94AF000C94AF00A3
:1001200011241FBECFEFD1E4DEBFCDBF12E0A0E0AF
:10013000B2E0EEE7F0E200E00BBF02C007900D92E4
:10014000A031B107D9F726E0A0E1B2E001C01D92CD
:10015000A43EB207E1F70E94AA0E0C943D100C9445
:10016000000081E081BB00C000C011BA83E08A9525
:10017000F1F70000089581E081BB83E08A95F1F7F3
:10018000000011BA00C000C0089591E091BB77FD56
:10019000FFC100C000C011BA93E09A95F1F70000CA
:1001A00091E091BB76FFFAC093E09A95F1F70000D9
:1001B00011BA00C000C091E091BB75FFFAC093E096
:1001C0009A95F1F7000011BA00C000C091E091BB10
:1001D00074FFFAC093E09A95F1F7000011BA00C0DD
:1001E00000C091E091BB73FFFAC093E09A95F1F7DC
:1001F000000011BA00C000C091E091BB72FFFAC0CC
:1002000093E09A95F1F7000011BA00C000C091E0A8
:1002100091BB71FFFAC093E09A95F1F7000011BA13
:1002200000C000C091E091BB70FFFAC093E09A95C6
:10023000F1F7000011BA00C000C091E091BB67FD6A
:10024000FAC000C000C011BA93E09A95F1F700001F
:1002500091E091BB66FFFAC093E09A95F1F7000038
:1002600011BA00C000C091E091BB65FFFAC093E0F5
:100270009A95F1F7000011BA00C000C091E091BB5F
:1002800064FFFAC093E09A95F1F7000011BA00C03C
:1002900000C091E091BB63FFFAC093E09A95F1F73B
:1002A000000011BA00C000C091E091BB62FFFAC02B
:1002B00093E09A95F1F7000011BA00C000C091E0F8
:1002C00091BB61FFFAC093E09A95F1F7000011BA73
:1002D00000C000C091E091BB60FFFAC093E09A9526
:1002E000F1F7000011BA00C000C091E091BB87FD9A
:1002F000FAC000C000C011BA93E09A95F1F700006F
:1003000091E091BB86FFFAC093E09A95F1F7000067
:1003100011BA00C000C091E091BB85FFFAC093E024
:100320009A95F1F7000011BA00C000C091E091BBAE
:1003300084FFFAC093E09A95F1F7000011BA00C06B
:1003400000C091E091BB83FFFAC093E09A95F1F76A
:10035000000011BA00C000C091E091BB82FFFAC05A
:1003600093E09A95F1F7000011BA00C000C091E047
:1003700091BB81FFFAC093E09A95F1F7000011BAA2
:1003800000C000C080FDFAC081E081BB00C000C099
:1003900011BA93E09A95F1F70000089500C000C0EB
:1003A00011BA93E09A95F1F7000091E091BB75FDC9
:1003B00006CF00C000C011BA93E09A95F1F7000093
:1003C00091E091BB74FD06CF00C000C011BA93E06C
:1003D0009A95F1F7000091E091BB73FD06CF00C044
:1003E00000C011BA93E09A95F1F7000091E091BB3B
:1003F00072FD06CF00C000C011BA93E09A95F1F7E4
:10040000000091E091BB71FD06CF00C000C011BAA1
:1004100093E09A95F1F7000091E091BB70FD06CF53
:1004200000C000C011BA93E09A95F1F7000091E086
:1004300091BB67FF06CF93E09A95F1F7000011BAE0
:1004400000C000C091E091BB66FD06CF00C000C0B7
:1004500011BA93E09A95F1F7000091E091BB65FD28
:1004600006CF00C000C011BA93E09A95F1F70000E2
:1004700091E091BB64FD06CF00C000C011BA93E0CB
:100480009A95F1F7000091E091BB63FD06CF00C0A3
:1004900000C011BA93E09A95F1F7000091E091BB8A
:1004A00062FD06CF00C000C011BA93E09A95F1F743
:1004B000000091E091BB61FD06CF00C000C011BA01
:1004C00093E09A95F1F7000091E091BB60FD06CFB3
:1004D00000C000C011BA93E09A95F1F7000091E0D6
:1004E00091BB87FF06CF93E09A95F1F7000011BA10
:1004F00000C000C091E091BB86FD06CF00C000C0E7
:1005000011BA93E09A95F1F7000091E091BB85FD57
:1005100006CF00C000C011BA93E09A95F1F7000031
:1005200091E091BB84FD06CF00C000C011BA93E0FA
:100530009A95F1F7000091E091BB83FD06CF00C0D2
:1005400000C011BA93E09A95F1F7000091E091BBD9
:1005500082FD06CF00C000C011BA93E09A95F1F772
:10056000000091E091BB81FD06CF00C000C011BA30
:1005700093E09A95F1F7000080FF06CF81E081BB00
:1005800083E08A95F1F7000011BA00C000C0089519
:1005900093E09A95F1F7000011BA00C000C000CEB8
:1005A00014BE0FB6F894A89580916000886180937E
:1005B0006000109260000FBEE1E6F0E080E880830A
:1005C000108278940C94740390E00C948903660F65
:1005D000771F881F991F660F771F881F991F660F47
:1005E000771F881F991F660F771F881F991F660F37
:1005F000771F881F991F28EE33E040E050E00E94EB
:10060000770FDA01C901232B242B252B09F45CC0B9
:10061000492F5A2F6B2F7727282F10927000809127
:10062000B60080628093B6001092B0001092B100C4
:100630001092B2008091B6008F71E1F787E087BB1E
:100640008093B1006FEF37E0109211024115510510
:1006500009F5222321F12093B3008091700082607C
:10066000809370008091B6008F71E1F733BF889559
:1006700013BE9FB7F894809111029FBF882321F386
:100680004115510551F04150510910921102411587
:100690005105F9F26093B300E0CF109211028091FE
:1006A000B6008F71E1F7109270001092B10083B51F
:1006B000826083BD8091B6008F71E1F78091B600B2
:1006C0008F7D8093B600089508951F920F920FB604
:1006D0000F9211248F9381E0809311028F910F90DC
:1006E0000FBE0F901F9018951092AB0680E29EE40B
:1006F0009093A9008093A800E1EAF0E088E080836D
:10070000808182608083E2E7F0E080818260808384
:1007100008952091A4003091A500820F931F90931B
:10072000AB008093AA002091AA003091AB00809189
:10073000A8009091A9008217930770F42091A80057
:100740003091A9008091AA009091AB00821B930B7D
:100750009093AB008093AA0084E089BBCA9BFECF34
:1007600008951F920F920FB60F9211248F938091CC
:10077000AB068F5F8093AB068F910F900FBE0F90EB
:100780001F90189583E080934201809141018F7101
:100790008830D9F780934201809141018F71883070
:1007A000D9F78FEF80934F0180911202882381F057
:1007B00083E080934201809141018F718830D9F7A5
:1007C00086E180934201809141018F718631D9F792
:1007D000089580913901816080933901109212024D
:1007E00081E090E0909394028093930283E0809361
:1007F0004201809141018F718830D9F78093420185
:10080000809141018F718830D9F780914C018068C7
:1008100080934C010895809312020C94C203982F88
:100820009F71E8E4F1E08081807E892B80830895C8
:10083000CF93DF9300D0CDB7DEB79A8389838093BF
:1008400062018A81809363010F900F90DF91CF91B5
:100850000895CF93DF9300D0CDB7DEB79A83898315
:10086000809360018A818093610189819A81890FD7
:1008700080936D010F900F90DF91CF910895982F85
:100880009F70E5E4F1E08081807F892B808308956B
:1008900083E080934201809141018F718830D9F7C4
:1008A00080934201809141018F718830D9F7809106
:1008B000390182608093390182E090E09093940244
:1008C000809393020895E9E3F1E080818D7F808336
:1008D0000E94C20381E090E090939402809393027F
:1008E000089523E020934201209141012F71283087
:1008F000D9F729E120934201209141012F7129313B
:10090000D9F72FEF20934F0122E0260F209380018B
:10091000662361F0DC01615070E06E577E4FE1E8C4
:10092000F1E08D918193E617F707D9F783E090E026
:10093000909394028093930282E080934201089501
:10094000FB01AB01405F5F4F219120933F01E41712
:10095000F507D1F710923C01DC019C01205F3F4F6D
:10096000FC01819180933E01E217F307D1F780915A
:100970003C01806880933C0180913D0180FFFCCF69
:1009800080913E018D93EA17FB07D1F70895CF932D
:1009900083E080934201809141018F718830D9F7C3
:1009A00086E080934201809141018F718630D9F7B2
:1009B00080914F01806180934F0110924701809197
:1009C0004F0184FFFCCFC09147010E94C20386EA19
:1009D0008C0FCF9108951F93CF93DF9300D000D059
:1009E0001F92CDB7DEB78091930290919402029747
:1009F00009F440C080914F0183FF45C060917B01A5
:100A0000462F50E080E090E020E0FC01E058FE4FEF
:100A100030818D5E9D4FFC0130832F5F822F90E0EF
:100A20004817590794F783E192E09A8389836250CB
:100A30006B834D5E5D4FFA0180818C83809147010D
:100A40008A558D83CE0101960E94A30780914101B2
:100A50008F718631D9F780914F01886080934F0163
:100A600080914C018F7780934C0180914C0180687C
:100A700080934C010F900F900F900F900F90DF918B
:100A8000CF911F91089580914F0186FFF3CF809100
:100A900041018F71893131F080914F0180648093E1
:100AA0004F01E8CF1091420112951695177029F069
:100AB000133079F0153079F013E00E94C20381E021
:100AC00090E09093940280939302812F0E94A10C56
:100AD000E3CF11E0F2CF12E0F0CF1092B006109207
:100AE000B1061092AD061092AC061092E306109279
:100AF000E206E2EBF6E01192119286E0E23DF807A1
:100B0000D1F70E94B70B0E9480070E94E4060E9462
:100B10001E060C94ED099093AD068093AC060C94E0
:100B200029049093AF068093AE060C941804E82F26
:100B3000F0E0EE0FFF1FEE54F94F718360830895CC
:100B400081E02091E2063091E306232B09F480E056
:100B50000895ECEAF6E086A997A9019697AB86ABD3
:100B60000895ECEAF6E086A997A9019797AB86ABC2
:100B700008950C9448040C946304CF93DF93CDB78D
:100B8000DEB729970FB6F894DEBF0FBECDBF99E050
:100B9000E4E0F2E0DE01119601900D929A95E1F702
:100BA0008931E8F021E092E3891770F0975E2F5FBA
:100BB0009A3FD1F78FEF29960FB6F894DEBF0FBE9C
:100BC000CDBFDF91CF910895822F90E021E030E0FA
:100BD0002C0F3D1F820F931FFC018081ECCF80E022
:100BE00090E0F4CF0E94DA070E94C20C0E944506F2
:100BF0000C944F0AE0919502F0919602309781F0A3
:100C0000228133818217930731F40CC02281338112
:100C10002817390739F00190F081E02D3097B1F7AE
:100C20000C942007DC01AD57BF4F2C9127871396FA
:100C30002C91208B22E024830C94200710929602A2
:100C4000109295020895FC01148217861382128275
:100C50008091E2069091E30601969093E3068093DB
:100C6000E2068091950290919602009739F0918367
:100C70008083F0939602E09395020895118210828A
:100C8000F0939602E093950208950F931F93CF93EC
:100C9000DF93E0919502F0919602309751F1EF01C8
:100CA0008C81882359F18230F9F4EC17FD0711F497
:100CB00084C0FC0180819181C817D907D1F7888150
:100CC0009981918380838091E2069091E306019758
:100CD0009093E3068093E206ED85FE85CE01DF91D9
:100CE000CF911F910F9109940990D881C02D209721
:100CF000B9F6DF91CF911F910F9108950E94EF06F1
:100D00008C01009709F451C09B838A8381E08C8316
:100D1000F801E957FF4F8AEF95E091838083998529
:100D2000319792FB882780F98083F801838590FBB7
:100D300080F993FB222720F920FB82F99695917088
:100D400090FB81F983878091B0068F5F8093B00616
:100D500084878091AC069091AD06968785878D81BA
:100D60009E81908B878798859F708189807F892B52
:100D7000818B9F819295907F8F70892B818BEF570C
:100D8000FF4F4C8550E06A857B85808191810E9470
:100D9000F30FF80181819C85890F8183C801DF9160
:100DA000CF911F910F910C94DC0B82E08C838F8785
:100DB000DF91CF911F910F91089588819981909330
:100DC0009602809395027FCF109297021092200393
:100DD0001092A903109232041092BB040895E7E91F
:100DE000F2E080E090E02081222349F00196E7576D
:100DF000FF4F85309105B9F780E090E0089549E80C
:100E0000489F9001499F300D1124C90189569D4F7B
:100E1000FC0111924A95E9F740E1FC014183EF574B
:100E2000FF4F27553D4F318320832091E2063091BB
:100E3000E3062F5F3F4F3093E3062093E2060895C9
:100E4000FC011082ECEAF6E086A997A9019797AB1E
:100E500086AB08950097B9F0FC01E757FF4F85E096
:100E6000E434F80738F00BC0E757FF4F85E0E4346F
:100E7000F80728F480818823B9F3CF010895E0E0D2
:100E8000F0E0CF010895E7E9F2E0F4CFFC01DC01E6
:100E9000AD57BF4F1C92ACEAB6E014969C911497E4
:100EA0009F5F14969C93149794878D919C9196873D
:100EB00085870895AC01E7E5F5E020E0908199236E
:100EC00019F09150908321E0359685E0E938F807D4
:100ED000A9F7211101C00895CA010C94D10DDC01BC
:100EE00019962C911997222339F01796ED91FC91C0
:100EF00018972081222311F080E008950C94720C41
:100F0000E7E5F5E01082359685E0E938F807D1F796
:100F100084E690E0A0E0B0E080934A0590934B0512
:100F2000A0934C05B0934D0510924F0510924E05BD
:100F30008AE597E090935105809350056FE677E03E
:100F400080E00C949705CF93DF93EC01E881F98161
:100F50008181883819F0DF91CF91089580818F7D4C
:100F60008134C9F78A818031B0F30E94EF0600977F
:100F700091F320E2FC0120834A814183ED57FF4F2A
:100F80002B81208331962C81208350E068817981E8
:100F90000296DF91CF910C94F30F80935205089540
:100FA000611104C024E2FC012083089522E2FC01C7
:100FB000208308955F926F927F928F929F92AF925B
:100FC000BF92CF92DF92EF92FF920F931F93CF9336
:100FD000DF93CDB7DEB72C970FB6F894DEBF0FBE08
:100FE000CDBF00E010E054E2F52E62E2662E71E221
:100FF000572E77247394EBE0EE2E88248394912C63
:10100000C8010E942A078C01892BA1F0D8018C917C
:10101000813209F410C120F1823209F496C0843281
:1010200079F7C8010E942007C8010E942A078C0195
:10103000892B61F72C960FB6F894DEBF0FBECDBF9B
:10104000DF91CF911F910F91FF90EF90DF90CF90A4
:10105000BF90AF909F908F907F906F905F9008951A
:10106000803271F6F801F082838583FDC9CF258136
:1010700036812F3F3F4F09F450C1F801C784D08813
:10108000FFEFCF16DF0609F45DC1A090AC06B0906B
:10109000AD06D8011D966D917C911E97A616B706D8
:1010A00009F4AECFA3E5B5E0E7E5F5E080E090E038
:1010B00020E030E00DC04D915C91119764177507E9
:1010C00009F448C10196159635968A30910551F07C
:1010D00040814111F0CF9D010196159635968A30D9
:1010E0009105B1F72115310509F48ACFD90111967F
:1010F0007C936E93F801848512968C9312971396C5
:101100007C9213971496EC9284E495E00E94D10DA2
:10111000A090AC06B090AD06D8011F96CD90DC90A3
:101120005097F80187819085019609F435C1CA145A
:10113000DB0421F0CD20C09409F062CFF801838553
:1011400081FD3EC1F80160825BCF10925205D8014B
:1011500051968C915197982F92959F70E92FF0E0BE
:10116000EE0FFF1FEE54F94F0190F081E02D309704
:1011700009F4EBC01D962D913C911E973A8329836B
:101180001F964D915C9150975C834B838F708D833C
:101190009E83AF57BF4F8D919C9199878887B801E7
:1011A0006E5F7F4F861B970BD80111969C9111970C
:1011B000981B9A87AD57BF4F8C918B8711968C9156
:1011C0008C87D8011B969C91892F837092FF87C0D2
:1011D00060E2862B93FF7BC090E4892B4F3F5F4FEB
:1011E00009F47BC090E0892BD80119964D915C9150
:1011F0001A972417350709F48EC090E0892BD8017F
:1012000015962D913C9116972F3F3F4F09F481C0C1
:1012100090E0892B8F83CE0101960995F801938583
:1012200090FD0EC0278130852F3F3F4F09F459C0F4
:10123000D801FC92E5CE60E0C8010E94FD09E0CE35
:10124000278130852F3F3F4F09F44CC0D8011596B8
:101250002D913C9116972F3F3F4F51F32091AC06B3
:101260003091AD062F3F3F4F19F3882309F30E94B9
:10127000EF066C010097E1F20E944607F6018181BA
:101280008D5F8183E957FF4F11821082D8011B9631
:101290008C911B9786958170F601938580FB91F95F
:1012A00093871D968D919C911E97908B8787EF5702
:1012B000FF4F0190F081E02D1082809152058283D2
:1012C0001C968C918183C6010E94DC0BB1CF90E00B
:1012D000892B4F3F5F4F09F085CF94E084CF60E0CA
:1012E00078CF80E02091AC063091AD06F8014785BB
:1012F00050892417350709F0A9CF93FDA7CF858121
:101300009681019609F494CF2F3F3F4F09F0AFCF5C
:101310008FCF90E17ECF98E071CFD8011F962D91AD
:101320003C9150974091AC065091AD06421753073F
:1013300021F02F3F3F4F09F063CE81FF08C0F80135
:1013400050825ECE80FFA1CE5BCE80E067CFD80119
:101350006C9256CEF8013485FC01EE0FFF1FEE0FA4
:10136000FF1FE80FF91FED5AFA4F2281231B283087
:1013700048F53381832F90E0022E02C09595879522
:101380000A94E2F780FD3CCEC40101C0880F2A9583
:10139000EAF7832B8383C5CEAC14BD0409F4CECE0B
:1013A000D8011B968C9182FDC5CEC8010E942A0CE3
:1013B000A090AC06B090AD06F801C784D088B7CE37
:1013C00050821ECE32838381219501C0880F2A95D9
:1013D000EAF781608383E482A4CE10929A0510928A
:1013E0009905109298050895FC0190E1A2EDB6E0F0
:1013F00001900D929A95E1F70895611109C021E3DA
:10140000FC01208380919A058F5F80939A0508954F
:1014100020E3FC01208380919A058F5F80939A05D9
:101420000895CF93DF93C0919805D0919905FE015F
:10143000EF57FF4FA081B18160919605862F90E014
:1014400050919705352F513110F130E140919505BC
:10145000A80FB91FE5E8F5E090E08C912081822784
:101460008D93411102C02081822780839F5F319636
:101470003913F3CF630F60939605531B5093970571
:10148000511108C084E38883DF91CF9108955111F1
:10149000DDCFF0CF82E38883DF91CF910895CF92A3
:1014A000DF92EF92FF920F931F9380919A0588230A
:1014B00069F080919805909199050097A9F0FC0139
:1014C00020812433B1F0223309F464C01F910F91BD
:1014D000FF90EF90DF90CF900895FC01208130EDD8
:1014E000320F323008F470C00E942A070097A9F723
:1014F000EDCF20919605EF57FF4F0190F081E02D41
:10150000E20FF11D40918505509186056091870598
:10151000709188050091890510918A0520918B05AD
:1015200030918C05402751276227732700918D0544
:1015300010918E0520918F053091900540275127FD
:1015400062277327009191051091920520919305D0
:1015500030919405402751276227732720919505E4
:10156000211127C021E0C080D180E280F380C41621
:10157000D506E606F70609F020E0622F0E94D007A4
:10158000109299051092980580919A058150809348
:101590009A059CCF23E3FC01208362ED76E085E889
:1015A00095E01F910F91FF90EF90DF90CF900C94FA
:1015B000640D4083518362837383FC0121812C5F1E
:1015C00021830E949D0CDCCF909399058093980510
:1015D000448550E060E070E04093850550938605B7
:1015E00060938705709388054785508960E070E0B7
:1015F000BA0155274427318932953F70432B4093D8
:10160000890550938A0560938B0570938C054585F9
:10161000568560E070E0BA015527442731893F7054
:10162000432B40938D0550938E0560938F057093E7
:1016300090054581568160E070E0BA015527442746
:101640003385432B40939105509392056093930506
:10165000709394052133D1F03181FC01EF57FF4F96
:1016600040815181BC016E5F7F4F461B570B341B7D
:10167000309397051092960531E0203309F030E061
:101680003093950522E3FC01208320CFFC013181BA
:1016900034503183E2CF0F931F93CF93DF93EC014C
:1016A00010E080E090E003E10E942A070097A9F093
:1016B000FC0120812131C1F7EC57FF4F208131819E
:1016C0002150310931832083232B71F4FC010083E5
:1016D00011E00E942A07009759F7111107C0DF9106
:1016E000CF911F910F91089511E0DECFCE01DF91D0
:1016F000CF911F910F910C94D10DFF920F931F93D7
:10170000CF93DF93EC0110E080E090E027E1F22E30
:1017100000E10E942A070097C1F0FC0120812631D8
:10172000C1F7EC57FF4F20813181215031093183BE
:101730002083232B91F4FC01F082ED57FF4F0083AF
:1017400011E00E942A07009741F7111108C0DF91AC
:10175000CF911F910F91FF90089511E0DACFCE0144
:10176000DF91CF911F910F91FF900C94D10D1092AA
:10177000B8051092B705E9EAF5E082E390E0A0E051
:10178000B0E086839783A087B187138612868DE7A2
:101790009BE095878487EBE9F5E08AE090E0A0E0A4
:1017A000B0E086839783A087B187138612868BE487
:1017B0009BE0958784870895CF93DF93EC01FC012C
:1017C000EA57FF4F808181FD03C09B8591FD31C0A9
:1017D00092E19883FE01ED57FF4F108280FF22C0F7
:1017E0008FEF9FEF9E838D832F85388938872F83D6
:1017F0008091AC069091AD069A8789878091B10659
:101800008F5F8093B1068C832F3F3F4FA9F081E615
:1018100098E89B838A83CC57DF4F19821882DF9127
:10182000CF9108958091AE069091AF069E838D83EF
:10183000DBCF90E19883CECF81E498E89B838A83C5
:101840000E94E40FCC57DF4F877099270196998348
:101850008883E5CF0F931F93CF93DF938C010E9472
:10186000EF06EC01892BC9F182E18883F8018181BF
:101870008983FE01ED57FF4F10820E94E40FFE01A5
:10188000EC57FF4F87709927019691838083339699
:1018900011821082F801418150E0B8016E5F7F4FE4
:1018A000CE0102960E94F30F81E498E89B838A831D
:1018B0008FEF9FEF98878F83F801858196819E83B4
:1018C0008D838091AC069091AD069A87898780912F
:1018D000B1068F5F8093B1068C83DF91CF911F910A
:1018E0000F910895CF93DF93FC012185233021F0E0
:1018F00080E0DF91CF910895C781D08580E090E0AE
:101900000E942A070097A1F3FC0120812631C1F72C
:10191000348529813213F4CF27E120838A579F4FE2
:101920002A81FC01208381E0E4CF27E1FC012083B0
:101930008D579F4FFC016083089522E1FC012083B5
:101940000895A091B705B091B8058330C8F4E82F89
:10195000F0E0E35FFD4F8081FD01ED57FF4F808395
:1019600085E18C931092B8051092B7058091E2063C
:101970009091E30601979093E3068093E206089521
:1019800081E0EACFBF92CF92DF92EF92FF920F9366
:101990001F93CF93DF93C0E0D0E084E1C82E97E19E
:1019A000F92E26E1B22E05E110E033E1E32E41E10C
:1019B000D42ECE010E942A07EC01892BB9F0888130
:1019C000833199F1E8F4803159F1823191F7FE01C8
:1019D000EC57FF4F80819181892B09F05EC0E8822E
:1019E000CE010E942A07EC01892B49F7DF91CF91A4
:1019F0001F910F91FF90EF90DF90CF90BF900895CF
:101A0000853171F18731A9F6FE01E957FF4F019049
:101A1000F081E02DCE01309709F445C00995C9CF7A
:101A200061E0CE010E94FD09C4CF8091B70590917D
:101A3000B805892B09F0BDCFD093B805C093B70581
:101A4000C8826981CE0102960E9471048091E206EB
:101A50009091E30601969093E3068093E206A9CF66
:101A6000FE01ED57FF4F8081811109C02D853E8514
:101A70008091AC069091AD062817390711F0F882D5
:101A800098CF8B8580FFFBCFB8823196118300837E
:101A900089EA95E00E94D10D8CCFD8828BE995E040
:101AA0000E94D10D86CF0E94200783CF0E94D002D2
:101AB0000E94CC0D0E94E9030C946D050E94EB047A
:101AC0000E94F2050C943D0E0E94A0040C94110A91
:101AD0000F931F93CF93DF93EC018091B905909101
:101AE000BA05009709F445C04E815F816885798504
:101AF000FC01A0E0B0E001C0F90102811381248162
:101B000035814017510762077307D0F0401B510B16
:101B1000620B730B20813181DF012115310561F7E3
:101B20004A835B836C837D838D919C91119799830C
:101B30008883CD93DC93DF91CF911F910F9108950E
:101B4000041B150B260B370B028313832483358369
:101B50004A835B836C837D83109731F799838883F5
:101B6000D093BA05C093B905DF91CF911F910F9122
:101B70000895198218828E819F81A885B9858A83EC
:101B80009B83AC83BD83D093BA05C093B905DF9125
:101B9000CF911F910F9108951092BA051092B90537
:101BA0000895E091B905F091BA05309761F08E176C
:101BB0009F0721F40BC08E179F0739F00190F08129
:101BC000E02D3097C1F70C94680D08950895CF93D8
:101BD000DF93E091B905F091BA05309769F0E81705
:101BE000F90729F42CC08217930749F0F9012081E5
:101BF000318121153105B9F7DF91CF9108953097E3
:101C0000F1F0DC012D913C91119731832083ED910E
:101C1000FC91309789F34281538164817581EC0195
:101C20008A819B81AC81BD81840F951FA61FB71F40
:101C300082839383A483B583DF91CF910895EC01D0
:101C4000E881F981F093BA05E093B905E2CFE0911C
:101C5000B905F091BA05309761F0E817F90721F45A
:101C60000AC08E179F0739F00190F081E02D309760
:101C7000C1F780E0089581E00895CF92DF92EF925E
:101C8000FF92CF93DF938091AB06882309F45BC06A
:101C90008FB7F894C090AB061092AB068FBFD12CD3
:101CA000E12CF12CD701C601880F991FAA1FBB1F79
:101CB000880F991FAA1FBB1F8C0D9D1DAE1DBF1D38
:101CC0006C017D01CC0CDD1CEE1CFF1CC091B90524
:101CD000D091BA052097B9F18A819B81AC81BD81F1
:101CE000C816D906EA06FB06A0F425C0EC85FD85DA
:101CF000CE010995C091B905D091BA05209719F187
:101D00008A819B81AC81BD81C816D906EA06FB0693
:101D100090F0C81AD90AEA0AFB0A8881998190933F
:101D2000BA058093B9058A859B850197F9F6CE019E
:101D30000E94680DDBCF8C199D09AE09BF098A830B
:101D40009B83AC83BD83DF91CF91FF90EF90DF90B9
:101D5000CF90089581E080BB11BA8FE99FE0019791
:101D6000F1F700C000008AE08093EB051092EC05CB
:101D70001092ED052BE436E06EEE75E0EBEBF5E04E
:101D8000ABE1B6E081E040E09AE026C01C921196FB
:101D90001C92119712961C92129748EF480F4330ED
:101DA00008F47AC04CEF480F433008F475C0108235
:101DB00011821282803129F1EB01988319821A82F3
:101DC0004DEF480F4330D8F040E02D5F3F4F8F5F1D
:101DD0006D5F7F4F33961396E901188249831A820B
:101DE00044EF480F433090F61C9211969C93119744
:101DF00012961C921297108291831282DDCF4AE0D4
:101E0000E4CF21E098E121BB00C000C011BAD3E0CB
:101E1000DA95F1F700009150B1F7815099F72FEF63
:101E200033ED80E3215030408040E1F700C00000F6
:101E300080911002C0E0D0E00DC0813089F1823085
:101E4000E1F1833009F446C02196C031D105A1F0FB
:101E5000809110028111F1CFFE01EE0FFF1FEC0FF8
:101E6000FD1FE551FA4F6081718182810E94C5009A
:101E70002196C031D10561F79FEFC3E2D4EF9150B5
:101E8000C040D040E1F700C00000809110028F5F99
:101E9000837080931002CECF1082918312828CCFF8
:101EA000FE01EE0FFF1FEC0FFD1FE55BF94F608198
:101EB000718182810E94C500C7CFFE01EE0FFF1F16
:101EC000EC0FFD1FE55EF94F6081718182810E94F8
:101ED000C500BACFFE01EE0FFF1FEC0FFD1FE5544A
:101EE000FA4F6081718182810E94C500ADCFA1E26D
:101EF0001A2EAA1BBB1BFD010DC0AA1FBB1FEE1F84
:101F0000FF1FA217B307E407F50720F0A21BB30BCE
:101F1000E40BF50B661F771F881F991F1A9469F74A
:101F200060957095809590959B01AC01BD01CF01A6
:101F300008958F929F92AF92BF92CF92DF92EF92CD
:101F4000FF92CF93DF93EC01688179818A819B8135
:101F5000611571058105910521F464E279ED8BE548
:101F600097E02DE133EF41E050E00E94FC0F490182
:101F70005A019B01AC01A7EAB1E40E941B106B015E
:101F80007C01ACEEB4EFA50194010E942910DC01A4
:101F9000CB018C0D9D1DAE1DBF1DB7FF03C001976A
:101FA000A109B04888839983AA83BB839F77DF9177
:101FB000CF91FF90EF90DF90CF90BF90AF909F9028
:101FC0008F9008950C94990F80E092E00C94990FF3
:101FD000A0E0B0E08093000290930102A09302027F
:101FE000B09303020895FB01DC0102C001900D9241
:101FF00041505040D8F70895052E97FB1EF40094E9
:102000000E94131057FD07D00E94770F07FC03D0E2
:102010004EF40C94131050954095309521953F4FF8
:102020004F4F5F4F089590958095709561957F4FC4
:102030008F4F9F4F08950E942E10A59F900DB49F23
:10204000900DA49F800D911D11240895B7FF0C944D
:102050001B100E941B10821B930B0895A29FB001BE
:10206000B39FC001A39F700D811D1124911DB29FCC
:0E207000700D811D1124911D0895F894FFCF6D
:10207E000100000003081A4080BEE6F7FC00202194
:00000001FF
