:100000000C9490000C94AF000C94AF000C94AF00D3
:100010000C94AF000C94AF000C94AF000C94AF00A4
:100020000C94AF000C94AF000C94AF000C94AF0094
:100030000C94AF000C9465010C94AF000C94AF00CD
:100040000C94AF000C94BA000C94AF000C94AF0069
:100050000C94AF000C94AF000C94AF000C94AF0064
:100060000C94AF000C94AF000C94AF000C94AF0054
:100070000C94AF000C94AF000C94AF000C94AF0044
:100080000C94AF000C94AF000C94AF000C94AF0034
:100090000C94AF000C94AF000C94AF000C94AF0024
:1000A0000C94AF000C94AF000C94B1010C94AF0011
:1000B0000C94AF000C94AF000C94AF000C94AF0004
:1000C0000C94AF000C94AF000C94AF000C94AF00F4
:1000D0000C94AF000C94AF000C94AF000C94AF00E4
:1000E0000C94AF000C94AF000C94AF000C94AF00D4
:1000F0000C94AF000C94AF000C94AF000C94AF00C4
:100100000C94AF000C94AF000C94AF000C94AF00B3
:100110000C94AF000C94AF000C94AF000C94AF00A3
:1001200011241FBECFEFD1E4DEBFCDBF12E0A0E0AF
:10013000B2E0E4E0FCE100E00BBF02C007900D92EA
:10014000A031B107D9F727E0A0E1B2E001C01D92CC
:10015000A930B207E1F70E94AA0C0C94000E0C948F
:10016000000081E090E0909325038093240308959C
:1001700081E008951F920F920FB60F9211248F9372
:100180009F938BB194E089278BB9109285001092D0
:1001900084009F918F910F900FBE0F901F90189524
:1001A00014BE0FB6F894A895809160008861809382
:1001B0006000109260000FBEE1E6F0E080E880830E
:1001C000108278940C94740190E00C948901660F6D
:1001D000771F881F991F660F771F881F991F660F4B
:1001E000771F881F991F660F771F881F991F660F3B
:1001F000771F881F991F28EE33E040E050E00E94EF
:100200003A0DDA01C901232B242B252B09F45CC0FC
:10021000492F5A2F6B2F7727282F1092700080912B
:10022000B60080628093B6001092B0001092B100C8
:100230001092B2008091B6008F71E1F787E087BB22
:100240008093B1006FEF37E01092260341155105FE
:1002500009F5222321F12093B30080917000826080
:10026000809370008091B6008F71E1F733BF88955D
:1002700013BE9FB7F894809126039FBF882321F374
:100280004115510551F04150510910922603411575
:100290005105F9F26093B300E0CF109226038091EC
:1002A000B6008F71E1F7109270001092B10083B523
:1002B000826083BD8091B6008F71E1F78091B600B6
:1002C0008F7D8093B600089508951F920F920FB608
:1002D0000F9211248F9381E0809326038F910F90CA
:1002E0000FBE0F901F9018951092D00680E29EE4EA
:1002F0009093A9008093A800E1EAF0E088E0808371
:10030000808182608083E2E7F0E080818260808388
:1003100008952091A4003091A500820F931F90931F
:10032000AB008093AA002091AA003091AB0080918D
:10033000A8009091A9008217930770F42091A8005B
:100340003091A9008091AA009091AB00821B930B81
:100350009093AB008093AA0084E089BBCA9BFECF38
:1003600008951F920F920FB60F9211248F938091D0
:10037000D0068F5F8093D0068F910F900FBE0F90A5
:100380001F90189583E080934201809141018F7105
:100390008830D9F780934201809141018F71883074
:1003A000D9F78FEF80934F0180912703882381F045
:1003B00083E080934201809141018F718830D9F7A9
:1003C00086E180934201809141018F718631D9F796
:1003D000089580913901816080933901109227033B
:1003E00081E090E09093A9038093A80383E0809339
:1003F0004201809141018F718830D9F78093420189
:10040000809141018F718830D9F780914C018068CB
:1004100080934C010895809327030C94C201982F78
:100420009F71E8E4F1E08081807E892B80830895CC
:10043000CF93DF9300D0CDB7DEB79A8389838093C3
:1004400062018A81809363010F900F90DF91CF91B9
:100450000895CF93DF9300D0CDB7DEB79A83898319
:10046000809360018A818093610189819A81890FDB
:1004700080936D010F900F90DF91CF910895982F89
:100480009F70E5E4F1E08081807F892B808308956F
:1004900083E080934201809141018F718830D9F7C8
:1004A00080934201809141018F718830D9F780910A
:1004B000390182608093390182E090E09093A90332
:1004C0008093A8030895E9E3F1E080818D7F808324
:1004D0000E94C20181E090E09093A9038093A80359
:1004E000089523E020934201209141012F7128308B
:1004F000D9F729E120934201209141012F7129313F
:10050000D9F72FEF20934F0122E0260F209380018F
:10051000662361F0DC01615070E06E577E4FE1E8C8
:10052000F1E08D918193E617F707D9F783E090E02A
:100530009093A9038093A80382E0809342010895D9
:10054000FB01AB01405F5F4F219120933F01E41716
:10055000F507D1F710923C01DC019C01205F3F4F71
:10056000FC01819180933E01E217F307D1F780915E
:100570003C01806880933C0180913D0180FFFCCF6D
:1005800080913E018D93EA17FB07D1F70895CF9331
:1005900083E080934201809141018F718830D9F7C7
:1005A00086E080934201809141018F718630D9F7B6
:1005B00080914F01806180934F011092470180919B
:1005C0004F0184FFFCCFC09147010E94C20186EA1F
:1005D0008C0FCF9108951F93CF93DF9300D000D05D
:1005E0001F92CDB7DEB78091A8039091A90302971F
:1005F00009F440C080914F0183FF45C060917B01A9
:10060000462F50E080E090E020E0FC01E058FE4FF3
:100610003081885D9C4FFC0130832F5F822F90E0FA
:100620004817590794F788E293E09A8389836250C8
:100630006B83485D5C4FFA0180818C838091470118
:100640008A558D83CE0101960E94A30580914101B8
:100650008F718631D9F780914F01886080934F0167
:1006600080914C018F7780934C0180914C01806880
:1006700080934C010F900F900F900F900F90DF918F
:10068000CF911F91089580914F0186FFF3CF809104
:1006900041018F71893131F080914F0180648093E5
:1006A0004F01E8CF1091420112951695177029F06D
:1006B000133079F0153079F013E00E94C20181E027
:1006C00090E09093A9038093A803812F0E94A10A30
:1006D000E3CF11E0F2CF12E0F0CF1092D5061092E6
:1006E000D6061092D2061092D106109208071092E8
:1006F0000707E7EDF6E01192119286E0E73FF80771
:10070000D1F70E94B7090E9480050E94E4040E946C
:100710001E040C94ED079093D2068093D1060C949E
:1007200029029093D4068093D3060C941802E82FE4
:10073000F0E0EE0FFF1FE952F94F718360830895D7
:1007400081E02091070730910807232B09F480E00E
:100750000895E1EDF6E086A997A9019697AB86ABDF
:100760000895E1EDF6E086A997A9019797AB86ABCE
:1007700008950C9448020C946302CF93DF93CDB795
:10078000DEB729970FB6F894DEBF0FBECDBF99E054
:10079000E4E0F2E0DE01119601900D929A95E1F706
:1007A0008931E8F021E092E3891770F0975E2F5FBE
:1007B0009A3FD1F78FEF29960FB6F894DEBF0FBEA0
:1007C000CDBFDF91CF910895822F90E021E030E0FE
:1007D0002C0F3D1F820F931FFC018081ECCF80E026
:1007E00090E0F4CF0E94DA050E94C20A0E944504FC
:1007F0000C944F08E091AA03F091AB03309781F07D
:10080000228133818217930731F40CC02281338116
:100810002817390739F00190F081E02D3097B1F7B2
:100820000C942005DC01AD57BF4F2C912787139600
:100830002C91208B22E024830C9420051092AB0392
:100840001092AA030895FC01148217861382128263
:10085000809107079091080701969093080780936D
:1008600007078091AA039091AB03009739F0918319
:100870008083F093AB03E093AA0308951182108262
:10088000F093AB03E093AA0308950F931F93CF93C4
:10089000DF93E091AA03F091AB03309751F1EF01A0
:1008A0008C81882359F18230F9F4EC17FD0711F49B
:1008B00084C0FC0180819181C817D907D1F7888154
:1008C0009981918380838091070790910807019710
:1008D0009093080780930707ED85FE85CE01DF9191
:1008E000CF911F910F9109940990D881C02D209725
:1008F000B9F6DF91CF911F910F9108950E94EF04F7
:100900008C01009709F451C09B838A8381E08C831A
:10091000F801E957FF4F8AEF93E09183808399852F
:10092000319792FB882780F98083F801838590FBBB
:1009300080F993FB222720F920FB82F9969591708C
:1009400090FB81F983878091D5068F5F8093D506D0
:1009500084878091D1069091D206968785878D8174
:100960009E81908B878798859F708189807F892B56
:10097000818B9F819295907F8F70892B818BEF5710
:10098000FF4F4C8550E06A857B85808191810E9474
:10099000B60DF80181819C85890F8183C801DF91A3
:1009A000CF911F910F910C94DC0982E08C838F878B
:1009B000DF91CF911F910F91089588819981909334
:1009C000AB038093AA037FCF1092AC03109235043F
:1009D0001092BE04109247051092D0050895ECEADB
:1009E000F3E080E090E02081222349F00196E75770
:1009F000FF4F85309105B9F780E090E0089549E810
:100A0000489F9001499F300D1124C90184559C4F86
:100A1000FC0111924A95E9F740E1FC014183EF574F
:100A2000FF4F22543C4F31832083209107073091A0
:100A300008072F5F3F4F309308072093070708955B
:100A4000FC011082E1EDF6E086A997A9019797AB2A
:100A500086AB08950097B9F0FC01E757FF4F86E099
:100A6000E935F80738F00BC0E757FF4F86E0E93566
:100A7000F80728F480818823B9F3CF010895E0E0D6
:100A8000F0E0CF010895ECEAF3E0F4CFFC01DC01E3
:100A9000AD57BF4F1C92A1EDB6E014969C911497F0
:100AA0009F5F14969C93149794878D919C91968741
:100AB00085870895AC01ECE6F6E020E0908199236B
:100AC00019F09150908321E0359686E0EE39F807D1
:100AD000A9F7211101C00895CA010C94D10BDC01C2
:100AE00019962C911997222339F01796ED91FC91C4
:100AF00018972081222311F080E008950C94720A47
:100B0000ECE6F6E01082359686E0EE39F807D1F78C
:100B100084E690E0A0E0B0E080935F0690936006EA
:100B2000A0936106B0936206109264061092630669
:100B30008AE595E090936606809365066FE675E01A
:100B400080E00C949703CF93DF93EC01E881F98167
:100B50008181883819F0DF91CF91089580818F7D50
:100B60008134C9F78A818031B0F30E94EF04009785
:100B700091F320E2FC0120834A814183ED57FF4F2E
:100B80002B81208331962C81208350E068817981EC
:100B90000296DF91CF910C94B60D8093670608956D
:100BA000611104C024E2FC012083089522E2FC01CB
:100BB000208308955F926F927F928F929F92AF925F
:100BC000BF92CF92DF92EF92FF920F931F93CF933A
:100BD000DF93CDB7DEB72C970FB6F894DEBF0FBE0C
:100BE000CDBF00E010E054E2F52E62E2662E71E225
:100BF000572E77247394EBE0EE2E88248394912C67
:100C0000C8010E942A058C01892BA1F0D8018C9182
:100C1000813209F410C120F1823209F496C0843285
:100C200079F7C8010E942005C8010E942A058C019D
:100C3000892B61F72C960FB6F894DEBF0FBECDBF9F
:100C4000DF91CF911F910F91FF90EF90DF90CF90A8
:100C5000BF90AF909F908F907F906F905F9008951E
:100C6000803271F6F801F082838583FDC9CF25813A
:100C700036812F3F3F4F09F450C1F801C784D08817
:100C8000FFEFCF16DF0609F45DC1A090D106B0904A
:100C9000D206D8011D966D917C911E97A616B706B7
:100CA00009F4AECFA8E6B6E0ECE6F6E080E090E02E
:100CB00020E030E00DC04D915C91119764177507ED
:100CC00009F448C10196159635968A30910551F080
:100CD00040814111F0CF9D010196159635968A30DD
:100CE0009105B1F72115310509F48ACFD901119683
:100CF0007C936E93F801848512968C9312971396C9
:100D00007C9213971496EC9289E596E00E94D10BA1
:100D1000A090D106B090D206D8011F96CD90DC905D
:100D20005097F80187819085019609F435C1CA145E
:100D3000DB0421F0CD20C09409F062CFF801838557
:100D400081FD3EC1F80160825BCF10926706D80139
:100D500051968C915197982F92959F70E92FF0E0C2
:100D6000EE0FFF1FE952F94F0190F081E02D30970F
:100D700009F4EBC01D962D913C911E973A8329836F
:100D80001F964D915C9150975C834B838F708D8340
:100D90009E83AF57BF4F8D919C9199878887B801EB
:100DA0006E5F7F4F861B970BD80111969C91119710
:100DB000981B9A87AD57BF4F8C918B8711968C915A
:100DC0008C87D8011B969C91892F837092FF87C0D6
:100DD00060E2862B93FF7BC090E4892B4F3F5F4FEF
:100DE00009F47BC090E0892BD80119964D915C9154
:100DF0001A972417350709F48EC090E0892BD80183
:100E000015962D913C9116972F3F3F4F09F481C0C5
:100E100090E0892B8F83CE0101960995F801938587
:100E200090FD0EC0278130852F3F3F4F09F459C0F8
:100E3000D801FC92E5CE60E0C8010E94FD07E0CE3B
:100E4000278130852F3F3F4F09F44CC0D8011596BC
:100E50002D913C9116972F3F3F4F51F32091D10692
:100E60003091D2062F3F3F4F19F3882309F30E9498
:100E7000EF046C010097E1F20E944605F6018181C2
:100E80008D5F8183E957FF4F11821082D8011B9635
:100E90008C911B9786958170F601938580FB91F963
:100EA00093871D968D919C911E97908B8787EF5706
:100EB000FF4F0190F081E02D1082809167068283C0
:100EC0001C968C918183C6010E94DC09B1CF90E011
:100ED000892B4F3F5F4F09F085CF94E084CF60E0CE
:100EE00078CF80E02091D1063091D206F801478575
:100EF00050892417350709F0A9CF93FDA7CF858125
:100F00009681019609F494CF2F3F3F4F09F0AFCF60
:100F10008FCF90E17ECF98E071CFD8011F962D91B1
:100F20003C9150974091D1065091D20642175307F9
:100F300021F02F3F3F4F09F063CE81FF08C0F80139
:100F400050825ECE80FFA1CE5BCE80E067CFD8011D
:100F50006C9256CEF8013485FC01EE0FFF1FEE0FA8
:100F6000FF1FE80FF91FE859F94F2281231B283092
:100F700048F53381832F90E0022E02C09595879526
:100F80000A94E2F780FD3CCEC40101C0880F2A9587
:100F9000EAF7832B8383C5CEAC14BD0409F4CECE0F
:100FA000D8011B968C9182FDC5CEC8010E942A0AE9
:100FB000A090D106B090D206F801C784D088B7CEF1
:100FC00050821ECE32838381219501C0880F2A95DD
:100FD000EAF781608383E482A4CE1092AF06109278
:100FE000AE061092AD060895FC0190E1A7EFB6E0C1
:100FF00001900D929A95E1F70895611109C021E3DE
:10100000FC0120838091AF068F5F8093AF06089527
:1010100020E3FC0120838091AF068F5F8093AF06B1
:101020000895CF93DF93C091AD06D091AE06FE0137
:10103000EF57FF4FA081B1816091AB06862F90E002
:101040005091AC06352F513110F130E14091AA0694
:10105000A80FB91FEAE9F6E090E08C912081822781
:101060008D93411102C02081822780839F5F31963A
:101070003913F3CF630F6093AB06531B5093AC0649
:10108000511108C084E38883DF91CF9108955111F5
:10109000DDCFF0CF82E38883DF91CF910895CF92A7
:1010A000DF92EF92FF920F931F938091AF068823F8
:1010B00069F08091AD069091AE060097A9F0FC0111
:1010C00020812433B1F0223309F464C01F910F91C1
:1010D000FF90EF90DF90CF900895FC01208130EDDC
:1010E000320F323008F470C00E942A050097A9F729
:1010F000EDCF2091AB06EF57FF4F0190F081E02D2F
:10110000E20FF11D40919A0650919B0660919C065A
:1011100070919D0600919E0610919F062091A00659
:101120003091A10640275127622773270091A2061C
:101130001091A3062091A4063091A50640275127BF
:10114000622773270091A6061091A7062091A80692
:101150003091A90640275127622773272091AA06BC
:10116000211127C021E0C080D180E280F380C41625
:10117000D506E606F70609F020E0622F0E94D005AA
:101180001092AE061092AD068091AF06815080930A
:10119000AF069CCF23E3FC01208367EF76E08AE96A
:1011A00096E01F910F91FF90EF90DF90CF900C94FD
:1011B000640B4083518362837383FC0121812C5F24
:1011C00021830E949D0ADCCF9093AE068093AD06EA
:1011D000448550E060E070E040939A0650939B068F
:1011E00060939C0670939D064785508960E070E08F
:1011F000BA0155274427318932953F70432B4093DC
:101200009E0650939F066093A0067093A1064585A5
:10121000568560E070E0BA015527442731893F7058
:10122000432B4093A2065093A3066093A4067093A9
:10123000A5064581568160E070E0BA015527442734
:101240003385432B4093A6065093A7066093A806C8
:101250007093A9062133D1F03181FC01EF57FF4F84
:1012600040815181BC016E5F7F4F461B570B341B81
:101270003093AC061092AB0631E0203309F030E039
:101280003093AA0622E3FC01208320CFFC013181A8
:1012900034503183E2CF0F931F93CF93DF93EC0150
:1012A00010E080E090E003E10E942A050097A9F099
:1012B000FC0120812131C1F7EC57FF4F20813181A2
:1012C0002150310931832083232B71F4FC010083E9
:1012D00011E00E942A05009759F7111107C0DF910C
:1012E000CF911F910F91089511E0DECFCE01DF91D4
:1012F000CF911F910F910C94D10BFF920F931F93DD
:10130000CF93DF93EC0110E080E090E027E1F22E34
:1013100000E10E942A050097C1F0FC0120812631DE
:10132000C1F7EC57FF4F20813181215031093183C2
:101330002083232B91F4FC01F082ED57FF4F0083B3
:1013400011E00E942A05009741F7111108C0DF91B2
:10135000CF911F910F91FF90089511E0DACFCE0148
:10136000DF91CF911F910F91FF900C94D10B1092B0
:10137000CD061092CC06EEEBF6E082E390E0A0E022
:10138000B0E086839783A087B187138612868DE7A6
:1013900099E095878487E0EBF6E08AE090E0A0E0B2
:1013A000B0E086839783A087B187138612868BE48B
:1013B00099E0958784870895CF93DF93EC01FC0132
:1013C000EA57FF4F808181FD03C09B8591FD31C0AD
:1013D00092E19883FE01ED57FF4F108280FF22C0FB
:1013E0008FEF9FEF9E838D832F85388938872F83DA
:1013F0008091D1069091D2069A8789878091D606EE
:101400008F5F8093D6068C832F3F3F4FA9F081E6F4
:1014100098E89B838A83CC57DF4F19821882DF912B
:10142000CF9108958091D3069091D4069E838D83A9
:10143000DBCF90E19883CECF81E498E89B838A83C9
:101440000E94A70DCC57DF4F87709927019699838B
:101450008883E5CF0F931F93CF93DF938C010E9476
:10146000EF04EC01892BC9F182E18883F8018181C5
:101470008983FE01ED57FF4F10820E94A70DFE01E8
:10148000EC57FF4F8770992701969183808333969D
:1014900011821082F801418150E0B8016E5F7F4FE8
:1014A000CE0102960E94B60D81E498E89B838A8360
:1014B0008FEF9FEF98878F83F801858196819E83B8
:1014C0008D838091D1069091D2069A8789878091E9
:1014D000D6068F5F8093D6068C83DF91CF911F91C4
:1014E0000F910895CF93DF93FC012185233021F0E4
:1014F00080E0DF91CF910895C781D08580E090E0B2
:101500000E942A050097A1F3FC0120812631C1F732
:10151000348529813213F4CF27E120838A579F4FE6
:101520002A81FC01208381E0E4CF27E1FC012083B4
:101530008D579F4FFC016083089522E1FC012083B9
:101540000895A091CC06B091CD068330C8F4E82F61
:10155000F0E0E35FFD4F8081FD01ED57FF4F808399
:1015600085E18C931092CD061092CC0680910707EE
:1015700090910807019790930807809307070895B3
:1015800081E0EACFBF92CF92DF92EF92FF920F936A
:101590001F93CF93DF93C0E0D0E084E1C82E97E1A2
:1015A000F92E26E1B22E05E110E033E1E32E41E110
:1015B000D42ECE010E942A05EC01892BB9F0888136
:1015C000833199F1E8F4803159F1823191F7FE01CC
:1015D000EC57FF4F80819181892B09F05EC0E88232
:1015E000CE010E942A05EC01892B49F7DF91CF91AA
:1015F0001F910F91FF90EF90DF90CF90BF900895D3
:10160000853171F18731A9F6FE01E957FF4F01904D
:10161000F081E02DCE01309709F445C00995C9CF7E
:1016200061E0CE010E94FD07C4CF8091CC0690916D
:10163000CD06892B09F0BDCFD093CD06C093CC0643
:10164000C8826981CE0102960E94710280910707CB
:101650009091080701969093080780930707A9CFF8
:10166000FE01ED57FF4F8081811109C02D853E8518
:101670008091D1069091D2062817390711F0F8828F
:1016800098CF8B8580FFFBCFB88231961183008382
:101690008EEB96E00E94D10B8CCFD88280EB96E047
:1016A0000E94D10B86CF0E94200583CF0E94D000DC
:1016B0000E94CC0B0E94E9010C946D030E94EB0286
:1016C0000E94F2030C943D0C0E94A0020C9411089D
:1016D0000F931F93CF93DF93EC018091CE069091EF
:1016E000CF06009709F445C04E815F8168857985F2
:1016F000FC01A0E0B0E001C0F90102811381248166
:1017000035814017510762077307D0F0401B510B1A
:10171000620B730B20813181DF012115310561F7E7
:101720004A835B836C837D838D919C911197998310
:101730008883CD93DC93DF91CF911F910F91089512
:10174000041B150B260B370B02831383248335836D
:101750004A835B836C837D83109731F799838883F9
:10176000D093CF06C093CE06DF91CF911F910F91FA
:101770000895198218828E819F81A885B9858A83F0
:101780009B83AC83BD83D093CF06C093CE06DF91FD
:10179000CF911F910F9108951092CF061092CE060F
:1017A0000895E091CE06F091CF06309761F08E1744
:1017B0009F0721F40BC08E179F0739F00190F0812D
:1017C000E02D3097C1F70C94680B08950895CF93DE
:1017D000DF93E091CE06F091CF06309769F0E817DD
:1017E000F90729F42CC08217930749F0F9012081E9
:1017F000318121153105B9F7DF91CF9108953097E7
:10180000F1F0DC012D913C91119731832083ED9112
:10181000FC91309789F34281538164817581EC0199
:101820008A819B81AC81BD81840F951FA61FB71F44
:1018300082839383A483B583DF91CF910895EC01D4
:10184000E881F981F093CF06E093CE06E2CFE091F4
:10185000CE06F091CF06309761F0E817F90721F432
:101860000AC08E179F0739F00190F081E02D309764
:10187000C1F780E0089581E00895CF92DF92EF9262
:10188000FF92CF93DF938091D006882309F45BC049
:101890008FB7F894C090D0061092D0068FBFD12C8D
:1018A000E12CF12CD701C601880F991FAA1FBB1F7D
:1018B000880F991FAA1FBB1F8C0D9D1DAE1DBF1D3C
:1018C0006C017D01CC0CDD1CEE1CFF1CC091CE0612
:1018D000D091CF062097B9F18A819B81AC81BD81DF
:1018E000C816D906EA06FB06A0F425C0EC85FD85DE
:1018F000CE010995C091CE06D091CF06209719F15F
:101900008A819B81AC81BD81C816D906EA06FB0697
:1019100090F0C81AD90AEA0AFB0A88819981909343
:10192000CF068093CE068A859B850197F9F6CE0176
:101930000E94680BDBCF8C199D09AE09BF098A8311
:101940009B83AC83BD83DF91CF91FF90EF90DF90BD
:10195000CF90089584E08AB91BB810BA0E94560B44
:1019600084E1A82E82E0B82E91EBC92E90E0D92E0A
:1019700024E0922E35E0832E09E01DE3C1E0D0E0A3
:1019800042E0E42EF12C0E945E0B809124039091A2
:1019900025030097F1F00197B1F7809110028111B2
:1019A00043C0789BF0CF2FEF81EE94E02150804030
:1019B0009040E1F700C00000789BE5CF8BB189250E
:1019C0008BB90E945E0B80912403909125030097B0
:1019D00011F79BB880916F00826080936F00109226
:1019E00085001092840010928000809281001093F4
:1019F00089000093880088E090E80E948B0384E8C7
:101A000091E40E9491038FE00E940F0281E00E9406
:101A10000B0268EB70E081E00E9497037894D0930A
:101A20002503C0932403AFCF80911102909112023D
:101A3000909319038093180381E080931A03809395
:101A40001B0380931C03B0921E03A0921D03809180
:101A5000130280931F03D0922103C0922003F092BF
:101A60002503E092240383E193E00E942304109273
:101A7000100297CFA1E21A2EAA1BBB1BFD010DC0BD
:101A8000AA1FBB1FEE1FFF1FA217B307E407F5072E
:101A900020F0A21BB30BE40BF50B661F771F881F0A
:101AA000991F1A9469F760957095809590959B01A0
:101AB000AC01BD01CF0108958F929F92AF92BF926A
:101AC000CF92DF92EF92FF92CF93DF93EC01688188
:101AD00079818A819B81611571058105910521F4C8
:101AE00064E279ED8BE597E02DE133EF41E050E0E2
:101AF0000E94BF0D49015A019B01AC01A7EAB1E464
:101B00000E94DE0D6B017C01ACEEB4EFA5019401E7
:101B10000E94EC0DDC01CB018C0D9D1DAE1DBF1D87
:101B2000B7FF03C00197A109B04888839983AA83AE
:101B3000BB839F77DF91CF91FF90EF90DF90CF90A5
:101B4000BF90AF909F908F9008950C945C0D80E0B3
:101B500092E00C945C0DA0E0B0E0809300029093C2
:101B60000102A0930202B09303020895FB01DC017D
:101B700002C001900D9241505040D8F70895052EB3
:101B800097FB1EF400940E94D60D57FD07D00E94CB
:101B90003A0D07FC03D04EF40C94D60D50954095A9
:101BA000309521953F4F4F4F5F4F08959095809509
:101BB000709561957F4F8F4F9F4F08950E94F10D53
:101BC000A59F900DB49F900DA49F800D911D112491
:101BD0000895B7FF0C94DE0D0E94DE0D821B930B5F
:101BE0000895A29FB001B39FC001A39F700D811DF6
:101BF0001124911DB29F700D811D1124911D089516
:041C0000F894FFCF86
:101C04000100000003081A4080BEE6F7FC00202112
:00000001FF
