:100000000C9490000C94AF000C94AF000C94AF00D3
:100010000C94AF000C94AF000C94AF000C94AF00A4
:100020000C94AF000C94AF000C94AF000C94AF0094
:100030000C94AF000C940D030C94AF000C94AF0023
:100040000C94AF000C9464010C94AF000C94AF00BE
:100050000C94AF000C94AF000C94AF000C94AF0064
:100060000C94AF000C94AF000C94AF000C94AF0054
:100070000C94AF000C94AF000C94AF000C94AF0044
:100080000C94AF000C94AF000C94AF000C94AF0034
:100090000C94AF000C94AF000C94AF000C94AF0024
:1000A0000C94AF000C94AF000C9459030C94AF0067
:1000B0000C94AF000C94AF000C94AF000C94AF0004
:1000C0000C94AF000C94AF000C94AF000C94AF00F4
:1000D0000C94AF000C94AF000C94AF000C94AF00E4
:1000E0000C94AF000C94AF000C94AF000C94AF00D4
:1000F0000C94AF000C94AF000C94AF000C94AF00C4
:100100000C94AF000C94AF000C94AF000C94AF00B3
:100110000C94AF000C94AF000C94AF000C94AF00A3
:1001200011241FBECFEFD1E4DEBFCDBF12E0A0E0AF
:10013000B2E0E6EFF1E200E00BBF02C007900D92E3
:10014000A431B107D9F727E0A4E1B2E001C01D92C4
:10015000AF30B207E1F70E94520E0C94F9100C94E4
:10016000000085B190E2892785B980910202811152
:1001700007C081E090E090932903809328030895BD
:1001800082E090E09093290380932803089585B13D
:1001900090E4892785B9E7E1F3E0A5E1B2E08D912C
:1001A0009C9111979683858381E0878380878187DF
:1001B00088E192E09387828712968C91848781EB05
:1001C00090E09687858783E090E090932903809361
:1001D0002803CF010C94CB05DC0195B180E498276E
:1001E00095B95A9A2FEF81EE94E0215080409040CB
:1001F000E1F700C000001BB82FEF81EE94E0215022
:1002000080409040E1F700C000001796ED91FC910E
:10021000189790819731A1F19A30E1F09B3011F05D
:1002200081E008952091280330912903223031057F
:10023000B9F71B968C91309316022093150222E099
:1002400020931702909318028093190281E0809303
:100250001402E6CF20912803309129032230310582
:10026000F9F6309316022093150282E0809317026C
:100270009093180281E08093190280931402D0CFEA
:1002800061817281709301026093000286E19FE0B8
:100290000E949510109281001092910081E080934D
:1002A000020280E685B988E08BB9F8942FEF81EEE1
:1002B00094E0215080409040E1F700C0000010928F
:1002C000290310922803ACCF1F920F920FB60F9202
:1002D00011240BB60F922F933F934F935F936F931D
:1002E0007F938F939F93AF93BF93EF93FF9310925E
:1002F0008500109284008091280390912903019732
:1003000071F482E090E0909316028093150281E0F0
:10031000809317028EEE809318020E94C700FF910F
:10032000EF91BF91AF919F918F917F916F915F916D
:100330004F913F912F910F900BBE0F900FBE0F90DA
:100340001F901895109281001092910081E0809387
:10035000020280E685B988E08BB9F8942FEF81EE30
:1003600094E0215080409040E1F700C000001092DE
:10037000290310922803089580912803909129035E
:100380008230910509F0089590931602809315022A
:1003900082E0809317028AE08093180281E08093C4
:1003A00019028093140208952091280330912903A3
:1003B0002230310509F0089530931602209315027A
:1003C00092E0909317029BE0909318028093190299
:1003D00081E080931402089520912803309129032D
:1003E0002230310509F0089530931602209315024A
:1003F00092E09093170294E690931802809319026A
:1004000081E0809314020895789902C080E00895F5
:100410002FEF81EE94E0215080409040E1F700C042
:1004200000008FB181700895799902C080E008952D
:100430002FEF81EE94E0215080409040E1F700C022
:1004400000008FB186958170089580E480937C00D0
:1004500087E880937A0080917B0085FDFCCF08952A
:10046000DC0180917C00807E462F50E04150510994
:100470004730510568F4405C5D4FFA010C9423103D
:100480006D026F0271024702670269026B028460AB
:1004900080937C0020E140E050E090917A009064ED
:1004A00090937A0090917A0096FDFCCF609178004D
:1004B00070917900460F571F215079F75295429558
:1004C0004F7045275F7045274D935C930895856075
:1004D000DFCF8660DDCF8760DBCF8160D9CF8260E0
:1004E000D7CF8360D5CF60E08AE293E00C943002EE
:1004F00014BE0FB6F894A89580916000886180932F
:100500006000109260000FBEE1E6F0E080E88083BA
:10051000108278940C941C0390E00C943103660FC5
:10052000771F881F991F660F771F881F991F660FF7
:10053000771F881F991F660F771F881F991F660FE7
:10054000771F881F991F28EE33E040E050E00E949B
:100550000110DA01C901232B242B252B09F45CC0DF
:10056000492F5A2F6B2F7727282F109270008091D8
:10057000B60080628093B6001092B0001092B10075
:100580001092B2008091B6008F71E1F787E087BBCF
:100590008093B1006FEF37E010922C0341155105A5
:1005A00009F5222321F12093B3008091700082602D
:1005B000809370008091B6008F71E1F733BF88950A
:1005C00013BE9FB7F89480912C039FBF882321F31B
:1005D0004115510551F04150510910922C0341151C
:1005E0005105F9F26093B300E0CF10922C03809193
:1005F000B6008F71E1F7109270001092B10083B5D0
:10060000826083BD8091B6008F71E1F78091B60062
:100610008F7D8093B600089508951F920F920FB6B4
:100620000F9211248F9381E080932C038F910F9070
:100630000FBE0F901F9018951092D60680E29EE490
:100640009093A9008093A800E1EAF0E088E080831D
:10065000808182608083E2E7F0E080818260808335
:1006600008952091A4003091A500820F931F9093CC
:10067000AB008093AA002091AA003091AB0080913A
:10068000A8009091A9008217930770F42091A80008
:100690003091A9008091AA009091AB00821B930B2E
:1006A0009093AB008093AA0084E089BBCA9BFECFE5
:1006B00008951F920F920FB60F9211248F9380917D
:1006C000D6068F5F8093D6068F910F900FBE0F9046
:1006D0001F90189583E080934201809141018F71B2
:1006E0008830D9F780934201809141018F71883021
:1006F000D9F78FEF80934F0180912D03882381F0EC
:1007000083E080934201809141018F718830D9F755
:1007100086E180934201809141018F718631D9F742
:1007200008958091390181608093390110922D03E1
:1007300081E090E09093AF038093AE0383E08093D9
:100740004201809141018F718830D9F78093420135
:10075000809141018F718830D9F780914C01806878
:1007600080934C01089580932D030C946A03982F75
:100770009F71E8E4F1E08081807E892B8083089579
:10078000CF93DF9300D0CDB7DEB79A838983809370
:1007900062018A81809363010F900F90DF91CF9166
:1007A0000895CF93DF9300D0CDB7DEB79A838983C6
:1007B000809360018A818093610189819A81890F88
:1007C00080936D010F900F90DF91CF910895982F36
:1007D0009F70E5E4F1E08081807F892B808308951C
:1007E00083E080934201809141018F718830D9F775
:1007F00080934201809141018F718830D9F78091B7
:10080000390182608093390182E090E09093AF03D8
:100810008093AE030895E9E3F1E080818D7F8083CA
:100820000E946A0381E090E09093AF038093AE034F
:10083000089523E020934201209141012F71283037
:10084000D9F729E120934201209141012F712931EB
:10085000D9F72FEF20934F0122E0260F209380013C
:10086000662361F0DC01615070E06E577E4FE1E875
:10087000F1E08D918193E617F707D9F783E090E0D7
:100880009093AF038093AE0382E08093420108957A
:10089000FB01AB01405F5F4F219120933F01E417C3
:1008A000F507D1F710923C01DC019C01205F3F4F1E
:1008B000FC01819180933E01E217F307D1F780910B
:1008C0003C01806880933C0180913D0180FFFCCF1A
:1008D00080913E018D93EA17FB07D1F70895CF93DE
:1008E00083E080934201809141018F718830D9F774
:1008F00086E080934201809141018F718630D9F763
:1009000080914F01806180934F0110924701809147
:100910004F0184FFFCCFC09147010E946A0386EA21
:100920008C0FCF9108951F93CF93DF9300D000D009
:100930001F92CDB7DEB78091AE039091AF030297BF
:1009400009F440C080914F0183FF45C060917B0155
:10095000462F50E080E090E020E0FC01E058FE4FA0
:100960003081825D9C4FFC0130832F5F822F90E0AD
:100970004817590794F78EE293E09A83898362506F
:100980006B83425D5C4FFA0180818C8380914701CB
:100990008A558D83CE0101960E944B0780914101BB
:1009A0008F718631D9F780914F01886080934F0114
:1009B00080914C018F7780934C0180914C0180682D
:1009C00080934C010F900F900F900F900F90DF913C
:1009D000CF911F91089580914F0186FFF3CF8091B1
:1009E00041018F71893131F080914F018064809392
:1009F0004F01E8CF1091420112951695177029F01A
:100A0000133079F0153079F013E00E946A0381E029
:100A100090E09093AF038093AE03812F0E94490C26
:100A2000E3CF11E0F2CF12E0F0CF1092DB0610928C
:100A3000DC061092D8061092D70610920E0710927C
:100A40000D07EDEDF6E01192119286E0ED3FF8070B
:100A5000D1F70E945F0B0E9428070E948C060E941B
:100A6000C6050C9495099093D8068093D7060C94EC
:100A7000D1039093DA068093D9060C94C003E82F33
:100A8000F0E0EE0FFF1FE352F94F7183608308958A
:100A900081E020910D0730910E07232B09F480E0AF
:100AA0000895E7EDF6E086A997A9019697AB86AB86
:100AB0000895E7EDF6E086A997A9019797AB86AB75
:100AC00008950C94F0030C940B04CF93DF93CDB7EF
:100AD000DEB729970FB6F894DEBF0FBECDBF99E001
:100AE000E7E0F2E0DE01119601900D929A95E1F7B0
:100AF0008931E8F021E092E3891770F0975E2F5F6B
:100B00009A3FD1F78FEF29960FB6F894DEBF0FBE4C
:100B1000CDBFDF91CF910895822F90E021E030E0AA
:100B20002C0F3D1F820F931FFC018081ECCF80E0D2
:100B300090E0F4CF0E9482070E946A0C0E94ED05AB
:100B40000C94F709E091B003F091B103309781F074
:100B5000228133818217930731F40CC022813381C3
:100B60002817390739F00190F081E02D3097B1F75F
:100B70000C94C806DC01AD57BF4F2C912787139604
:100B80002C91208B22E024830C94C8061092B10390
:100B90001092B0030895FC0114821786138212820A
:100BA00080910D0790910E07019690930E07809308
:100BB0000D078091B0039091B103009739F09183B4
:100BC0008083F093B103E093B00308951182108203
:100BD000F093B103E093B00308950F931F93CF9365
:100BE000DF93E091B003F091B103309751F1EF0141
:100BF0008C81882359F18230F9F4EC17FD0711F448
:100C000084C0FC0180819181C817D907D1F7888100
:100C100099819183808380910D0790910E070197B0
:100C200090930E0780930D07ED85FE85CE01DF9131
:100C3000CF911F910F9109940990D881C02D2097D1
:100C4000B9F6DF91CF911F910F9108950E949706F9
:100C50008C01009709F451C09B838A8381E08C83C7
:100C6000F801E957FF4F82EA95E0918380839985E7
:100C7000319792FB882780F98083F801838590FB68
:100C800080F993FB222720F920FB82F99695917039
:100C900090FB81F983878091DB068F5F8093DB0671
:100CA00084878091D7069091D806968785878D8115
:100CB0009E81908B878798859F708189807F892B03
:100CC000818B9F819295907F8F70892B818BEF57BD
:100CD000FF4F4C8550E06A857B85808191810E9421
:100CE0008610F80181819C85890F8183C801DF917D
:100CF000CF911F910F910C94840B82E08C838F878E
:100D0000DF91CF911F910F910895888199819093E0
:100D1000B1038093B0037FCF1092B20310923B04D3
:100D20001092C40410924D051092D6050895E2EB7E
:100D3000F3E080E090E02081222349F00196E7571C
:100D4000FF4F85309105B9F780E090E0089549E8BC
:100D5000489F9001499F300D1124C9018E549C4F2A
:100D6000FC0111924A95E9F740E1FC014183EF57FC
:100D7000FF4F2C533C4F3183208320910D0730913E
:100D80000E072F5F3F4F30930E0720930D070895F6
:100D9000FC011082E7EDF6E086A997A9019797ABD1
:100DA00086AB08950097B9F0FC01E757FF4F86E046
:100DB000EF35F80738F00BC0E757FF4F86E0EF3507
:100DC000F80728F480818823B9F3CF010895E0E083
:100DD000F0E0CF010895E2EBF3E0F4CFFC01DC0199
:100DE000AD57BF4F1C92A7EDB6E014969C91149797
:100DF0009F5F14969C93149794878D919C919687EE
:100E000085870895AC01E2E7F6E020E09081992320
:100E100019F09150908321E0359686E0E43AF80786
:100E2000A9F7211101C00895CA010C94790DDC01C4
:100E300019962C911997222339F01796ED91FC9170
:100E400018972081222311F080E008950C941A0C49
:100E5000E2E7F6E01082359686E0E43AF807D1F74B
:100E600084E690E0A0E0B0E080936506909366068B
:100E7000A0936706B093680610926A0610926906FE
:100E800082E097E090936C0680936B0667E177E0D1
:100E900080E00C943F05CF93DF93EC01E881F9816A
:100EA0008181883819F0DF91CF91089580818F7DFD
:100EB0008134C9F78A818031B0F30E949706009788
:100EC00091F320E2FC0120834A814183ED57FF4FDB
:100ED0002B81208331962C81208350E06881798199
:100EE0000296DF91CF910C94861080936D06089541
:100EF000611104C024E2FC012083089522E2FC0178
:100F0000208308955F926F927F928F929F92AF920B
:100F1000BF92CF92DF92EF92FF920F931F93CF93E6
:100F2000DF93CDB7DEB72C970FB6F894DEBF0FBEB8
:100F3000CDBF00E010E054E2F52E62E2662E71E2D1
:100F4000572E77247394EBE0EE2E88248394912C13
:100F5000C8010E94D2068C01892BA1F0D8018C9186
:100F6000813209F410C120F1823209F496C0843232
:100F700079F7C8010E94C806C8010E94D2068C01F8
:100F8000892B61F72C960FB6F894DEBF0FBECDBF4C
:100F9000DF91CF911F910F91FF90EF90DF90CF9055
:100FA000BF90AF909F908F907F906F905F900895CB
:100FB000803271F6F801F082838583FDC9CF2581E7
:100FC00036812F3F3F4F09F450C1F801C784D088C4
:100FD000FFEFCF16DF0609F45DC1A090D706B090F1
:100FE000D806D8011D966D917C911E97A616B7065E
:100FF00009F4AECFAEE6B6E0E2E7F6E080E090E0DE
:1010000020E030E00DC04D915C9111976417750799
:1010100009F448C10196159635968A30910551F02C
:1010200040814111F0CF9D010196159635968A3089
:101030009105B1F72115310509F48ACFD90111962F
:101040007C936E93F801848512968C931297139675
:101050007C9213971496EC928FE596E00E94790D9E
:10106000A090D706B090D806D8011F96CD90DC90FE
:101070005097F80187819085019609F435C1CA140B
:10108000DB0421F0CD20C09409F062CFF801838504
:1010900081FD3EC1F80160825BCF10926D06D801E0
:1010A00051968C915197982F92959F70E92FF0E06F
:1010B000EE0FFF1FE352F94F0190F081E02D3097C2
:1010C00009F4EBC01D962D913C911E973A8329831C
:1010D0001F964D915C9150975C834B838F708D83ED
:1010E0009E83AF57BF4F8D919C9199878887B80198
:1010F0006E5F7F4F861B970BD80111969C911197BD
:10110000981B9A87AD57BF4F8C918B8711968C9106
:101110008C87D8011B969C91892F837092FF87C082
:1011200060E2862B93FF7BC090E4892B4F3F5F4F9B
:1011300009F47BC090E0892BD80119964D915C9100
:101140001A972417350709F48EC090E0892BD8012F
:1011500015962D913C9116972F3F3F4F09F481C072
:1011600090E0892B8F83CE0101960995F801938534
:1011700090FD0EC0278130852F3F3F4F09F459C0A5
:10118000D801FC92E5CE60E0C8010E94A509E0CE3E
:10119000278130852F3F3F4F09F44CC0D801159669
:1011A0002D913C9116972F3F3F4F51F32091D70639
:1011B0003091D8062F3F3F4F19F3882309F30E943F
:1011C00097066C010097E1F20E94EE06F60181811C
:1011D0008D5F8183E957FF4F11821082D8011B96E2
:1011E0008C911B9786958170F601938580FB91F910
:1011F00093871D968D919C911E97908B8787EF57B3
:10120000FF4F0190F081E02D108280916D06828366
:101210001C968C918183C6010E94840BB1CF90E013
:10122000892B4F3F5F4F09F085CF94E084CF60E07A
:1012300078CF80E02091D7063091D806F801478515
:1012400050892417350709F0A9CF93FDA7CF8581D1
:101250009681019609F494CF2F3F3F4F09F0AFCF0D
:101260008FCF90E17ECF98E071CFD8011F962D915E
:101270003C9150974091D7065091D806421753079A
:1012800021F02F3F3F4F09F063CE81FF08C0F801E6
:1012900050825ECE80FFA1CE5BCE80E067CFD801CA
:1012A0006C9256CEF8013485FC01EE0FFF1FEE0F55
:1012B000FF1FE80FF91FE259F94F2281231B283045
:1012C00048F53381832F90E0022E02C095958795D3
:1012D0000A94E2F780FD3CCEC40101C0880F2A9534
:1012E000EAF7832B8383C5CEAC14BD0409F4CECEBC
:1012F000D8011B968C9182FDC5CEC8010E94D20BED
:10130000A090D706B090D806F801C784D088B7CE91
:1013100050821ECE32838381219501C0880F2A9589
:10132000EAF781608383E482A4CE1092B50610921E
:10133000B4061092B3060895FC0190E1ADEFB6E05B
:1013400001900D929A95E1F70895611109C021E38A
:10135000FC0120838091B5068F5F8093B5060895C8
:1013600020E3FC0120838091B5068F5F8093B50652
:101370000895CF93DF93C091B306D091B406FE01D8
:10138000EF57FF4FA081B1816091B106862F90E0A9
:101390005091B206352F513110F130E14091B00635
:1013A000A80FB91FE0EAF6E090E08C912081822737
:1013B0008D93411102C02081822780839F5F3196E7
:1013C0003913F3CF630F6093B106531B5093B206EA
:1013D000511108C084E38883DF91CF9108955111A2
:1013E000DDCFF0CF82E38883DF91CF910895CF9254
:1013F000DF92EF92FF920F931F938091B50688239F
:1014000069F08091B3069091B4060097A9F0FC01B1
:1014100020812433B1F0223309F464C01F910F916D
:10142000FF90EF90DF90CF900895FC01208130ED88
:10143000320F323008F470C00E94D2060097A9F72C
:10144000EDCF2091B106EF57FF4F0190F081E02DD5
:10145000E20FF11D4091A0065091A1066091A206F5
:101460007091A3060091A4061091A5062091A606EE
:101470003091A70640275127622773270091A806BD
:101480001091A9062091AA063091AB06402751275A
:10149000622773270091AC061091AD062091AE062D
:1014A0003091AF0640275127622773272091B0065D
:1014B000211127C021E0C080D180E280F380C416D2
:1014C000D506E606F70609F020E0622F0E947807AD
:1014D0001092B4061092B3068091B50681508093A5
:1014E000B5069CCF23E3FC0120836DEF76E080EA14
:1014F00096E01F910F91FF90EF90DF90CF900C94AA
:101500000C0D4083518362837383FC0121812C5F26
:1015100021830E94450CDCCF9093B4068093B306E0
:10152000448550E060E070E04093A0065093A1062F
:101530006093A2067093A3064785508960E070E02F
:10154000BA0155274427318932953F70432B409388
:10155000A4065093A5066093A6067093A70645853A
:10156000568560E070E0BA015527442731893F7005
:10157000432B4093A8065093A9066093AA06709344
:10158000AB064581568160E070E0BA0155274427DB
:101590003385432B4093AC065093AD066093AE0663
:1015A0007093AF062133D1F03181FC01EF57FF4F2B
:1015B00040815181BC016E5F7F4F461B570B341B2E
:1015C0003093B2061092B10631E0203309F030E0DA
:1015D0003093B00622E3FC01208320CFFC0131814F
:1015E00034503183E2CF0F931F93CF93DF93EC01FD
:1015F00010E080E090E003E10E94D2060097A9F09D
:10160000FC0120812131C1F7EC57FF4F208131814E
:101610002150310931832083232B71F4FC01008395
:1016200011E00E94D206009759F7111107C0DF910F
:10163000CF911F910F91089511E0DECFCE01DF9180
:10164000CF911F910F910C94790DFF920F931F93DF
:10165000CF93DF93EC0110E080E090E027E1F22EE1
:1016600000E10E94D2060097C1F0FC0120812631E2
:10167000C1F7EC57FF4F208131812150310931836F
:101680002083232B91F4FC01F082ED57FF4F008360
:1016900011E00E94D206009741F7111108C0DF91B6
:1016A000CF911F910F91FF90089511E0DACFCE01F5
:1016B000DF91CF911F910F91FF900C94790D1092B3
:1016C000D3061092D206E4ECF6E082E390E0A0E0CC
:1016D000B0E086839783A087B1871386128685E260
:1016E0009BE095878487E6EBF6E08AE090E0A0E057
:1016F000B0E086839783A087B1871386128683EF35
:101700009AE0958784870895CF93DF93EC01FC01DD
:10171000EA57FF4F808181FD03C09B8591FD31C059
:1017200092E19883FE01ED57FF4F108280FF22C0A7
:101730008FEF9FEF9E838D832F85388938872F8386
:101740008091D7069091D8069A8789878091DC0688
:101750008F5F8093DC068C832F3F3F4FA9F081E69B
:1017600098E89B838A83CC57DF4F19821882DF91D8
:10177000CF9108958091D9069091DA069E838D834A
:10178000DBCF90E19883CECF81E498E89B838A8376
:101790000E947710CC57DF4F877099270196998365
:1017A0008883E5CF0F931F93CF93DF938C010E9423
:1017B0009706EC01892BC9F182E18883F8018181C8
:1017C0008983FE01ED57FF4F10820E947710FE01C2
:1017D000EC57FF4F8770992701969183808333964A
:1017E00011821082F801418150E0B8016E5F7F4F95
:1017F000CE0102960E94861081E498E89B838A833A
:101800008FEF9FEF98878F83F801858196819E8364
:101810008D838091D7069091D8069A878987809189
:10182000DC068F5F8093DC068C83DF91CF911F9164
:101830000F910895CF93DF93FC012185233021F090
:1018400080E0DF91CF910895C781D08580E090E05E
:101850000E94D2060097A1F3FC0120812631C1F736
:10186000348529813213F4CF27E120838A579F4F93
:101870002A81FC01208381E0E4CF27E1FC01208361
:101880008D579F4FFC016083089522E1FC01208366
:101890000895A091D206B091D3068330C8F4E82F02
:1018A000F0E0E05FFD4F8081FD01ED57FF4F808349
:1018B00085E18C931092D3061092D20680910D0789
:1018C00090910E07019790930E0780930D0708954E
:1018D00081E0EACFBF92CF92DF92EF92FF920F9317
:1018E0001F93CF93DF93C0E0D0E084E1C82E97E14F
:1018F000F92E26E1B22E05E110E033E1E32E41E1BD
:10190000D42ECE010E94D206EC01892BB9F0888139
:10191000833199F1E8F4803159F1823191F7FE0178
:10192000EC57FF4F80819181892B09F05EC0E882DE
:10193000CE010E94D206EC01892B49F7DF91CF91AD
:101940001F910F91FF90EF90DF90CF90BF9008957F
:10195000853171F18731A9F6FE01E957FF4F0190FA
:10196000F081E02DCE01309709F445C00995C9CF2B
:1019700061E0CE010E94A509C4CF8091D20690916A
:10198000D306892B09F0BDCFD093D306C093D206DE
:10199000C8826981CE0102960E94190480910D07C8
:1019A00090910E07019690930E0780930D07A9CF93
:1019B000FE01ED57FF4F8081811109C02D853E85C5
:1019C0008091D7069091D8062817390711F0F88230
:1019D00098CF8B8580FFFBCFB8823196118300832F
:1019E00084EC96E00E94790D8CCFD88286EB96E04D
:1019F0000E94790D86CF0E94C80683CF0E9478028C
:101A00000E94740D0E9491030C9415050E9493048A
:101A10000E949A050C94E50D0E9448040C94B909A3
:101A20000F931F93CF93DF93EC018091D406909195
:101A3000D506009709F445C04E815F816885798598
:101A4000FC01A0E0B0E001C0F90102811381248112
:101A500035814017510762077307D0F0401B510BC7
:101A6000620B730B20813181DF012115310561F794
:101A70004A835B836C837D838D919C9111979983BD
:101A80008883CD93DC93DF91CF911F910F910895BF
:101A9000041B150B260B370B02831383248335831A
:101AA0004A835B836C837D83109731F799838883A6
:101AB000D093D506C093D406DF91CF911F910F919B
:101AC0000895198218828E819F81A885B9858A839D
:101AD0009B83AC83BD83D093D506C093D406DF919E
:101AE000CF911F910F9108951092D5061092D406B0
:101AF0000895E091D406F091D506309761F08E17E5
:101B00009F0721F40BC08E179F0739F00190F081D9
:101B1000E02D3097C1F70C94100D08950895CF93E0
:101B2000DF93E091D406F091D506309769F0E8177D
:101B3000F90729F42CC08217930749F0F901208195
:101B4000318121153105B9F7DF91CF910895309793
:101B5000F1F0DC012D913C91119731832083ED91BF
:101B6000FC91309789F34281538164817581EC0146
:101B70008A819B81AC81BD81840F951FA61FB71FF1
:101B800082839383A483B583DF91CF910895EC0181
:101B9000E881F981F093D506E093D406E2CFE09195
:101BA000D406F091D506309761F0E817F90721F4D3
:101BB0000AC08E179F0739F00190F081E02D309711
:101BC000C1F780E0089581E00895CF92DF92EF920F
:101BD000FF92CF93DF938091D606882309F45BC0F0
:101BE0008FB7F894C090D6061092D6068FBFD12C2E
:101BF000E12CF12CD701C601880F991FAA1FBB1F2A
:101C0000880F991FAA1FBB1F8C0D9D1DAE1DBF1DE8
:101C10006C017D01CC0CDD1CEE1CFF1CC091D406B8
:101C2000D091D5062097B9F18A819B81AC81BD8185
:101C3000C816D906EA06FB06A0F425C0EC85FD858A
:101C4000CE010995C091D406D091D506209719F1FF
:101C50008A819B81AC81BD81C816D906EA06FB0644
:101C600090F0C81AD90AEA0AFB0A888199819093F0
:101C7000D5068093D4068A859B850197F9F6CE0117
:101C80000E94100DDBCF8C199D09AE09BF098A8314
:101C90009B83AC83BD83DF91CF91FF90EF90DF906A
:101CA000CF90089581E684B98CE38AB915B81BB842
:101CB00010BA80E480937C0087E880937A0080915A
:101CC0007B0085FDFCCF0E94FE0C88E0A82E95E0ED
:101CD000B92EC9E0DDE39924939402E010E028E0F6
:101CE000C22E20E8D22EEE24E394F12C42E0742E92
:101CF00054E6852E0E94060D8091280390912903B9
:101D00008130910509F40CC130F1029799F7809167
:101D10001402811107C160E08AE293E00E94300260
:101D200080912A0390912B03883C910590F080913B
:101D30002803909129038230910509F455C15A9ADC
:101D40008FEF93ED20E3815090402040E1F700C0F9
:101D500000001BB8CFCF5A9A2FEF83EC99E02150A7
:101D600080409040E1F700C000001BB82FEF83ECEB
:101D700099E0215080409040E1F700C000005A9A5D
:101D80002FEF83EC99E0215080409040E1F700C0B4
:101D900000001BB82FEF83EC99E021508040904069
:101DA000E1F700C000005A9A2FEF83EC99E0215030
:101DB00080409040E1F700C000001BB82FEF83EC9B
:101DC00099E0215080409040E1F700C0000015B834
:101DD0001BB880916F00826080936F001092850025
:101DE0001092840010928000B0928100D0938900FC
:101DF000C093880086E19FE00E948F1090930102BB
:101E000080930002019609F492C05A9A8FEF91EEE6
:101E100024E0815090402040E1F700C000001BB852
:101E20008FEF91EE24E0815090402040E1F700C018
:101E300000001BB88FEF91EE24E0815090402040CD
:101E4000E1F700C000005A9A8FEF91EE24E0815034
:101E500090402040E1F700C000001BB88FEF91EEEA
:101E600024E0815090402040E1F700C000001BB802
:101E70008FEF91EE24E0815090402040E1F700C0C8
:101E800000005A9A8FEF91EE24E08150904020405C
:101E9000E1F700C000001BB88FEF91EE24E0815005
:101EA00090402040E1F700C000001BB88FEF91EE9A
:101EB00024E0815090402040E1F700C000005A9A91
:101EC0008FEF91EE24E0815090402040E1F700C078
:101ED00000001BB88FEF97EA21E681509040204028
:101EE000E1F700C000009092020280910002909100
:101EF00001020E94330584E891E40E9439058FE0D5
:101F00000E94B70381E00E94B3036CEE70E081E0B1
:101F10000E943F0578941093290300932803EACE8A
:101F2000ABB8E8CE0E94C70010921402F4CED09253
:101F30000102C092000210920202F0922903E09284
:101F400028035A9A8FEF91EE24E081509040204070
:101F5000E1F700C000001BB88FEF91EE24E0815044
:101F600090402040E1F700C000005A9A8FEF91EEB8
:101F700024E0815090402040E1F700C000001BB8F1
:101F80008FEF91EE24E0815090402040E1F700C0B7
:101F900000005A9A8FEF91EE24E08150904020404B
:101FA000E1F700C000001BB88FEF97EA21E68150EF
:101FB00090402040E1F700C0000080910002909125
:101FC00001020E94330584E891E40E9439058FE004
:101FD0000E94B70381E00E94B3036CEE70E081E0E1
:101FE0000E943F05789486CE909316028093150246
:101FF00070921702809218021092190290921402A5
:102000009ECEA1E21A2EAA1BBB1BFD010DC0AA1F6A
:10201000BB1FEE1FFF1FA217B307E407F50720F051
:10202000A21BB30BE40BF50B661F771F881F991FCC
:102030001A9469F760957095809590959B01AC0115
:10204000BD01CF010895EE0FFF1F0024001C0BBE41
:102050000790F691E02D09948F929F92AF92BF92D4
:10206000CF92DF92EF92FF92CF93DF93EC016881E2
:1020700079818A819B81611571058105910521F422
:1020800064E279ED8BE597E02DE133EF41E050E03C
:102090000E94B81049015A019B01AC01A7EAB1E4C2
:1020A0000E94D7106B017C01ACEEB4EFA501940146
:1020B0000E94E510DC01CB018C0D9D1DAE1DBF1DE6
:1020C000B7FF03C00197A109B04888839983AA8309
:1020D000BB839F77DF91CF91FF90EF90DF90CF9000
:1020E000BF90AF909F908F9008950C942C1083E038
:1020F00092E00C942C10A0E0B0E080930302909347
:102100000402A0930502B09306020895FB01DC01CE
:1021100002C001900D9241505040D8F70895A8E1B7
:10212000B0E042E050E00C949C100E94AA10272FCF
:102130000C94AB10DC01CB01FC01F999FECF06C079
:10214000F2BDE1BDF89A319600B40D924150504075
:10215000B8F70895262FF999FECF1FBA92BD81BD19
:1021600020BD0FB6F894FA9AF99A0FBE0196089519
:10217000052E97FB1EF400940E94CF1057FD07D048
:102180000E94011007FC03D04EF40C94CF10509520
:102190004095309521953F4F4F4F5F4F0895909553
:1021A0008095709561957F4F8F4F9F4F08950E9446
:1021B000EA10A59F900DB49F900DA49F800D911DD6
:1021C00011240895B7FF0C94D7100E94D710821BDA
:1021D000930B0895A29FB001B39FC001A39F700D00
:1021E000811D1124911DB29F700D811D1124911D1F
:0621F0000895F894FFCFF2
:1021F6000880010100000003081A4080BEE6F7FCD3
:042206000020210093
:00000001FF
