:100000000C9490000C94AF000C94AF000C94AF00D3
:100010000C94AF000C94AF000C94AF000C94AF00A4
:100020000C94AF000C94AF000C94AF000C94AF0094
:100030000C94AF000C9441020C94AF000C94AF00F0
:100040000C94AF000C946E010C94AF000C94AF00B4
:100050000C94AF000C94AF000C94AF000C94AF0064
:100060000C94AF000C94AF000C94AF000C94AF0054
:100070000C94AF000C94AF000C94AF000C94AF0044
:100080000C94AF000C94AF000C94AF000C94AF0034
:100090000C94AF000C94AF000C94AF000C94AF0024
:1000A0000C94AF000C94AF000C948D020C94AF0034
:1000B0000C94AF000C94AF000C94AF000C94AF0004
:1000C0000C94AF000C94AF000C94AF000C94AF00F4
:1000D0000C94AF000C94AF000C94AF000C94AF00E4
:1000E0000C94AF000C94AF000C94AF000C94AF00D4
:1000F0000C94AF000C94AF000C94AF000C94AF00C4
:100100000C94AF000C94AF000C94AF000C94AF00B3
:100110000C94AF000C94AF000C94AF000C94AF00A3
:1001200011241FBECFEFD1E4DEBFCDBF12E0A0E0AF
:10013000B2E0EEE5FEE100E00BBF02C007900D92D9
:10014000A431B107D9F727E0A4E1B2E001C01D92C4
:10015000AD30B207E1F70E94860D0C942D0F0C9480
:10016000000085B190E2892785B980910202811152
:1001700007C081E090E090932903809328030895BD
:1001800082E090E09093290380932803089585B13D
:1001900090E4892785B9E7E1F3E0A5E1B2E08D912C
:1001A0009C9111979683858381E0878380878187DF
:1001B00088E192E09387828712968C91848781EB05
:1001C00090E09687858783E090E090932903809361
:1001D0002803CF010C94FF04DC0195B180E498273B
:1001E00095B91796ED91FC9118979081973109F484
:1001F00048C09A3031F09B30D1F0933381F181E0E7
:100200000895209128033091290322303105B9F750
:10021000309316022093150282E080931702909388
:10022000180281E08093190280931402E8CF209194
:100230002803309129032230310509F71B968C9150
:10024000309316022093150222E020931702909318
:1002500018028093190281E080931402D0CF91811B
:10026000911107C085B91BB81796ED91FC911897AD
:100270009181913051F1923011F615B884E08BB92B
:10028000BECF61817281709301026093000286E1AA
:100290009FE00E94C90E109281001092910081E0AF
:1002A0008093020280E685B988E08BB9F8942FEF3D
:1002B00081EE94E0215080409040E1F700C00000C2
:1002C00010922903109228039ACF80E285B91BB8B7
:1002D0001796ED91FC9118979181CDCF1F920F92B7
:1002E0000FB60F9211240BB60F922F933F934F939B
:1002F0005F936F937F938F939F93AF93BF93EF938E
:10030000FF931092850010928400809128039091B1
:100310002903019771F482E090E090931602809394
:10032000150281E0809317028EEE809318020E94DE
:10033000C700FF91EF91BF91AF919F918F917F91F6
:100340006F915F914F913F912F910F900BBE0F9046
:100350000FBE0F901F90189514BE0FB6F894A89575
:1003600080916000886180936000109260000FBEF1
:10037000E1E6F0E080E88083108278940C945002EB
:1003800090E00C946502660F771F881F991F660F17
:10039000771F881F991F660F771F881F991F660F89
:1003A000771F881F991F660F771F881F991F28EED8
:1003B00033E040E050E00E943E0EDA01C901232BF9
:1003C000242B252B09F45CC0492F5A2F6B2F77273C
:1003D000282F109270008091B60080628093B60042
:1003E0001092B0001092B1001092B2008091B6004D
:1003F0008F71E1F787E087BB8093B1006FEF37E043
:1004000010922A034115510509F5222321F1209369
:10041000B300809170008260809370008091B6007C
:100420008F71E1F733BF889513BE9FB7F894809121
:100430002A039FBF882321F34115510551F04150F4
:10044000510910922A0341155105F9F26093B30046
:10045000E0CF10922A038091B6008F71E1F71092DD
:1004600070001092B10083B5826083BD8091B600A8
:100470008F71E1F78091B6008F7D8093B60008956B
:1004800008951F920F920FB60F9211248F9381E05F
:1004900080932A038F910F900FBE0F901F90189595
:1004A0001092D40680E29EE49093A9008093A80065
:1004B000E1EAF0E088E08083808182608083E2E787
:1004C000F0E080818260808308952091A4003091C3
:1004D000A500820F931F9093AB008093AA002091F8
:1004E000AA003091AB008091A8009091A9008217DA
:1004F000930770F42091A8003091A9008091AA0080
:100500009091AB00821B930B9093AB008093AA0059
:1005100084E089BBCA9BFECF08951F920F920FB64D
:100520000F9211248F938091D4068F5F8093D4060D
:100530008F910F900FBE0F901F90189583E08093BE
:100540004201809141018F718830D9F78093420137
:10055000809141018F718830D9F78FEF80934F01DF
:1005600080912B03882381F083E080934201809166
:1005700041018F718830D9F786E1809342018091E3
:1005800041018F718631D9F70895809139018160D9
:100590008093390110922B0381E090E09093AD039A
:1005A0008093AC0383E080934201809141018F717D
:1005B0008830D9F780934201809141018F71883052
:1005C000D9F780914C01806880934C010895809305
:1005D0002B030C949E02982F9F71E8E4F1E0808138
:1005E000807E892B80830895CF93DF9300D0CDB791
:1005F000DEB79A838983809362018A818093630145
:100600000F900F90DF91CF910895CF93DF9300D09B
:10061000CDB7DEB79A838983809360018A81809306
:10062000610189819A81890F80936D010F900F90EC
:10063000DF91CF910895982F9F70E5E4F1E08081DC
:10064000807F892B8083089583E08093420180918D
:1006500041018F718830D9F7809342018091410127
:100660008F718830D9F78091390182608093390188
:1006700082E090E09093AD038093AC030895E9E3AA
:10068000F1E080818D7F80830E949E0281E090E076
:100690009093AD038093AC03089523E0209342012F
:1006A000209141012F712830D9F729E1209342018F
:1006B000209141012F712931D9F72FEF20934F015C
:1006C00022E0260F20938001662361F0DC01615057
:1006D00070E06E577E4FE1E8F1E08D918193E6176F
:1006E000F707D9F783E090E09093AD038093AC03D4
:1006F00082E0809342010895FB01AB01405F5F4FB0
:10070000219120933F01E417F507D1F710923C01A6
:10071000DC019C01205F3F4FFC01819180933E01F1
:10072000E217F307D1F780913C01806880933C0188
:1007300080913D0180FFFCCF80913E018D93EA17AF
:10074000FB07D1F70895CF9383E080934201809116
:1007500041018F718830D9F786E080934201809102
:1007600041018F718630D9F780914F01806180936C
:100770004F011092470180914F0184FFFCCFC0913F
:1007800047010E949E0286EA8C0FCF9108951F9325
:10079000CF93DF9300D000D01F92CDB7DEB780910A
:1007A000AC039091AD03029709F440C080914F01D2
:1007B00083FF45C060917B01462F50E080E090E0D0
:1007C00020E0FC01E058FE4F3081845D9C4FFC012D
:1007D00030832F5F822F90E04817590794F78CE2FF
:1007E00093E09A83898362506B83445D5C4FFA0186
:1007F00080818C83809147018A558D83CE0101963B
:100800000E947F06809141018F718631D9F78091D6
:100810004F01886080934F0180914C018F778093C6
:100820004C0180914C01806880934C010F900F9097
:100830000F900F900F90DF91CF911F9108958091AD
:100840004F0186FFF3CF809141018F71893131F0E3
:1008500080914F01806480934F01E8CF1091420155
:1008600012951695177029F0133079F0153079F03C
:1008700013E00E949E0281E090E09093AD0380938C
:10088000AC03812F0E947D0BE3CF11E0F2CF12E089
:10089000F0CF1092D9061092DA061092D606109276
:1008A000D50610920C0710920B07EBEDF6E01192B3
:1008B000119286E0EB3FF807D1F70E94930A0E945D
:1008C0005C060E94C0050E94FA040C94C90890932B
:1008D000D6068093D5060C9405039093D806809392
:1008E000D7060C94F402E82FF0E0EE0FFF1FE5525C
:1008F000F94F71836083089581E020910B07309157
:100900000C07232B09F480E00895E5EDF6E086A9B5
:1009100097A9019697AB86AB0895E5EDF6E086A919
:1009200097A9019797AB86AB08950C9424030C9478
:100930003F03CF93DF93CDB7DEB729970FB6F89477
:10094000DEBF0FBECDBF99E0E7E0F2E0DE01119619
:1009500001900D929A95E1F78931E8F021E092E358
:10096000891770F0975E2F5F9A3FD1F78FEF299626
:100970000FB6F894DEBF0FBECDBFDF91CF910895C3
:10098000822F90E021E030E02C0F3D1F820F931F5B
:10099000FC018081ECCF80E090E0F4CF0E94B606AD
:1009A0000E949E0B0E9421050C942B09E091AE033E
:1009B000F091AF03309781F0228133818217930742
:1009C00031F40CC0228133812817390739F00190A6
:1009D000F081E02D3097B1F70C94FC05DC01AD57A8
:1009E000BF4F2C91278713962C91208B22E02483D4
:1009F0000C94FC051092AF031092AE030895FC0115
:100A0000148217861382128280910B0790910C0733
:100A1000019690930C0780930B078091AE03909101
:100A2000AF03009739F091838083F093AF03E09395
:100A3000AE03089511821082F093AF03E093AE03EA
:100A400008950F931F93CF93DF93E091AE03F0913E
:100A5000AF03309751F1EF018C81882359F1823037
:100A6000F9F4EC17FD0711F484C0FC018081918139
:100A7000C817D907D1F788819981918380838091A4
:100A80000B0790910C07019790930C0780930B072D
:100A9000ED85FE85CE01DF91CF911F910F910994D5
:100AA0000990D881C02D2097B9F6DF91CF911F9181
:100AB0000F9108950E94CB058C01009709F451C055
:100AC0009B838A8381E08C83F801E957FF4F86ED91
:100AD00094E0918380839985319792FB882780F9F0
:100AE0008083F801838590FB80F993FB222720F90E
:100AF00020FB82F99695917090FB81F98387809114
:100B0000D9068F5F8093D90684878091D50690910E
:100B1000D606968785878D819E81908B878798855D
:100B20009F708189807F892B818B9F819295907F97
:100B30008F70892B818BEF57FF4F4C8550E06A8572
:100B40007B85808191810E94BA0EF80181819C850C
:100B5000890F8183C801DF91CF911F910F910C9470
:100B6000B80A82E08C838F87DF91CF911F910F911C
:100B70000895888199819093AF038093AE037FCFCE
:100B80001092B003109239041092C20410924B05D7
:100B90001092D4050895E0EBF3E080E090E020812E
:100BA000222349F00196E757FF4F85309105B9F7A9
:100BB00080E090E0089549E8489F9001499F300DFA
:100BC0001124C90180559C4FFC0111924A95E9F707
:100BD00040E1FC014183EF57FF4F2E533C4F3183DF
:100BE000208320910B0730910C072F5F3F4F3093EC
:100BF0000C0720930B070895FC011082E5EDF6E049
:100C000086A997A9019797AB86AB08950097B9F08D
:100C1000FC01E757FF4F86E0ED35F80738F00BC0D1
:100C2000E757FF4F86E0ED35F80728F480818823E9
:100C3000B9F3CF010895E0E0F0E0CF010895E0EBD3
:100C4000F3E0F4CFFC01DC01AD57BF4F1C92A5EDE2
:100C5000B6E014969C9114979F5F14969C931497FA
:100C600094878D919C91968785870895AC01E0E7E4
:100C7000F6E020E09081992319F09150908321E0D3
:100C8000359686E0E23AF807A9F7211101C00895E8
:100C9000CA010C94AD0CDC0119962C9119972223F2
:100CA00039F01796ED91FC9118972081222311F0CD
:100CB00080E008950C944E0BE0E7F6E01082359644
:100CC00086E0E23AF807D1F784E690E0A0E0B0E0F1
:100CD0008093630690936406A0936506B0936606BE
:100CE000109268061092670686E396E090936A0673
:100CF000809369066BE476E080E00C947304CF93F4
:100D0000DF93EC01E881F9818181883819F0DF9166
:100D1000CF91089580818F7D8134C9F78A81803198
:100D2000B0F30E94CB05009791F320E2FC012083F1
:100D30004A814183ED57FF4F2B81208331962C81CF
:100D4000208350E0688179810296DF91CF910C94E5
:100D5000BA0E80936B060895611104C024E2FC0171
:100D60002083089522E2FC01208308955F926F9210
:100D70007F928F929F92AF92BF92CF92DF92EF922B
:100D8000FF920F931F93CF93DF93CDB7DEB72C97CE
:100D90000FB6F894DEBF0FBECDBF00E010E054E206
:100DA000F52E62E2662E71E2572E77247394EBE003
:100DB000EE2E88248394912CC8010E9406068C0193
:100DC000892BA1F0D8018C91813209F410C120F156
:100DD000823209F496C0843279F7C8010E94FC057A
:100DE000C8010E9406068C01892B61F72C960FB66C
:100DF000F894DEBF0FBECDBFDF91CF911F910F9151
:100E0000FF90EF90DF90CF90BF90AF909F908F902A
:100E10007F906F905F900895803271F6F801F082B4
:100E2000838583FDC9CF258136812F3F3F4F09F44C
:100E300050C1F801C784D088FFEFCF16DF0609F450
:100E40005DC1A090D506B090D606D8011D966D91D3
:100E50007C911E97A616B70609F4AECFACE6B6E0B5
:100E6000E0E7F6E080E090E020E030E00DC04D915A
:100E70005C9111976417750709F448C1019615969E
:100E800035968A30910551F040814111F0CF9D0196
:100E90000196159635968A309105B1F721153105E1
:100EA00009F48ACFD90111967C936E93F801848559
:100EB00012968C93129713967C9213971496EC9239
:100EC0008DE596E00E94AD0CA090D506B090D606B8
:100ED000D8011F96CD90DC905097F80187819085BE
:100EE000019609F435C1CA14DB0421F0CD20C09469
:100EF00009F062CFF801838581FD3EC1F80160826F
:100F00005BCF10926B06D80151968C915197982F18
:100F100092959F70E92FF0E0EE0FFF1FE552F94F19
:100F20000190F081E02D309709F4EBC01D962D91D2
:100F30003C911E973A8329831F964D915C9150975F
:100F40005C834B838F708D839E83AF57BF4F8D9192
:100F50009C9199878887B8016E5F7F4F861B970B9E
:100F6000D80111969C911197981B9A87AD57BF4F46
:100F70008C918B8711968C918C87D8011B969C91B4
:100F8000892F837092FF87C060E2862B93FF7BC01E
:100F900090E4892B4F3F5F4F09F47BC090E0892B91
:100FA000D80119964D915C911A972417350709F4C9
:100FB0008EC090E0892BD80115962D913C91169703
:100FC0002F3F3F4F09F481C090E0892B8F83CE01E2
:100FD00001960995F801938590FD0EC02781308513
:100FE0002F3F3F4F09F459C0D801FC92E5CE60E095
:100FF000C8010E94D908E0CE278130852F3F3F4F9E
:1010000009F44CC0D80115962D913C9116972F3FAD
:101010003F4F51F32091D5063091D6062F3F3F4FD9
:1010200019F3882309F30E94CB056C010097E1F2C4
:101030000E942206F60181818D5F8183E957FF4F6F
:1010400011821082D8011B968C911B978695817016
:10105000F601938580FB91F993871D968D919C9164
:101060001E97908B8787EF57FF4F0190F081E02DFF
:10107000108280916B0682831C968C918183C601BD
:101080000E94B80AB1CF90E0892B4F3F5F4F09F023
:1010900085CF94E084CF60E078CF80E02091D506C2
:1010A0003091D606F801478550892417350709F095
:1010B000A9CF93FDA7CF85819681019609F494CF9E
:1010C0002F3F3F4F09F0AFCF8FCF90E17ECF98E019
:1010D00071CFD8011F962D913C9150974091D50624
:1010E0005091D6064217530721F02F3F3F4F09F08A
:1010F00063CE81FF08C0F80150825ECE80FFA1CE92
:101100005BCE80E067CFD8016C9256CEF801348573
:10111000FC01EE0FFF1FEE0FFF1FE80FF91FE45950
:10112000F94F2281231B283048F53381832F90E02B
:10113000022E02C0959587950A94E2F780FD3CCE79
:10114000C40101C0880F2A95EAF7832B8383C5CE9B
:10115000AC14BD0409F4CECED8011B968C9182FD4F
:10116000C5CEC8010E94060BA090D506B090D60649
:10117000F801C784D088B7CE50821ECE32838381D7
:10118000219501C0880F2A95EAF781608383E48264
:10119000A4CE1092B3061092B2061092B106089532
:1011A000FC0190E1ABEFB6E001900D929A95E1F76A
:1011B0000895611109C021E3FC0120838091B306E9
:1011C0008F5F8093B306089520E3FC012083809114
:1011D000B3068F5F8093B3060895CF93DF93C091DA
:1011E000B106D091B206FE01EF57FF4FA081B18149
:1011F0006091AF06862F90E05091B006352F5131A7
:1012000010F130E14091AE06A80FB91FEEE9F6E00B
:1012100090E08C91208182278D93411102C0208122
:10122000822780839F5F31963913F3CF630F6093DA
:10123000AF06531B5093B006511108C084E3888356
:10124000DF91CF9108955111DDCFF0CF82E38883F4
:10125000DF91CF910895CF92DF92EF92FF920F939B
:101260001F938091B306882369F08091B106909115
:10127000B2060097A9F0FC0120812433B1F022339B
:1012800009F464C01F910F91FF90EF90DF90CF9011
:101290000895FC01208130ED320F323008F470C027
:1012A0000E9406060097A9F7EDCF2091AF06EF57F1
:1012B000FF4F0190F081E02DE20FF11D40919E065D
:1012C00050919F066091A0067091A1060091A20620
:1012D0001091A3062091A4063091A506402751271E
:1012E000622773270091A6061091A7062091A806F1
:1012F0003091A90640275127622773270091AA063B
:101300001091AB062091AC063091AD0640275127D5
:10131000622773272091AE06211127C021E0C080EB
:10132000D180E280F380C416D506E606F70609F000
:1013300020E0622F0E94AC061092B2061092B10615
:101340008091B30681508093B3069CCF23E3FC01C8
:1013500020836BEF76E08EE996E01F910F91FF906E
:10136000EF90DF90CF900C94400C408351836283C8
:101370007383FC0121812C5F21830E94790BDCCFD8
:101380009093B2068093B106448550E060E070E02F
:1013900040939E0650939F066093A0067093A1060B
:1013A0004785508960E070E0BA01552744273189AC
:1013B00032953F70432B4093A2065093A30660934F
:1013C000A4067093A5064585568560E070E0BA01D5
:1013D0005527442731893F70432B4093A6065093ED
:1013E000A7066093A8067093A9064581568160E020
:1013F00070E0BA01552744273385432B4093AA0652
:101400005093AB066093AC067093AD062133D1F0D8
:101410003181FC01EF57FF4F40815181BC016E5F6C
:101420007F4F461B570B341B3093B0061092AF060C
:1014300031E0203309F030E03093AE0622E3FC01C6
:10144000208320CFFC01318134503183E2CF0F93D0
:101450001F93CF93DF93EC0110E080E090E003E175
:101460000E9406060097A9F0FC0120812131C1F7F6
:10147000EC57FF4F20813181215031093183208386
:10148000232B71F4FC01008311E00E9406060097F3
:1014900059F7111107C0DF91CF911F910F91089556
:1014A00011E0DECFCE01DF91CF911F910F910C940F
:1014B000AD0CFF920F931F93CF93DF93EC0110E0DD
:1014C00080E090E027E1F22E00E10E9406060097FE
:1014D000C1F0FC0120812631C1F7EC57FF4F20817C
:1014E00031812150310931832083232B91F4FC0178
:1014F000F082ED57FF4F008311E00E94060600972F
:1015000041F7111108C0DF91CF911F910F91FF900A
:10151000089511E0DACFCE01DF91CF911F910F91A5
:10152000FF900C94AD0C1092D1061092D006E2EC14
:10153000F6E082E390E0A0E0B0E086839783A087A6
:10154000B1871386128689E59AE095878487E4EB54
:10155000F6E08AE090E0A0E0B0E086839783A08781
:10156000B1871386128687E29AE09587848708956B
:10157000CF93DF93EC01FC01EA57FF4F808181FD9F
:1015800003C09B8591FD31C092E19883FE01ED5728
:10159000FF4F108280FF22C08FEF9FEF9E838D83CD
:1015A0002F85388938872F838091D5069091D6066C
:1015B0009A8789878091DA068F5F8093DA068C8319
:1015C0002F3F3F4FA9F081E698E89B838A83CC5751
:1015D000DF4F19821882DF91CF9108958091D7064D
:1015E0009091D8069E838D83DBCF90E19883CECFF8
:1015F00081E498E89B838A830E94AB0ECC57DF4F2F
:1016000087709927019699838883E5CF0F931F935D
:10161000CF93DF938C010E94CB05EC01892BC9F19C
:1016200082E18883F80181818983FE01ED57FF4FB4
:1016300010820E94AB0EFE01EC57FF4F8770992776
:10164000019691838083339611821082F801418143
:1016500050E0B8016E5F7F4FCE0102960E94BA0E35
:1016600081E498E89B838A838FEF9FEF98878F832D
:10167000F801858196819E838D838091D506909116
:10168000D6069A8789878091DA068F5F8093DA067B
:101690008C83DF91CF911F910F910895CF93DF93AA
:1016A000FC012185233021F080E0DF91CF91089566
:1016B000C781D08580E090E00E9406060097A1F3E4
:1016C000FC0120812631C1F7348529813213F4CF02
:1016D00027E120838A579F4F2A81FC01208381E0E4
:1016E000E4CF27E1FC0120838D579F4FFC016083ED
:1016F000089522E1FC0120830895A091D006B091C5
:10170000D1068330C8F4E82FF0E0E05FFD4F808120
:10171000FD01ED57FF4F808385E18C931092D10638
:101720001092D00680910B0790910C07019790932F
:101730000C0780930B07089581E0EACFBF92CF9208
:10174000DF92EF92FF920F931F93CF93DF93C0E04E
:10175000D0E084E1C82E97E1F92E26E1B22E05E112
:1017600010E033E1E32E41E1D42ECE010E940606C3
:10177000EC01892BB9F08881833199F1E8F480314B
:1017800059F1823191F7FE01EC57FF4F8081918131
:10179000892B09F05EC0E882CE010E940606EC01AA
:1017A000892B49F7DF91CF911F910F91FF90EF9017
:1017B000DF90CF90BF900895853171F18731A9F600
:1017C000FE01E957FF4F0190F081E02DCE013097E7
:1017D00009F445C00995C9CF61E0CE010E94D9083E
:1017E000C4CF8091D0069091D106892B09F0BDCF4E
:1017F000D093D106C093D006C8826981CE010296EB
:101800000E944D0380910B0790910C0701969093D5
:101810000C0780930B07A9CFFE01ED57FF4F808186
:10182000811109C02D853E858091D5069091D606FF
:101830002817390711F0F88298CF8B8580FFFBCFEE
:10184000B88231961183008382EC96E00E94AD0C41
:101850008CCFD88284EB96E00E94AD0C86CF0E949C
:10186000FC0583CF0E94AC010E94A80C0E94C50217
:101870000C9449040E94C7030E94CE040C94190DD5
:101880000E947C030C94ED080F931F93CF93DF937A
:10189000EC018091D2069091D306009709F445C0DF
:1018A0004E815F8168857985FC01A0E0B0E001C0D0
:1018B000F9010281138124813581401751076207A4
:1018C0007307D0F0401B510B620B730B20813181E9
:1018D000DF012115310561F74A835B836C837D83CA
:1018E0008D919C91119799838883CD93DC93DF919F
:1018F000CF911F910F910895041B150B260B370BE9
:1019000002831383248335834A835B836C837D83C3
:10191000109731F799838883D093D306C093D2066A
:10192000DF91CF911F910F910895198218828E81B6
:101930009F81A885B9858A839B83AC83BD83D0931F
:10194000D306C093D206DF91CF911F910F910895D6
:101950001092D3061092D2060895E091D206F0912B
:10196000D306309761F08E179F0721F40BC08E17B6
:101970009F0739F00190F081E02D3097C1F70C946A
:10198000440C08950895CF93DF93E091D206F0912F
:10199000D306309769F0E817F90729F42CC08217AD
:1019A000930749F0F9012081318121153105B9F7FB
:1019B000DF91CF9108953097F1F0DC012D913C91AA
:1019C000119731832083ED91FC91309789F3428107
:1019D000538164817581EC018A819B81AC81BD81D9
:1019E000840F951FA61FB71F82839383A483B5839B
:1019F000DF91CF910895EC01E881F981F093D3064E
:101A0000E093D206E2CFE091D206F091D306309770
:101A100061F0E817F90721F40AC08E179F0739F023
:101A20000190F081E02D3097C1F780E0089581E0CA
:101A30000895CF92DF92EF92FF92CF93DF93809140
:101A4000D406882309F45BC08FB7F894C090D406FD
:101A50001092D4068FBFD12CE12CF12CD701C601F6
:101A6000880F991FAA1FBB1F880F991FAA1FBB1F92
:101A70008C0D9D1DAE1DBF1D6C017D01CC0CDD1CB0
:101A8000EE1CFF1CC091D206D091D3062097B9F16D
:101A90008A819B81AC81BD81C816D906EA06FB0606
:101AA000A0F425C0EC85FD85CE010995C091D20634
:101AB000D091D306209719F18A819B81AC81BD8199
:101AC000C816D906EA06FB0690F0C81AD90AEA0A2F
:101AD000FB0A888199819093D3068093D2068A85E8
:101AE0009B850197F9F6CE010E94440CDBCF8C193F
:101AF0009D09AE09BF098A839B83AC83BD83DF91B7
:101B0000CF91FF90EF90DF90CF90089580E684B959
:101B10008CE38AB915B81BB810BA0E94320C88E061
:101B2000A82E95E0B92EC9E0DDE302E010E028E040
:101B3000C22E20E8D22EEE24E394F12C42E0742E43
:101B40005BE0852E99249A940E943A0C8091280398
:101B5000909129038130910509F464C050F10297F6
:101B600099F780911402811177C078995DC0799BB3
:101B7000EBCF8FEF91EE24E0815090402040E1F7D1
:101B800000C00000799BE0CF809128039091290349
:101B900082309105C9F690931602809315027092D7
:101BA0001702809218029092190281E08093140229
:101BB000CBCF15B81BB880916F00826080936F0007
:101BC000109285001092840010928000B0928100E3
:101BD000D0938900C093880086E19FE00E94C30EE5
:101BE00090930102809300028F3F2FEF9207C9F17B
:101BF00021E02093020210932903009328030E94FE
:101C0000670484E891E40E946D048FE00E94EB0277
:101C100081E00E94E7026CEE70E081E00E947304B4
:101C2000789492CFABB890CF8FEF91EE24E08150B3
:101C300090402040E1F700C00000789B98CF6FEF04
:101C40007FEF86E19FE00E94C90E1092020210927F
:101C500029031092280378CF0E94C7001092140223
:101C600084CFD0920102C092000210920202F09240
:101C70002903E092280388E090E8C1CFA1E21A2E60
:101C8000AA1BBB1BFD010DC0AA1FBB1FEE1FFF1F20
:101C9000A217B307E407F50720F0A21BB30BE40B70
:101CA000F50B661F771F881F991F1A9469F76095B7
:101CB0007095809590959B01AC01BD01CF01089571
:101CC0008F929F92AF92BF92CF92DF92EF92FF924C
:101CD000CF93DF93EC01688179818A819B816115C3
:101CE00071058105910521F464E279ED8BE597E0BA
:101CF0002DE133EF41E050E00E94EC0E49015A0122
:101D00009B01AC01A7EAB1E40E940B0F6B017C01BF
:101D1000ACEEB4EFA50194010E94190FDC01CB01D8
:101D20008C0D9D1DAE1DBF1DB7FF03C00197A109FE
:101D3000B04888839983AA83BB839F77DF91CF9133
:101D4000FF90EF90DF90CF90BF90AF909F908F90DB
:101D500008950C94600E83E092E00C94600EA0E075
:101D6000B0E08093030290930402A0930502B09325
:101D700006020895FB01DC0102C001900D92415062
:101D80005040D8F70895A8E1B0E042E050E00C944C
:101D9000D00E0E94DE0E272F0C94DF0EDC01CB014B
:101DA000FC01F999FECF06C0F2BDE1BDF89A31966B
:101DB00000B40D9241505040B8F70895262FF9997C
:101DC000FECF1FBA92BD81BD20BD0FB6F894FA9A1E
:101DD000F99A0FBE01960895052E97FB1EF4009404
:101DE0000E94030F57FD07D00E943E0E07FC03D050
:101DF0004EF40C94030F50954095309521953F4F2C
:101E00004F4F5F4F089590958095709561957F4FE6
:101E10008F4F9F4F08950E941E0FA59F900DB49F56
:101E2000900DA49F800D911D11240895B7FF0C946F
:101E30000B0F0E940B0F821B930B0895A29FB00102
:101E4000B39FC001A39F700D811D1124911DB29FEE
:0E1E5000700D811D1124911D0895F894FFCF8F
:101E5E000880010100000003081A4080BEE6F7FC6E
:041E6E00002021002F
:00000001FF
