:100000000C9490000C94AF000C94AF000C94AF00D3
:100010000C94AF000C94AF000C94AF000C94AF00A4
:100020000C94AF000C94AF000C94AF000C94AF0094
:100030000C94AF000C9457010C94AF000C94AF00DB
:100040000C94AF000C94AF000C94AF000C94AF0074
:100050000C94AF000C94AF000C94AF000C94AF0064
:100060000C94AF000C94AF000C94AF000C94AF0054
:100070000C94AF000C94AF000C94AF000C94AF0044
:100080000C94AF000C94AF000C94AF000C94AF0034
:100090000C94AF000C94AF000C94AF000C94AF0024
:1000A0000C94AF000C94AF000C94A3010C94AF001F
:1000B0000C94AF000C94AF000C94AF000C94AF0004
:1000C0000C94AF000C94AF000C94AF000C94AF00F4
:1000D0000C94AF000C94AF000C94AF000C94AF00E4
:1000E0000C94AF000C94AF000C94AF000C94AF00D4
:1000F0000C94AF000C94AF000C94AF000C94AF00C4
:100100000C94AF000C94AF000C94AF000C94AF00B3
:100110000C94AF000C94AF000C94AF000C94AF00A3
:1001200011241FBECFEFD1E4DEBFCDBF12E0A0E0AF
:10013000B2E0E6EDFCE100E00BBF02C007900D92DB
:10014000A031B107D9F715E0A0E1B2E001C01D92DE
:10015000A43FB107E1F70E94AE0C0C94690E0C9419
:10016000000080E28BB900001BB800C000C0000096
:10017000089580E28BB900C000C000001BB80000E9
:10018000089514BE88E10FB6F89480936000109231
:1001900060000FBEE1E6F0E080E880831082789492
:1001A0000C94660190E00C947B01DC01CB01880F7C
:1001B000991FAA1FBB1F880F991FAA1FBB1F880F5B
:1001C000991FAA1FBB1F880F991FAA1FBB1FBC0125
:1001D000CD01660F771F881F991F28EE33E040E09E
:1001E00050E00E94A30DDA01C901232B242B252BFB
:1001F00009F45CC0492F5A2F6B2F7727282F1092B4
:1002000070008091B60080628093B6001092B000BA
:100210001092B1001092B2008091B6008F71E1F798
:1002200087E087BB8093B1006FEF37E01092110237
:1002300041155105F9F06093B30080917000826020
:10024000809370008091B6008F71E1F733BF88957D
:1002500013BE9FB7F894809111029FBF882331F39A
:100260004115510509F141505109109211024115F2
:10027000510509F7222319F02093B300DECF8091B6
:10028000B6008F71E1F7109270001092B10083B543
:10029000826083BD8091B6008F71E1F78091B600D6
:1002A0008F7D8093B600089520E0C0CF08951F92FF
:1002B0000F920FB60F9211248F9381E08093110259
:1002C0008F910F900FBE0F901F9018951092BB0545
:1002D00080E29EE49093A9008093A800E1EAF0E018
:1002E00088E08083808182608083E2E7F0E0808123
:1002F0008260808308952091A4003091A500820F30
:10030000931F9093AB008093AA002091AA00309194
:10031000AB008091A8009091A9008217930770F418
:100320002091A8003091A9008091AA009091AB0083
:10033000821B930B9093AB008093AA0084E089BB4F
:10034000CA9BFECF08951F920F920FB60F921124F1
:100350008F938091BB058F5F8093BB058F910F902A
:100360000FBE0F901F90189583E0809342018091FB
:1003700041018F718830D9F780934201809141010A
:100380008F718830D9F78FEF80934F0180911202DF
:10039000882381F083E080934201809141018F7135
:1003A0008830D9F786E180934201809141018F71B5
:1003B0008631D9F7089580913901816080933901A0
:1003C0001092120281E090E0909394028093930245
:1003D00083E080934201809141018F718830D9F789
:1003E00080934201809141018F718830D9F78091CB
:1003F0004C01806880934C010895809312020C9404
:10040000B4018F71E8E4F1E09081907E892B8083C4
:100410000895CF93DF9300D0CDB7DEB79A83898359
:10042000809362018A81809363010F900F90DF9126
:10043000CF910895CF93DF9300D0CDB7DEB79A83E5
:100440008983809360018A81809361019A81898187
:10045000890F80936D010F900F90DF91CF910895D8
:100460008F70E5E4F1E09081907F892B808308957F
:1004700083E080934201809141018F718830D9F7E8
:1004800080934201809141018F718830D9F780912A
:10049000390182608093390182E090E09093940268
:1004A000809393020895E9E3F1E080818D7F80835A
:1004B0000E94B40181E090E09093940280939302B3
:1004C000089523E020934201209141012F712830AB
:1004D000D9F729E120934201209141012F7129315F
:1004E000D9F72FEF20934F0122E0260F20938001B0
:1004F000662371F0FC016150862F90E001968E0F0B
:100500009F1FA1E8B1E021912D93E817F907D9F7D2
:1005100083E090E0909394028093930282E0809332
:1005200042010895FB01AB01405F5F4F2191209391
:100530003F01E417F507D1F710923C01FC0140960A
:10054000DF012D9120933E01A817B907D1F7209123
:100550003C01206820933C0120913D0120FFFCCF0D
:1005600020913E0121938E179F07D1F70895CF93D5
:1005700083E080934201809141018F718830D9F7E7
:1005800086E080934201809141018F718630D9F7D6
:1005900080914F01806180934F01109247018091BB
:1005A0004F0184FFFCCFC09147010E94B40186EA4D
:1005B0008C0FCF910895CF93DF9300D000D000D05F
:1005C000CDB7DEB78091930290919402029709F41F
:1005D00040C080914F0183FF45C060917B01462F51
:1005E00050E080E090E020E0FC01E058FE4F3081D8
:1005F000FC01ED5EFD4F30832F5F822F90E04817A6
:10060000590794F783E192E09A83898362506B8360
:10061000FA01ED5EFD4F80818C83809147018A5500
:100620008D83CE0101960E948F05809141018F71CB
:100630008631D9F780914F01886080934F01809176
:100640004C018F7780934C0180914C01806880939E
:100650004C0126960FB6F894DEBF0FBECDBFDF91DA
:10066000CF91089580914F0186FFF3CF8091410192
:100670008F71893131F080914F01806480934F01F7
:10068000E8CF8091420182958695877029F083306A
:1006900081F0853081F083E08E830E94B40121E0F7
:1006A00030E030939402209393028E810E94910A4D
:1006B000E2CF81E0F1CF82E0EFCF1092C00510923F
:1006C000C1051092BD051092BC051092F305109261
:1006D000F205E2ECF5E01192119285E0E23EF807B6
:1006E000D1F70E94A7090E946C050E94D1040E94C4
:1006F00005040C94E0079093BD058093BC050C9411
:100700001A029093BF058093BE050C940902E82F4E
:10071000F0E0EE0FFF1FEE53FA4F718360830895F0
:1007200081E02091F2053091F305232B09F480E05C
:100730000895ECEBF5E086A997A9019697AB86ABF7
:100740000895ECEBF5E086A997A9019797AB86ABE6
:1007500008950C9438020C945302CF93DF93CDB7D5
:10076000DEB729970FB6F894DEBF0FBECDBF99E074
:10077000E4E0F2E0DE01119601900D929A95E1F726
:100780008931D8F0E1E092E3891770F0975EEF5F6E
:100790009A3FD1F78FEF29960FB6F894DEBF0FBEC0
:1007A000CDBFDF91CF910895F0E081E090E08C0F14
:1007B0009D1FE80FF91F8081EECFE0E0F0E0F5CF5C
:1007C0000E94CA050E94B20A0E942C040C9443089D
:1007D000E0919502F0919602309731F414C00190A7
:1007E000F081E02D309779F0228133812817390785
:1007F000B1F7DC01AD57BF4F2C91278713962C9191
:10080000208B22E024830C940D0510929602109206
:1008100095020895FC01148217861382128280913A
:10082000F2059091F30501969093F3058093F205FC
:100830008091950290919602009739F09183808380
:10084000F0939602E0939502089511821082F0933E
:100850009602E093950208950F931F93CF93DF9331
:10086000E0919502F0919602309751F1EF018C8161
:10087000882359F18230F9F4EC17FD0711F48AC08E
:10088000FC01808191818C179D07D1F78881998126
:10089000918380838091F2059091F3050197909365
:1008A000F3058093F205ED85FE85CE01DF91CF91B2
:1008B0001F910F9109940990D881C02D2097B9F606
:1008C000DF91CF911F910F9108950E94DC048C015C
:1008D000009709F457C09B838A8381E08C83F801D9
:1008E000E957FF4F88EE93E09183808331978985A4
:1008F00082FB882780F98083F8018385998590FBA6
:1009000080F98387998593FB992790F990FB82F969
:10091000838799859695917090FB81F98387809163
:10092000C0058F5F8093C00584878091BC0590913E
:10093000BD05968785878D819E81908B8787888569
:10094000982F9F708189807F892B818B9F819295C1
:10095000907F8F70892B818BEF57FF4F4C8550E034
:100960006A857B85808191810E941F0EF8019181AB
:100970008C85890F8183C801DF91CF911F910F91E1
:100980000C94CC0982E08C838F87DF91CF911F91EB
:100990000F91089588819981909396028093950292
:1009A00079CF10929702109220031092A90310920F
:1009B00032041092BB040895E7E9F2E080E090E091
:1009C0002081222349F00196E757FF4F853091059A
:1009D000B9F780E090E0089549E8489F9001499F69
:1009E000300D1124C90189569D4FFC0111924A9581
:1009F000E9F740E1FC014183EF57FF4F27553D4F99
:100A0000318320832091F2053091F3052F5F3F4F12
:100A10003093F3052093F2050895FC011082ECEB6E
:100A2000F5E086A997A9019797AB86AB0895009743
:100A3000B1F0FC01E757FF4F85E0E434F80738F0E8
:100A40000BC0E757FF4F85E0E434F80728F48081B6
:100A50008823B9F3CF01089580E090E00895E7E995
:100A6000F2E0F5CFFC01DC01AD57BF4F1C92ACEBBF
:100A7000B5E014969C9114979F5F14969C931497DD
:100A800094878D919C91968785870895AC01E7E5C1
:100A9000F5E020E09081992319F09150908321E0B6
:100AA000359685E0E938F807A9F7211101C00895C6
:100AB000CA010C94D70BDC0119962C9119972223AB
:100AC00039F01796ED91FC9118972081222311F0AF
:100AD00080E008950C94640AE7E5F5E0108235960D
:100AE00085E0E938F807D1F784E690E0A0E0B0E0CF
:100AF00080934A0590934B05A0934C05B0934D0508
:100B000010924F0510924E0586E495E090935105A2
:100B1000809350056BE575E080E00C948703CF93DC
:100B2000DF93DC01ED91FC9111972181283819F0B8
:100B3000DF91CF91089520812F7D2134C9F712963E
:100B40002C912031A8F3EC010E94DC04009781F382
:100B500020E2FC0120832A8121832B81ED57FF4F66
:100B600020832C81319620834A8150E068817981ED
:100B70000296DF91CF910C941F0E80935205089539
:100B8000611104C024E2FC012083089522E2FC01EB
:100B9000208308957F928F929F92AF92BF92CF92BF
:100BA000DF92EF92FF920F931F93CF93DF93CDB716
:100BB000DEB72C970FB6F894DEBF0FBECDBF00E0B6
:100BC00010E044E2F42E9924939452E2852E61E2DF
:100BD000762E7BE0E72ECC24C394D12CC8010E9452
:100BE00017058C01892BA1F0D8018C91813209F471
:100BF0005BC110F1823209F493C0843279F7C801E5
:100C00000E940D05C8010E9417058C01892B61F710
:100C10002C960FB6F894DEBF0FBECDBFDF91CF91FB
:100C20001F910F91FF90EF90DF90CF90BF90AF900A
:100C30009F908F907F900895803281F6F801F08226
:100C4000838583FDCBCF258136812F3F3F4F09F42C
:100C500050C1F801278530892F3F3F4F09F45EC10D
:100C6000A090BC05B090BD05D8011D966D917C91FA
:100C70001E97A616B70609F4B1CFA7E5B5E0E3E5E0
:100C8000F5E080E090E020E030E00DC0408151814F
:100C90006417750709F44AC101961596359655E013
:100CA000E538F50759F04C914111F0CF9F010196BD
:100CB0001596359655E0E538F507A9F72115310564
:100CC00009F48CCFD90111967C936E93F801848539
:100CD00012968C93129713969C9213971496EC92FB
:100CE00084E495E00E94D70BA090BC05B090BD05B0
:100CF000D80117968D919C911897019609F439C1E6
:100D0000F801878590898A159B0519F0019609F0ED
:100D100065CFF801838581FD42C1F80180825ECFF5
:100D200010925205D80151962C915197322F32953D
:100D30003F70E32FF0E0EE0FFF1FEE53FA4F0190EC
:100D4000F081E02D309709F4ECC01D968D919C91B7
:100D50001E979A8389831F964D915C9150975C836F
:100D60004B832F702D833E83AF57BF4F6D917C9186
:100D70007987688798012E5F3F4F261B370BD80174
:100D800011963C911197230F2A87AD57BF4F2C9195
:100D90002B8711962C912C87D8011B962C91622FB2
:100DA000637022FD86C030E0632B23FD86C030E0F7
:100DB000262F232B4F3F5F4F09F486C030E0232BB3
:100DC000D80119964D915C911A978417950709F4EB
:100DD0008EC090E0822F892BD80115962D913C91E1
:100DE00016972F3F3F4F09F480C090E0892B8F83E7
:100DF000CE0101960995F801938590FF80E0D80116
:100E000017962D913C9118972F3F3F4F09F45EC0E4
:100E1000D80115962D913C9116972F3F3F4F09F41D
:100E200040C02091BC053091BD052F3F3F4FC9F117
:100E30008823B9F10E94DC045C01009791F10E94C3
:100E40003205D50111968C9111978D5F11968C9377
:100E50001197F501E957FF4F11821082F801838540
:100E6000869581701B969C911B9780FB91F91B9630
:100E70009C931B978585968550969C938E931F9780
:100E8000F501EF57FF4F0190F081E02D1082809126
:100E900052058283D8011C968C918183C5010E94E2
:100EA000CC09F801F0829ACE60E0C8010E94F007F8
:100EB00095CE30E2632B23FF7ACF30E4262F232B0D
:100EC0004F3F5F4F09F07ACF34E079CF4091BC05B6
:100ED0005091BD05F801278530894217530709F065
:100EE00097CF93FD95CF81E093CF90E17FCF98E0AE
:100EF00071CFD8011F962D913C9150974091BC0520
:100F00005091BD054217530721F02F3F3F4F09F085
:100F100065CE81FF08C0F801708260CE80FFA0CE50
:100F20005DCE80E068CFD8018C9258CEF801248540
:100F3000FC01EE0FFF1FEE0FFF1F8E0F9F1FFC0126
:100F4000ED5AFA4F8281821B883058F59381292F00
:100F500030E0082E02C0359527950A94E2F720FD6F
:100F60003DCE960101C0220F8A95EAF7922B93831A
:100F7000BFCED8011F968D919C9150978A159B05E5
:100F800009F4C7CED8011B962C9122FDBFCEC80113
:100F90000E941C0AA090BC05B090BD05B1CE708225
:100FA0001DCE2283238130E08195A90102C0440F28
:100FB000551F8A95E2F7CA0181608383E48298CE47
:100FC00010929A0510929905109298050895FC01C7
:100FD00090E1A2EEB5E001900D929A95E1F70895A7
:100FE000611109C021E3FC01208380919A058F5F84
:100FF00080939A05089520E3FC01208380919A054F
:101000008F5F80939A050895CF93DF93C0919805E1
:10101000D0919905FE01EF57FF4FA081B1817091EA
:101020009605872F90E060919705262F613118F182
:1010300020E13091950545E855E0A80FB91FFA0168
:1010400090818C9189278D93311102C090818927DD
:10105000808331968E2F841B821790F3720F7093CA
:101060009605621B60939705611108C084E388832D
:10107000DF91CF9108956111DCCFF0CF82E38883B7
:10108000DF91CF9108950F931F93CF93DF938091BA
:101090009A05882369F0E0919805F09199053097B9
:1010A00009F468C08081843341F0823309F456C06A
:1010B000DF91CF911F910F91089580919605DF01E7
:1010C000AF57BF4FCD91DC91C80FD11D409189051D
:1010D00050918A0560918B0570918C0580918505F2
:1010E00090918605A0918705B09188058427952762
:1010F000A627B72740918D0550918E0560918F05E9
:101100007091900584279527A627B72740919105D0
:1011100050919205609193057091940584279527CD
:10112000A627B72720919505211132C061E00881DB
:1011300019812A813B8180179107A207B30709F023
:1011400060E0CF010E94C0051092990510929805A9
:1011500080919A05815080939A05AACF83E380837A
:1011600062EE75E085E895E0DF91CF911F910F91D8
:101170000C94540B80E090E006C0FC01208130ED1F
:10118000320F323080F00E9417050097B1F790CFF0
:1011900088839983AA83BB8381818C5F8183CF01FC
:1011A0000E948D0AD1CF909399058093980544852C
:1011B00050E060E070E040938505509386056093B1
:1011C0008705709388054785508960E070E0BA0113
:1011D00055274427318932953F70432B4093890529
:1011E00050938A0560938B0570938C0545855685D1
:1011F00060E070E0BA015527442731893F70432BE6
:1012000040938D0550938E0560938F0570939005E4
:1012100033854581568160E070E0BA015527442747
:10122000432B4093910550939205609393057093DF
:1012300094052133D1F03181FC01EF57FF4F6081DC
:101240007181AC014E5F5F4F461B570B430F4093BC
:1012500097051092960531E0203309F030E0309385
:10126000950522E3FC01208323CFFC0141813CEF63
:10127000340F3183E1CF0F931F93CF93DF93EC01B2
:1012800010E080E090E003E10E9417050097A9F0CC
:10129000FC0120812131C1F7EC57FF4F20813181C2
:1012A0002150310931832083232B71F4FC01008309
:1012B00011E00E941705009759F7111107C0DF913F
:1012C000CF911F910F91089511E0DECFCE01DF91F4
:1012D000CF911F910F910C94D70BFF920F931F93F7
:1012E000CF93DF93EC0110E080E090E027E1F22E55
:1012F00000E10E9417050097C1F0FC012081263112
:10130000C1F7EC57FF4F20813181215031093183E2
:101310002083232B91F4FC01F082ED57FF4F0083D3
:1013200011E00E941705009741F7111108C0DF91E5
:10133000CF911F910F91FF90089511E0DACFCE0168
:10134000DF91CF911F910F91FF900C94D70B1092CA
:10135000B8051092B705E9EAF5E082E390E0A0E075
:10136000B0E086839783A087B187138612868DE6C7
:1013700099E095878487EBE9F5E08AE090E0A0E0CA
:10138000B0E086839783A087B187138612868BE3AC
:1013900099E0958784870895CF93DF93FC01DC0162
:1013A000AA57BF4F8C9181FD03C0938591FD31C039
:1013B00092E19083DF01AD57BF4F1C9280FF22C0A6
:1013C0008FEF9FEF9683858327853089308727832A
:1013D0008091BC059091BD05928781878091C10560
:1013E0008F5F8093C10584832F3F3F4FA9F081E633
:1013F00098E893838283EC57FF4F11821082DF912C
:10140000CF9108958091BE059091BF059683858305
:10141000DBCF90E19083CECFEF0181E498E8938316
:1014200082830E94100EFE01EC57FF4F87709927B0
:10143000019691838083E3CF0F931F93CF93DF9324
:101440008C010E94DC04EC01892BC9F182E18883C4
:10145000F80181818983FE01ED57FF4F10820E94C0
:10146000100EFE01EC57FF4F87709927019691836C
:101470008083339611821082F801418150E0B801D7
:101480006E5F7F4FCE0102960E941F0E81E498E8A6
:101490009B838A838FEF9FEF98878F83F8018581E5
:1014A00096819E838D838091BC059091BD059A871E
:1014B00089878091C1058F5F8093C1058C83DF91FF
:1014C000CF911F910F910895CF93DF93FC01C781B6
:1014D000D0858185833021F080E0DF91CF91089520
:1014E00080E090E00E9417050097B1F3FC01208195
:1014F0002631C1F7348529813213F4CF27E12083C7
:101500002A81EA57FF4F208381E0E7CF27E1FC01E2
:101510002083ED57FF4F6083089522E1FC01208373
:101520000895A091B705B091B8058330C8F4E82FAD
:10153000F0E0E35FFD4F8081FD01ED57FF4F8083B9
:1015400085E18C931092B8051092B7058091F20551
:101550009091F30501979093F3058093F205089518
:1015600081E0EACFBF92CF92DF92EF92FF920F938A
:101570001F93CF93DF93C0E0D0E084E1C82E97E1C2
:10158000F92E26E1B22E05E110E033E1E32E41E130
:10159000D42ECE010E941705EC01892BB9F0888169
:1015A000833199F1E8F4803159F1823191F7FE01EC
:1015B000EC57FF4F80819181892B09F05EC0E88252
:1015C000CE010E941705EC01892B49F7DF91CF91DD
:1015D0001F910F91FF90EF90DF90CF90BF900895F3
:1015E000853171F18731A9F6FE01E957FF4F01906E
:1015F000F081E02DCE01309709F445C00995C9CF9F
:1016000061E0CE010E94F007C4CF8091B7059091B0
:10161000B805892B09F0BDCFD093B805C093B705A5
:10162000C8826981CE0102960E9461028091F20512
:101630009091F30501969093F3058093F205A9CF5D
:10164000FE01ED57FF4F8081811109C02D853E8538
:101650008091BC059091BD052817390711F0F882DB
:1016600098CF8B8580FFFBCFB882319611830083A2
:1016700089EA95E00E94D70B8CCFD8828BE995E060
:101680000E94D70B86CF0E940D0583CF0E94C10018
:101690000E94D20B0E94DB010C945D030E94DB02CE
:1016A0000E94E0030C94430C0E9492020C940408E4
:1016B000EF92FF920F931F93CF93DF93DC01809102
:1016C000B9059091BA05009709F452C016964D914C
:1016D0005D916D917C911997FC01E12CF12C01C079
:1016E000F901028113812481358140175107620776
:1016F0007307F0F0401B510B620B730B208131819B
:101700007F012115310561F712964D935D936D931D
:101710007C9315978081918111969C938E93B183D0
:10172000A083DF91CF911F910F91FF90EF900895CB
:10173000EF01F701041B150B260B370B0A831B83E4
:101740002C833D8312964D935D936D937C931597F7
:10175000309701F711969C938E93B093BA05A0939E
:10176000B905DF91CF911F910F91FF90EF900895F0
:1017700011961C921E9216964D915D916D917C91E1
:10178000199712964D935D936D937C931597B09333
:10179000BA05A093B905DF91CF911F910F91FF90EA
:1017A000EF9008951092BA051092B9050895E0914E
:1017B000B905F091BA05309761F08E179F0721F4B3
:1017C0000BC08E179F0739F00190F081E02D309704
:1017D000C1F70C94580B08950895CF93DF93A0910F
:1017E000B905B091BA05109769F0A817B90729F49F
:1017F0002BC08E179F0749F0DF01ED91FC911197E7
:101800003097B9F7DF91CF9108951097F1F0EC017F
:10181000288139812D933C93E881F981309791F3A8
:101820004281538164817581EC018A819B81AC8105
:10183000BD81840F951FA61FB71F82839383A48346
:10184000B583DF91CF910895FC010190F081E02DE7
:10185000F093BA05E093B905E1CFE091B905F091B5
:10186000BA05309761F0E817F90721F40AC08E171E
:101870009F0739F00190F081E02D3097C1F780E0AB
:10188000089581E00895CF92DF92EF92FF92CF9377
:10189000DF938091BB05882309F459C08FB7F89472
:1018A000C090BB051092BB058FBFD12CE12CF12C51
:1018B000CC0CDD1CEE1CFF1CD701C601880F991F44
:1018C000AA1FBB1F880F991FAA1FBB1FC80ED91EB6
:1018D000EA1EFB1EC091B905D091BA052097B9F157
:1018E0008A819B81AC81BD81C816D906EA06FB06B8
:1018F000A0F425C0EC85FD85CE010995C091B90500
:10190000D091BA05209719F18A819B81AC81BD8164
:10191000C816D906EA06FB0690F0C81AD90AEA0AE0
:10192000FB0A888199819093BA058093B9058A85CD
:101930009B850197F9F6CE010E94580BDBCF8C19DD
:101940009D09AE09BF098A839B83AC83BD83DF9168
:10195000CF91FF90EF90DF90CF90089580E28AB909
:101960001BB88FEC97E00197F1F700C0000084E608
:1019700020E298E12BB900001BB800C000C00000B5
:101980009150C1F78150A9F79FEF29E638E19150B6
:1019900020403040E1F700C0000081E08093100259
:1019A00020E290E264E170E043E050E02BB987FD73
:1019B00054C000001BB800C000C00000809110029D
:1019C0002BB986FF54C000C000C000001BB8000047
:1019D000809110022BB985FF54C000C000C00000E8
:1019E0001BB80000809110022BB984FF54C000C0C6
:1019F00000C000001BB80000809110022BB983FFCB
:101A000054C000C000C000001BB80000809110024C
:101A10002BB982FF54C000C000C000001BB80000FA
:101A2000809110022BB981FF54C000C000C000009B
:101A30001BB80000809110022BB980FF54C000C079
:101A400000C000001BB800004150510909F454C007
:101A5000809110022BB987FFACCF00C000C00000FE
:101A60001BB80000809110022BB986FDACCF00009E
:101A70001BB800C000C00000809110022BB985FD8A
:101A8000ACCF00001BB800C000C000008091100265
:101A90002BB984FDACCF00001BB800C000C0000013
:101AA000809110022BB983FDACCF00001BB800C0A1
:101AB00000C00000809110022BB982FDACCF000065
:101AC0001BB800C000C00000809110022BB981FD3E
:101AD000ACCF00001BB800C000C000008091100215
:101AE0002BB980FDACCF00001BB800C000C00000C7
:101AF0004150510909F0ACCF6150710919F0809142
:101B0000100252CF4FEF89E638E14150804030401B
:101B1000E1F700C0000034E688E19BB900001BB883
:101B200000C000C000008150C1F73150A9F74FEF4D
:101B300080E732E0415080403040E1F700C00000D3
:101B4000809110022FCFA1E21A2EAA1BBB1BFD0110
:101B50000DC0AA1FBB1FEE1FFF1FA217B307E4078C
:101B6000F50720F0A21BB30BE40BF50B661F771FE4
:101B7000881F991F1A9469F76095709580959095C4
:101B80009B01AC01BD01CF0108958F929F92AF924E
:101B9000BF92CF92DF92EF92FF92CF93DF93EC014F
:101BA000688179818A819B81611571058105910523
:101BB00021F464E279ED8BE597E02DE133EF41E02C
:101BC00050E00E943B0E49015A019B01AC01A7EA7B
:101BD000B1E40E94280E6B017C01ACEEB4EFA501CC
:101BE00094010E94360EDC01CB018C0D9D1DAE1DB3
:101BF000BF1DB7FF03C00197A109B048888399832F
:101C0000AA83BB839F77DF91CF91FF90EF90DF9006
:101C1000CF90BF90AF909F908F9008950C94C50D7A
:101C200080E092E00C94C50DA0E0B0E0809300024B
:101C300090930102A0930202B09303020895FB0166
:101C4000DC0102C001900D9241505040D8F7089538
:101C50000E945A0EA59F900DB49F900DA49F800DD9
:101C6000911D11240895B7FF0C94280E0E94280E90
:101C7000821B930B0895052E97FB1EF400940E947F
:101C8000520E57FD07D00E94A30D07FC03D04EF45F
:101C90000C94520E50954095309521953F4F4F4FE3
:101CA0005F4F089590958095709561957F4F8F4F08
:101CB0009F4F0895A29FB001B39FC001A39F700DD5
:101CC000811D1124911DB29F700D811D1124911D44
:061CD0000895F894FFCF17
:101CD6000100000003081A4080BEE6F7FC00202140
:00000001FF
